{
  "contracts/EmojiNft.sol": {
    "EmojiNft1": {
      "abi": [
        {
          "inputs": [],
          "stateMutability": "payable",
          "type": "constructor"
        },
        {
          "anonymous": false,
          "inputs": [
            {
              "indexed": true,
              "internalType": "address",
              "name": "owner",
              "type": "address"
            },
            {
              "indexed": true,
              "internalType": "address",
              "name": "approved",
              "type": "address"
            },
            {
              "indexed": true,
              "internalType": "uint256",
              "name": "tokenId",
              "type": "uint256"
            }
          ],
          "name": "Approval",
          "type": "event"
        },
        {
          "anonymous": false,
          "inputs": [
            {
              "indexed": true,
              "internalType": "address",
              "name": "owner",
              "type": "address"
            },
            {
              "indexed": true,
              "internalType": "address",
              "name": "operator",
              "type": "address"
            },
            {
              "indexed": false,
              "internalType": "bool",
              "name": "approved",
              "type": "bool"
            }
          ],
          "name": "ApprovalForAll",
          "type": "event"
        },
        {
          "anonymous": false,
          "inputs": [
            {
              "indexed": true,
              "internalType": "address",
              "name": "previousOwner",
              "type": "address"
            },
            {
              "indexed": true,
              "internalType": "address",
              "name": "newOwner",
              "type": "address"
            }
          ],
          "name": "OwnershipTransferred",
          "type": "event"
        },
        {
          "anonymous": false,
          "inputs": [
            {
              "indexed": true,
              "internalType": "address",
              "name": "from",
              "type": "address"
            },
            {
              "indexed": true,
              "internalType": "address",
              "name": "to",
              "type": "address"
            },
            {
              "indexed": true,
              "internalType": "uint256",
              "name": "tokenId",
              "type": "uint256"
            }
          ],
          "name": "Transfer",
          "type": "event"
        },
        {
          "inputs": [],
          "name": "_revealed",
          "outputs": [
            {
              "internalType": "bool",
              "name": "",
              "type": "bool"
            }
          ],
          "stateMutability": "view",
          "type": "function"
        },
        {
          "inputs": [
            {
              "internalType": "address[]",
              "name": "_users",
              "type": "address[]"
            }
          ],
          "name": "addPresaleUsers",
          "outputs": [],
          "stateMutability": "nonpayable",
          "type": "function"
        },
        {
          "inputs": [
            {
              "internalType": "address",
              "name": "to",
              "type": "address"
            },
            {
              "internalType": "uint256",
              "name": "tokenId",
              "type": "uint256"
            }
          ],
          "name": "approve",
          "outputs": [],
          "stateMutability": "nonpayable",
          "type": "function"
        },
        {
          "inputs": [
            {
              "internalType": "address",
              "name": "owner",
              "type": "address"
            }
          ],
          "name": "balanceOf",
          "outputs": [
            {
              "internalType": "uint256",
              "name": "",
              "type": "uint256"
            }
          ],
          "stateMutability": "view",
          "type": "function"
        },
        {
          "inputs": [],
          "name": "baseExtension",
          "outputs": [
            {
              "internalType": "string",
              "name": "",
              "type": "string"
            }
          ],
          "stateMutability": "view",
          "type": "function"
        },
        {
          "inputs": [],
          "name": "baseURI",
          "outputs": [
            {
              "internalType": "string",
              "name": "",
              "type": "string"
            }
          ],
          "stateMutability": "view",
          "type": "function"
        },
        {
          "inputs": [],
          "name": "flipRevealState",
          "outputs": [],
          "stateMutability": "nonpayable",
          "type": "function"
        },
        {
          "inputs": [],
          "name": "flipSaleState",
          "outputs": [],
          "stateMutability": "nonpayable",
          "type": "function"
        },
        {
          "inputs": [
            {
              "internalType": "uint256",
              "name": "tokenId",
              "type": "uint256"
            }
          ],
          "name": "getApproved",
          "outputs": [
            {
              "internalType": "address",
              "name": "",
              "type": "address"
            }
          ],
          "stateMutability": "view",
          "type": "function"
        },
        {
          "inputs": [
            {
              "internalType": "address",
              "name": "owner",
              "type": "address"
            },
            {
              "internalType": "address",
              "name": "operator",
              "type": "address"
            }
          ],
          "name": "isApprovedForAll",
          "outputs": [
            {
              "internalType": "bool",
              "name": "",
              "type": "bool"
            }
          ],
          "stateMutability": "view",
          "type": "function"
        },
        {
          "inputs": [],
          "name": "maxBalance",
          "outputs": [
            {
              "internalType": "uint256",
              "name": "",
              "type": "uint256"
            }
          ],
          "stateMutability": "view",
          "type": "function"
        },
        {
          "inputs": [],
          "name": "maxMintAmount",
          "outputs": [
            {
              "internalType": "uint256",
              "name": "",
              "type": "uint256"
            }
          ],
          "stateMutability": "view",
          "type": "function"
        },
        {
          "inputs": [],
          "name": "maxSupply",
          "outputs": [
            {
              "internalType": "uint256",
              "name": "",
              "type": "uint256"
            }
          ],
          "stateMutability": "view",
          "type": "function"
        },
        {
          "inputs": [
            {
              "internalType": "uint256",
              "name": "_mintAmount",
              "type": "uint256"
            }
          ],
          "name": "mintNft",
          "outputs": [],
          "stateMutability": "payable",
          "type": "function"
        },
        {
          "inputs": [],
          "name": "name",
          "outputs": [
            {
              "internalType": "string",
              "name": "",
              "type": "string"
            }
          ],
          "stateMutability": "view",
          "type": "function"
        },
        {
          "inputs": [],
          "name": "notRevealedUri",
          "outputs": [
            {
              "internalType": "string",
              "name": "",
              "type": "string"
            }
          ],
          "stateMutability": "view",
          "type": "function"
        },
        {
          "inputs": [],
          "name": "owner",
          "outputs": [
            {
              "internalType": "address",
              "name": "",
              "type": "address"
            }
          ],
          "stateMutability": "view",
          "type": "function"
        },
        {
          "inputs": [
            {
              "internalType": "uint256",
              "name": "tokenId",
              "type": "uint256"
            }
          ],
          "name": "ownerOf",
          "outputs": [
            {
              "internalType": "address",
              "name": "",
              "type": "address"
            }
          ],
          "stateMutability": "view",
          "type": "function"
        },
        {
          "inputs": [],
          "name": "presalePrice",
          "outputs": [
            {
              "internalType": "uint256",
              "name": "",
              "type": "uint256"
            }
          ],
          "stateMutability": "view",
          "type": "function"
        },
        {
          "inputs": [
            {
              "internalType": "address",
              "name": "",
              "type": "address"
            }
          ],
          "name": "presaleWallets",
          "outputs": [
            {
              "internalType": "bool",
              "name": "",
              "type": "bool"
            }
          ],
          "stateMutability": "view",
          "type": "function"
        },
        {
          "inputs": [],
          "name": "publicPrice",
          "outputs": [
            {
              "internalType": "uint256",
              "name": "",
              "type": "uint256"
            }
          ],
          "stateMutability": "view",
          "type": "function"
        },
        {
          "inputs": [
            {
              "internalType": "address",
              "name": "_user",
              "type": "address"
            }
          ],
          "name": "removePresaleUser",
          "outputs": [],
          "stateMutability": "nonpayable",
          "type": "function"
        },
        {
          "inputs": [
            {
              "internalType": "address",
              "name": "_user",
              "type": "address"
            }
          ],
          "name": "removeWhitelistUser",
          "outputs": [],
          "stateMutability": "nonpayable",
          "type": "function"
        },
        {
          "inputs": [],
          "name": "renounceOwnership",
          "outputs": [],
          "stateMutability": "nonpayable",
          "type": "function"
        },
        {
          "inputs": [
            {
              "internalType": "address",
              "name": "from",
              "type": "address"
            },
            {
              "internalType": "address",
              "name": "to",
              "type": "address"
            },
            {
              "internalType": "uint256",
              "name": "tokenId",
              "type": "uint256"
            }
          ],
          "name": "safeTransferFrom",
          "outputs": [],
          "stateMutability": "nonpayable",
          "type": "function"
        },
        {
          "inputs": [
            {
              "internalType": "address",
              "name": "from",
              "type": "address"
            },
            {
              "internalType": "address",
              "name": "to",
              "type": "address"
            },
            {
              "internalType": "uint256",
              "name": "tokenId",
              "type": "uint256"
            },
            {
              "internalType": "bytes",
              "name": "_data",
              "type": "bytes"
            }
          ],
          "name": "safeTransferFrom",
          "outputs": [],
          "stateMutability": "nonpayable",
          "type": "function"
        },
        {
          "inputs": [],
          "name": "saleIsActive",
          "outputs": [
            {
              "internalType": "bool",
              "name": "",
              "type": "bool"
            }
          ],
          "stateMutability": "view",
          "type": "function"
        },
        {
          "inputs": [
            {
              "internalType": "address",
              "name": "operator",
              "type": "address"
            },
            {
              "internalType": "bool",
              "name": "approved",
              "type": "bool"
            }
          ],
          "name": "setApprovalForAll",
          "outputs": [],
          "stateMutability": "nonpayable",
          "type": "function"
        },
        {
          "inputs": [
            {
              "internalType": "string",
              "name": "_newBaseExtension",
              "type": "string"
            }
          ],
          "name": "setBaseExtension",
          "outputs": [],
          "stateMutability": "nonpayable",
          "type": "function"
        },
        {
          "inputs": [
            {
              "internalType": "string",
              "name": "_newBaseURI",
              "type": "string"
            }
          ],
          "name": "setBaseURI",
          "outputs": [],
          "stateMutability": "nonpayable",
          "type": "function"
        },
        {
          "inputs": [
            {
              "internalType": "uint256",
              "name": "_maxBalance",
              "type": "uint256"
            }
          ],
          "name": "setMaxBalance",
          "outputs": [],
          "stateMutability": "nonpayable",
          "type": "function"
        },
        {
          "inputs": [
            {
              "internalType": "string",
              "name": "_notRevealedURI",
              "type": "string"
            }
          ],
          "name": "setNotRevealedURI",
          "outputs": [],
          "stateMutability": "nonpayable",
          "type": "function"
        },
        {
          "inputs": [
            {
              "internalType": "uint256",
              "name": "_newmaxMintAmount",
              "type": "uint256"
            }
          ],
          "name": "setmaxMintAmount",
          "outputs": [],
          "stateMutability": "nonpayable",
          "type": "function"
        },
        {
          "inputs": [
            {
              "internalType": "uint256",
              "name": "_newpublicPrice",
              "type": "uint256"
            }
          ],
          "name": "setpresalePrice",
          "outputs": [],
          "stateMutability": "nonpayable",
          "type": "function"
        },
        {
          "inputs": [
            {
              "internalType": "uint256",
              "name": "_newpublicPrice",
              "type": "uint256"
            }
          ],
          "name": "setpublicPrice",
          "outputs": [],
          "stateMutability": "nonpayable",
          "type": "function"
        },
        {
          "inputs": [
            {
              "internalType": "bytes4",
              "name": "interfaceId",
              "type": "bytes4"
            }
          ],
          "name": "supportsInterface",
          "outputs": [
            {
              "internalType": "bool",
              "name": "",
              "type": "bool"
            }
          ],
          "stateMutability": "view",
          "type": "function"
        },
        {
          "inputs": [],
          "name": "symbol",
          "outputs": [
            {
              "internalType": "string",
              "name": "",
              "type": "string"
            }
          ],
          "stateMutability": "view",
          "type": "function"
        },
        {
          "inputs": [
            {
              "internalType": "uint256",
              "name": "index",
              "type": "uint256"
            }
          ],
          "name": "tokenByIndex",
          "outputs": [
            {
              "internalType": "uint256",
              "name": "",
              "type": "uint256"
            }
          ],
          "stateMutability": "view",
          "type": "function"
        },
        {
          "inputs": [
            {
              "internalType": "address",
              "name": "owner",
              "type": "address"
            },
            {
              "internalType": "uint256",
              "name": "index",
              "type": "uint256"
            }
          ],
          "name": "tokenOfOwnerByIndex",
          "outputs": [
            {
              "internalType": "uint256",
              "name": "",
              "type": "uint256"
            }
          ],
          "stateMutability": "view",
          "type": "function"
        },
        {
          "inputs": [
            {
              "internalType": "uint256",
              "name": "tokenId",
              "type": "uint256"
            }
          ],
          "name": "tokenURI",
          "outputs": [
            {
              "internalType": "string",
              "name": "",
              "type": "string"
            }
          ],
          "stateMutability": "view",
          "type": "function"
        },
        {
          "inputs": [],
          "name": "totalSupply",
          "outputs": [
            {
              "internalType": "uint256",
              "name": "",
              "type": "uint256"
            }
          ],
          "stateMutability": "view",
          "type": "function"
        },
        {
          "inputs": [
            {
              "internalType": "address",
              "name": "from",
              "type": "address"
            },
            {
              "internalType": "address",
              "name": "to",
              "type": "address"
            },
            {
              "internalType": "uint256",
              "name": "tokenId",
              "type": "uint256"
            }
          ],
          "name": "transferFrom",
          "outputs": [],
          "stateMutability": "nonpayable",
          "type": "function"
        },
        {
          "inputs": [
            {
              "internalType": "address",
              "name": "newOwner",
              "type": "address"
            }
          ],
          "name": "transferOwnership",
          "outputs": [],
          "stateMutability": "nonpayable",
          "type": "function"
        },
        {
          "inputs": [
            {
              "internalType": "address",
              "name": "_owner",
              "type": "address"
            }
          ],
          "name": "walletOfOwner",
          "outputs": [
            {
              "internalType": "uint256[]",
              "name": "",
              "type": "uint256[]"
            }
          ],
          "stateMutability": "view",
          "type": "function"
        },
        {
          "inputs": [
            {
              "internalType": "address[]",
              "name": "_users",
              "type": "address[]"
            }
          ],
          "name": "whitelistUser",
          "outputs": [],
          "stateMutability": "nonpayable",
          "type": "function"
        },
        {
          "inputs": [
            {
              "internalType": "address",
              "name": "",
              "type": "address"
            }
          ],
          "name": "whitelisted",
          "outputs": [
            {
              "internalType": "bool",
              "name": "",
              "type": "bool"
            }
          ],
          "stateMutability": "view",
          "type": "function"
        },
        {
          "inputs": [],
          "name": "withdraw",
          "outputs": [],
          "stateMutability": "payable",
          "type": "function"
        }
      ],
      "evm": {
        "bytecode": {
          "linkReferences": {},
          "object": "60806040526000600a60146101000a81548160ff0219169083151502179055506000600a60156101000a81548160ff0219169083151502179055506040518060400160405280600581526020017f2e6a736f6e000000000000000000000000000000000000000000000000000000815250600d90805190602001906200008792919062000242565b50662386f26fc10000600e556611c37937e08000600f556127106010556002601155600a6012556040518060400160405280600881526020017f456d6f6a694e66740000000000000000000000000000000000000000000000008152506040518060400160405280600381526020017f454d4a000000000000000000000000000000000000000000000000000000000081525081600090805190602001906200013292919062000242565b5080600190805190602001906200014b92919062000242565b5050506200016e620001626200017460201b60201c565b6200017c60201b60201c565b62000357565b600033905090565b6000600a60009054906101000a900473ffffffffffffffffffffffffffffffffffffffff16905081600a60006101000a81548173ffffffffffffffffffffffffffffffffffffffff021916908373ffffffffffffffffffffffffffffffffffffffff1602179055508173ffffffffffffffffffffffffffffffffffffffff168173ffffffffffffffffffffffffffffffffffffffff167f8be0079c531659141344cd1fd0a4f28419497f9722a3daafe3b4186f6b6457e060405160405180910390a35050565b8280546200025090620002f2565b90600052602060002090601f016020900481019282620002745760008555620002c0565b82601f106200028f57805160ff1916838001178555620002c0565b82800160010185558215620002c0579182015b82811115620002bf578251825591602001919060010190620002a2565b5b509050620002cf9190620002d3565b5090565b5b80821115620002ee576000816000905550600101620002d4565b5090565b600060028204905060018216806200030b57607f821691505b6020821081141562000322576200032162000328565b5b50919050565b7f4e487b7100000000000000000000000000000000000000000000000000000000600052602260045260246000fd5b61524580620003676000396000f3fe6080604052600436106102875760003560e01c806370a082311161015a578063c3c1a138116100c1578063e985e9c51161007a578063e985e9c51461099d578063eb8d2444146109da578063ed931e1714610a05578063f2c4ce1e14610a2e578063f2fde38b14610a57578063f90296d814610a8057610287565b8063c3c1a1381461087b578063c6682862146108a4578063c87b56dd146108cf578063d5abeb011461090c578063d936547e14610937578063da3ef23f1461097457610287565b806395d89b411161011357806395d89b41146107815780639b6fbf8a146107ac5780639d51d9b7146107d5578063a22cb465146107fe578063a945bf8014610827578063b88d4fde1461085257610287565b806370a0823114610685578063715018a6146106c257806373ad468a146106d95780637f00c7a6146107045780638ae28a401461072d5780638da5cb5b1461075657610287565b80632f745c59116101fe578063438b6300116101b7578063438b63001461054f5780634f6ccce71461058c57806355f804b3146105c95780636352211e146105f25780636c0360eb1461062f5780636ebeac851461065a57610287565b80632f745c591461046257806330b2264e1461049f57806330cc7ae0146104dc57806334918dfd146105055780633ccfd60b1461051c57806342842e0e1461052657610287565b8063095ea7b311610250578063095ea7b3146103875780630d730acc146103b057806318160ddd146103cc578063239c70ae146103f757806323b872dd146104225780632714ce921461044b57610287565b80620e7fa81461028c57806301ffc9a7146102b757806306fdde03146102f4578063081812fc1461031f578063081c8c441461035c575b600080fd5b34801561029857600080fd5b506102a1610aa9565b6040516102ae91906146c2565b60405180910390f35b3480156102c357600080fd5b506102de60048036038101906102d99190613cfe565b610aaf565b6040516102eb91906143a5565b60405180910390f35b34801561030057600080fd5b50610309610b29565b60405161031691906143c0565b60405180910390f35b34801561032b57600080fd5b5061034660048036038101906103419190613d91565b610bbb565b604051610353919061431c565b60405180910390f35b34801561036857600080fd5b50610371610c40565b60405161037e91906143c0565b60405180910390f35b34801561039357600080fd5b506103ae60048036038101906103a99190613c81565b610cce565b005b6103ca60048036038101906103c59190613d91565b610de6565b005b3480156103d857600080fd5b506103e16110d2565b6040516103ee91906146c2565b60405180910390f35b34801561040357600080fd5b5061040c6110df565b60405161041991906146c2565b60405180910390f35b34801561042e57600080fd5b5061044960048036038101906104449190613b7b565b6110e5565b005b34801561045757600080fd5b50610460611145565b005b34801561046e57600080fd5b5061048960048036038101906104849190613c81565b6111ed565b60405161049691906146c2565b60405180910390f35b3480156104ab57600080fd5b506104c660048036038101906104c19190613b16565b611292565b6040516104d391906143a5565b60405180910390f35b3480156104e857600080fd5b5061050360048036038101906104fe9190613b16565b6112b2565b005b34801561051157600080fd5b5061051a611389565b005b610524611431565b005b34801561053257600080fd5b5061054d60048036038101906105489190613b7b565b611526565b005b34801561055b57600080fd5b5061057660048036038101906105719190613b16565b611546565b6040516105839190614383565b60405180910390f35b34801561059857600080fd5b506105b360048036038101906105ae9190613d91565b611640565b6040516105c091906146c2565b60405180910390f35b3480156105d557600080fd5b506105f060048036038101906105eb9190613d50565b6116d7565b005b3480156105fe57600080fd5b5061061960048036038101906106149190613d91565b61176d565b604051610626919061431c565b60405180910390f35b34801561063b57600080fd5b5061064461181f565b60405161065191906143c0565b60405180910390f35b34801561066657600080fd5b5061066f6118ad565b60405161067c91906143a5565b60405180910390f35b34801561069157600080fd5b506106ac60048036038101906106a79190613b16565b6118c0565b6040516106b991906146c2565b60405180910390f35b3480156106ce57600080fd5b506106d7611978565b005b3480156106e557600080fd5b506106ee611a00565b6040516106fb91906146c2565b60405180910390f35b34801561071057600080fd5b5061072b60048036038101906107269190613d91565b611a06565b005b34801561073957600080fd5b50610754600480360381019061074f9190613cbd565b611a8c565b005b34801561076257600080fd5b5061076b611bc3565b604051610778919061431c565b60405180910390f35b34801561078d57600080fd5b50610796611bed565b6040516107a391906143c0565b60405180910390f35b3480156107b857600080fd5b506107d360048036038101906107ce9190613cbd565b611c7f565b005b3480156107e157600080fd5b506107fc60048036038101906107f79190613d91565b611db6565b005b34801561080a57600080fd5b5061082560048036038101906108209190613c45565b611e3c565b005b34801561083357600080fd5b5061083c611e52565b60405161084991906146c2565b60405180910390f35b34801561085e57600080fd5b5061087960048036038101906108749190613bca565b611e58565b005b34801561088757600080fd5b506108a2600480360381019061089d9190613d91565b611eba565b005b3480156108b057600080fd5b506108b9611f40565b6040516108c691906143c0565b60405180910390f35b3480156108db57600080fd5b506108f660048036038101906108f19190613d91565b611fce565b60405161090391906143c0565b60405180910390f35b34801561091857600080fd5b50610921612127565b60405161092e91906146c2565b60405180910390f35b34801561094357600080fd5b5061095e60048036038101906109599190613b16565b61212d565b60405161096b91906143a5565b60405180910390f35b34801561098057600080fd5b5061099b60048036038101906109969190613d50565b61214d565b005b3480156109a957600080fd5b506109c460048036038101906109bf9190613b3f565b6121e3565b6040516109d191906143a5565b60405180910390f35b3480156109e657600080fd5b506109ef612277565b6040516109fc91906143a5565b60405180910390f35b348015610a1157600080fd5b50610a2c6004803603810190610a279190613b16565b61228a565b005b348015610a3a57600080fd5b50610a556004803603810190610a509190613d50565b612361565b005b348015610a6357600080fd5b50610a7e6004803603810190610a799190613b16565b6123f7565b005b348015610a8c57600080fd5b50610aa76004803603810190610aa29190613d91565b6124ef565b005b600f5481565b60007f780e9d63000000000000000000000000000000000000000000000000000000007bffffffffffffffffffffffffffffffffffffffffffffffffffffffff1916827bffffffffffffffffffffffffffffffffffffffffffffffffffffffff19161480610b225750610b2182612575565b5b9050919050565b606060008054610b38906149f7565b80601f0160208091040260200160405190810160405280929190818152602001828054610b64906149f7565b8015610bb15780601f10610b8657610100808354040283529160200191610bb1565b820191906000526020600020905b815481529060010190602001808311610b9457829003601f168201915b5050505050905090565b6000610bc682612657565b610c05576040517f08c379a0000000000000000000000000000000000000000000000000000000008152600401610bfc906145e2565b60405180910390fd5b6004600083815260200190815260200160002060009054906101000a900473ffffffffffffffffffffffffffffffffffffffff169050919050565b600c8054610c4d906149f7565b80601f0160208091040260200160405190810160405280929190818152602001828054610c79906149f7565b8015610cc65780601f10610c9b57610100808354040283529160200191610cc6565b820191906000526020600020905b815481529060010190602001808311610ca957829003601f168201915b505050505081565b6000610cd98261176d565b90508073ffffffffffffffffffffffffffffffffffffffff168373ffffffffffffffffffffffffffffffffffffffff161415610d4a576040517f08c379a0000000000000000000000000000000000000000000000000000000008152600401610d4190614642565b60405180910390fd5b8073ffffffffffffffffffffffffffffffffffffffff16610d696126c3565b73ffffffffffffffffffffffffffffffffffffffff161480610d985750610d9781610d926126c3565b6121e3565b5b610dd7576040517f08c379a0000000000000000000000000000000000000000000000000000000008152600401610dce90614542565b60405180910390fd5b610de183836126cb565b505050565b6000610df06110d2565b9050600a60159054906101000a900460ff16610e41576040517f08c379a0000000000000000000000000000000000000000000000000000000008152600401610e38906144a2565b60405180910390fd5b60008211610e4e57600080fd5b601154821115610e93576040517f08c379a0000000000000000000000000000000000000000000000000000000008152600401610e8a90614502565b60405180910390fd5b6010548282610ea2919061482c565b1115610ee3576040517f08c379a0000000000000000000000000000000000000000000000000000000008152600401610eda906145a2565b60405180910390fd5b60125482610ef0336118c0565b610efa919061482c565b1115610f3b576040517f08c379a0000000000000000000000000000000000000000000000000000000008152600401610f3290614442565b60405180910390fd5b610f43611bc3565b73ffffffffffffffffffffffffffffffffffffffff163373ffffffffffffffffffffffffffffffffffffffff16146110975760011515601360003373ffffffffffffffffffffffffffffffffffffffff1673ffffffffffffffffffffffffffffffffffffffff16815260200190815260200160002060009054906101000a900460ff161515146110965760011515601460003373ffffffffffffffffffffffffffffffffffffffff1673ffffffffffffffffffffffffffffffffffffffff16815260200190815260200160002060009054906101000a900460ff1615151461107a5781600e5461103391906148b3565b341015611075576040517f08c379a000000000000000000000000000000000000000000000000000000000815260040161106c906146a2565b60405180910390fd5b611095565b81600f5461108891906148b3565b34101561109457600080fd5b5b5b5b6000600190505b8281116110cd576110ba3382846110b5919061482c565b612784565b80806110c590614a5a565b91505061109e565b505050565b6000600880549050905090565b60115481565b6110f66110f06126c3565b826127a2565b611135576040517f08c379a000000000000000000000000000000000000000000000000000000000815260040161112c90614662565b60405180910390fd5b611140838383612880565b505050565b61114d6126c3565b73ffffffffffffffffffffffffffffffffffffffff1661116b611bc3565b73ffffffffffffffffffffffffffffffffffffffff16146111c1576040517f08c379a00000000000000000000000000000000000000000000000000000000081526004016111b890614602565b60405180910390fd5b600a60149054906101000a900460ff1615600a60146101000a81548160ff021916908315150217905550565b60006111f8836118c0565b8210611239576040517f08c379a0000000000000000000000000000000000000000000000000000000008152600401611230906143e2565b60405180910390fd5b600660008473ffffffffffffffffffffffffffffffffffffffff1673ffffffffffffffffffffffffffffffffffffffff168152602001908152602001600020600083815260200190815260200160002054905092915050565b60146020528060005260406000206000915054906101000a900460ff1681565b6112ba6126c3565b73ffffffffffffffffffffffffffffffffffffffff166112d8611bc3565b73ffffffffffffffffffffffffffffffffffffffff161461132e576040517f08c379a000000000000000000000000000000000000000000000000000000000815260040161132590614602565b60405180910390fd5b6000601360008373ffffffffffffffffffffffffffffffffffffffff1673ffffffffffffffffffffffffffffffffffffffff16815260200190815260200160002060006101000a81548160ff02191690831515021790555050565b6113916126c3565b73ffffffffffffffffffffffffffffffffffffffff166113af611bc3565b73ffffffffffffffffffffffffffffffffffffffff1614611405576040517f08c379a00000000000000000000000000000000000000000000000000000000081526004016113fc90614602565b60405180910390fd5b600a60159054906101000a900460ff1615600a60156101000a81548160ff021916908315150217905550565b6114396126c3565b73ffffffffffffffffffffffffffffffffffffffff16611457611bc3565b73ffffffffffffffffffffffffffffffffffffffff16146114ad576040517f08c379a00000000000000000000000000000000000000000000000000000000081526004016114a490614602565b60405180910390fd5b60003373ffffffffffffffffffffffffffffffffffffffff16476040516114d390614307565b60006040518083038185875af1925050503d8060008114611510576040519150601f19603f3d011682016040523d82523d6000602084013e611515565b606091505b505090508061152357600080fd5b50565b61154183838360405180602001604052806000815250611e58565b505050565b60606000611553836118c0565b905060008167ffffffffffffffff811115611597577f4e487b7100000000000000000000000000000000000000000000000000000000600052604160045260246000fd5b6040519080825280602002602001820160405280156115c55781602001602082028036833780820191505090505b50905060005b82811015611635576115dd85826111ed565b828281518110611616577f4e487b7100000000000000000000000000000000000000000000000000000000600052603260045260246000fd5b602002602001018181525050808061162d90614a5a565b9150506115cb565b508092505050919050565b600061164a6110d2565b821061168b576040517f08c379a000000000000000000000000000000000000000000000000000000000815260040161168290614682565b60405180910390fd5b600882815481106116c5577f4e487b7100000000000000000000000000000000000000000000000000000000600052603260045260246000fd5b90600052602060002001549050919050565b6116df6126c3565b73ffffffffffffffffffffffffffffffffffffffff166116fd611bc3565b73ffffffffffffffffffffffffffffffffffffffff1614611753576040517f08c379a000000000000000000000000000000000000000000000000000000000815260040161174a90614602565b60405180910390fd5b80600b90805190602001906117699291906138a4565b5050565b6000806002600084815260200190815260200160002060009054906101000a900473ffffffffffffffffffffffffffffffffffffffff169050600073ffffffffffffffffffffffffffffffffffffffff168173ffffffffffffffffffffffffffffffffffffffff161415611816576040517f08c379a000000000000000000000000000000000000000000000000000000000815260040161180d90614582565b60405180910390fd5b80915050919050565b600b805461182c906149f7565b80601f0160208091040260200160405190810160405280929190818152602001828054611858906149f7565b80156118a55780601f1061187a576101008083540402835291602001916118a5565b820191906000526020600020905b81548152906001019060200180831161188857829003601f168201915b505050505081565b600a60149054906101000a900460ff1681565b60008073ffffffffffffffffffffffffffffffffffffffff168273ffffffffffffffffffffffffffffffffffffffff161415611931576040517f08c379a000000000000000000000000000000000000000000000000000000000815260040161192890614562565b60405180910390fd5b600360008373ffffffffffffffffffffffffffffffffffffffff1673ffffffffffffffffffffffffffffffffffffffff168152602001908152602001600020549050919050565b6119806126c3565b73ffffffffffffffffffffffffffffffffffffffff1661199e611bc3565b73ffffffffffffffffffffffffffffffffffffffff16146119f4576040517f08c379a00000000000000000000000000000000000000000000000000000000081526004016119eb90614602565b60405180910390fd5b6119fe6000612ae7565b565b60125481565b611a0e6126c3565b73ffffffffffffffffffffffffffffffffffffffff16611a2c611bc3565b73ffffffffffffffffffffffffffffffffffffffff1614611a82576040517f08c379a0000000000000000000000000000000000000000000000000000000008152600401611a7990614602565b60405180910390fd5b8060118190555050565b611a946126c3565b73ffffffffffffffffffffffffffffffffffffffff16611ab2611bc3565b73ffffffffffffffffffffffffffffffffffffffff1614611b08576040517f08c379a0000000000000000000000000000000000000000000000000000000008152600401611aff90614602565b60405180910390fd5b60005b8151811015611bbf57600160146000848481518110611b53577f4e487b7100000000000000000000000000000000000000000000000000000000600052603260045260246000fd5b602002602001015173ffffffffffffffffffffffffffffffffffffffff1673ffffffffffffffffffffffffffffffffffffffff16815260200190815260200160002060006101000a81548160ff0219169083151502179055508080611bb790614a5a565b915050611b0b565b5050565b6000600a60009054906101000a900473ffffffffffffffffffffffffffffffffffffffff16905090565b606060018054611bfc906149f7565b80601f0160208091040260200160405190810160405280929190818152602001828054611c28906149f7565b8015611c755780601f10611c4a57610100808354040283529160200191611c75565b820191906000526020600020905b815481529060010190602001808311611c5857829003601f168201915b5050505050905090565b611c876126c3565b73ffffffffffffffffffffffffffffffffffffffff16611ca5611bc3565b73ffffffffffffffffffffffffffffffffffffffff1614611cfb576040517f08c379a0000000000000000000000000000000000000000000000000000000008152600401611cf290614602565b60405180910390fd5b60005b8151811015611db257600160146000848481518110611d46577f4e487b7100000000000000000000000000000000000000000000000000000000600052603260045260246000fd5b602002602001015173ffffffffffffffffffffffffffffffffffffffff1673ffffffffffffffffffffffffffffffffffffffff16815260200190815260200160002060006101000a81548160ff0219169083151502179055508080611daa90614a5a565b915050611cfe565b5050565b611dbe6126c3565b73ffffffffffffffffffffffffffffffffffffffff16611ddc611bc3565b73ffffffffffffffffffffffffffffffffffffffff1614611e32576040517f08c379a0000000000000000000000000000000000000000000000000000000008152600401611e2990614602565b60405180910390fd5b8060128190555050565b611e4e611e476126c3565b8383612bad565b5050565b600e5481565b611e69611e636126c3565b836127a2565b611ea8576040517f08c379a0000000000000000000000000000000000000000000000000000000008152600401611e9f90614662565b60405180910390fd5b611eb484848484612d1a565b50505050565b611ec26126c3565b73ffffffffffffffffffffffffffffffffffffffff16611ee0611bc3565b73ffffffffffffffffffffffffffffffffffffffff1614611f36576040517f08c379a0000000000000000000000000000000000000000000000000000000008152600401611f2d90614602565b60405180910390fd5b80600f8190555050565b600d8054611f4d906149f7565b80601f0160208091040260200160405190810160405280929190818152602001828054611f79906149f7565b8015611fc65780601f10611f9b57610100808354040283529160200191611fc6565b820191906000526020600020905b815481529060010190602001808311611fa957829003601f168201915b505050505081565b6060611fd982612657565b612018576040517f08c379a000000000000000000000000000000000000000000000000000000000815260040161200f90614622565b60405180910390fd5b60001515600a60149054906101000a900460ff16151514156120c657600c8054612041906149f7565b80601f016020809104026020016040519081016040528092919081815260200182805461206d906149f7565b80156120ba5780601f1061208f576101008083540402835291602001916120ba565b820191906000526020600020905b81548152906001019060200180831161209d57829003601f168201915b50505050509050612122565b60006120d0612d76565b905060008151116120f0576040518060200160405280600081525061211e565b806120fa84612e08565b600d60405160200161210e939291906142d6565b6040516020818303038152906040525b9150505b919050565b60105481565b60136020528060005260406000206000915054906101000a900460ff1681565b6121556126c3565b73ffffffffffffffffffffffffffffffffffffffff16612173611bc3565b73ffffffffffffffffffffffffffffffffffffffff16146121c9576040517f08c379a00000000000000000000000000000000000000000000000000000000081526004016121c090614602565b60405180910390fd5b80600d90805190602001906121df9291906138a4565b5050565b6000600560008473ffffffffffffffffffffffffffffffffffffffff1673ffffffffffffffffffffffffffffffffffffffff16815260200190815260200160002060008373ffffffffffffffffffffffffffffffffffffffff1673ffffffffffffffffffffffffffffffffffffffff16815260200190815260200160002060009054906101000a900460ff16905092915050565b600a60159054906101000a900460ff1681565b6122926126c3565b73ffffffffffffffffffffffffffffffffffffffff166122b0611bc3565b73ffffffffffffffffffffffffffffffffffffffff1614612306576040517f08c379a00000000000000000000000000000000000000000000000000000000081526004016122fd90614602565b60405180910390fd5b6000601460008373ffffffffffffffffffffffffffffffffffffffff1673ffffffffffffffffffffffffffffffffffffffff16815260200190815260200160002060006101000a81548160ff02191690831515021790555050565b6123696126c3565b73ffffffffffffffffffffffffffffffffffffffff16612387611bc3565b73ffffffffffffffffffffffffffffffffffffffff16146123dd576040517f08c379a00000000000000000000000000000000000000000000000000000000081526004016123d490614602565b60405180910390fd5b80600c90805190602001906123f39291906138a4565b5050565b6123ff6126c3565b73ffffffffffffffffffffffffffffffffffffffff1661241d611bc3565b73ffffffffffffffffffffffffffffffffffffffff1614612473576040517f08c379a000000000000000000000000000000000000000000000000000000000815260040161246a90614602565b60405180910390fd5b600073ffffffffffffffffffffffffffffffffffffffff168173ffffffffffffffffffffffffffffffffffffffff1614156124e3576040517f08c379a00000000000000000000000000000000000000000000000000000000081526004016124da90614422565b60405180910390fd5b6124ec81612ae7565b50565b6124f76126c3565b73ffffffffffffffffffffffffffffffffffffffff16612515611bc3565b73ffffffffffffffffffffffffffffffffffffffff161461256b576040517f08c379a000000000000000000000000000000000000000000000000000000000815260040161256290614602565b60405180910390fd5b80600e8190555050565b60007f80ac58cd000000000000000000000000000000000000000000000000000000007bffffffffffffffffffffffffffffffffffffffffffffffffffffffff1916827bffffffffffffffffffffffffffffffffffffffffffffffffffffffff1916148061264057507f5b5e139f000000000000000000000000000000000000000000000000000000007bffffffffffffffffffffffffffffffffffffffffffffffffffffffff1916827bffffffffffffffffffffffffffffffffffffffffffffffffffffffff1916145b80612650575061264f82612fb5565b5b9050919050565b60008073ffffffffffffffffffffffffffffffffffffffff166002600084815260200190815260200160002060009054906101000a900473ffffffffffffffffffffffffffffffffffffffff1673ffffffffffffffffffffffffffffffffffffffff1614159050919050565b600033905090565b816004600083815260200190815260200160002060006101000a81548173ffffffffffffffffffffffffffffffffffffffff021916908373ffffffffffffffffffffffffffffffffffffffff160217905550808273ffffffffffffffffffffffffffffffffffffffff1661273e8361176d565b73ffffffffffffffffffffffffffffffffffffffff167f8c5be1e5ebec7d5bd14f71427d1e84f3dd0314c0f7b2291e5b200ac8c7c3b92560405160405180910390a45050565b61279e82826040518060200160405280600081525061301f565b5050565b60006127ad82612657565b6127ec576040517f08c379a00000000000000000000000000000000000000000000000000000000081526004016127e390614522565b60405180910390fd5b60006127f78361176d565b90508073ffffffffffffffffffffffffffffffffffffffff168473ffffffffffffffffffffffffffffffffffffffff16148061286657508373ffffffffffffffffffffffffffffffffffffffff1661284e84610bbb565b73ffffffffffffffffffffffffffffffffffffffff16145b80612877575061287681856121e3565b5b91505092915050565b8273ffffffffffffffffffffffffffffffffffffffff166128a08261176d565b73ffffffffffffffffffffffffffffffffffffffff16146128f6576040517f08c379a00000000000000000000000000000000000000000000000000000000081526004016128ed90614462565b60405180910390fd5b600073ffffffffffffffffffffffffffffffffffffffff168273ffffffffffffffffffffffffffffffffffffffff161415612966576040517f08c379a000000000000000000000000000000000000000000000000000000000815260040161295d906144c2565b60405180910390fd5b61297183838361307a565b61297c6000826126cb565b6001600360008573ffffffffffffffffffffffffffffffffffffffff1673ffffffffffffffffffffffffffffffffffffffff16815260200190815260200160002060008282546129cc919061490d565b925050819055506001600360008473ffffffffffffffffffffffffffffffffffffffff1673ffffffffffffffffffffffffffffffffffffffff1681526020019081526020016000206000828254612a23919061482c565b92505081905550816002600083815260200190815260200160002060006101000a81548173ffffffffffffffffffffffffffffffffffffffff021916908373ffffffffffffffffffffffffffffffffffffffff160217905550808273ffffffffffffffffffffffffffffffffffffffff168473ffffffffffffffffffffffffffffffffffffffff167fddf252ad1be2c89b69c2b068fc378daa952ba7f163c4a11628f55a4df523b3ef60405160405180910390a4612ae283838361318e565b505050565b6000600a60009054906101000a900473ffffffffffffffffffffffffffffffffffffffff16905081600a60006101000a81548173ffffffffffffffffffffffffffffffffffffffff021916908373ffffffffffffffffffffffffffffffffffffffff1602179055508173ffffffffffffffffffffffffffffffffffffffff168173ffffffffffffffffffffffffffffffffffffffff167f8be0079c531659141344cd1fd0a4f28419497f9722a3daafe3b4186f6b6457e060405160405180910390a35050565b8173ffffffffffffffffffffffffffffffffffffffff168373ffffffffffffffffffffffffffffffffffffffff161415612c1c576040517f08c379a0000000000000000000000000000000000000000000000000000000008152600401612c13906144e2565b60405180910390fd5b80600560008573ffffffffffffffffffffffffffffffffffffffff1673ffffffffffffffffffffffffffffffffffffffff16815260200190815260200160002060008473ffffffffffffffffffffffffffffffffffffffff1673ffffffffffffffffffffffffffffffffffffffff16815260200190815260200160002060006101000a81548160ff0219169083151502179055508173ffffffffffffffffffffffffffffffffffffffff168373ffffffffffffffffffffffffffffffffffffffff167f17307eab39ab6107e8899845ad3d59bd9653f200f220920489ca2b5937696c3183604051612d0d91906143a5565b60405180910390a3505050565b612d25848484612880565b612d3184848484613193565b612d70576040517f08c379a0000000000000000000000000000000000000000000000000000000008152600401612d6790614402565b60405180910390fd5b50505050565b6060600b8054612d85906149f7565b80601f0160208091040260200160405190810160405280929190818152602001828054612db1906149f7565b8015612dfe5780601f10612dd357610100808354040283529160200191612dfe565b820191906000526020600020905b815481529060010190602001808311612de157829003601f168201915b5050505050905090565b60606000821415612e50576040518060400160405280600181526020017f30000000000000000000000000000000000000000000000000000000000000008152509050612fb0565b600082905060005b60008214612e82578080612e6b90614a5a565b915050600a82612e7b9190614882565b9150612e58565b60008167ffffffffffffffff811115612ec4577f4e487b7100000000000000000000000000000000000000000000000000000000600052604160045260246000fd5b6040519080825280601f01601f191660200182016040528015612ef65781602001600182028036833780820191505090505b5090505b60008514612fa957600182612f0f919061490d565b9150600a85612f1e9190614aa3565b6030612f2a919061482c565b60f81b818381518110612f66577f4e487b7100000000000000000000000000000000000000000000000000000000600052603260045260246000fd5b60200101907effffffffffffffffffffffffffffffffffffffffffffffffffffffffffffff1916908160001a905350600a85612fa29190614882565b9450612efa565b8093505050505b919050565b60007f01ffc9a7000000000000000000000000000000000000000000000000000000007bffffffffffffffffffffffffffffffffffffffffffffffffffffffff1916827bffffffffffffffffffffffffffffffffffffffffffffffffffffffff1916149050919050565b613029838361332a565b6130366000848484613193565b613075576040517f08c379a000000000000000000000000000000000000000000000000000000000815260040161306c90614402565b60405180910390fd5b505050565b613085838383613504565b600073ffffffffffffffffffffffffffffffffffffffff168373ffffffffffffffffffffffffffffffffffffffff1614156130c8576130c381613509565b613107565b8173ffffffffffffffffffffffffffffffffffffffff168373ffffffffffffffffffffffffffffffffffffffff1614613106576131058382613552565b5b5b600073ffffffffffffffffffffffffffffffffffffffff168273ffffffffffffffffffffffffffffffffffffffff16141561314a57613145816136bf565b613189565b8273ffffffffffffffffffffffffffffffffffffffff168273ffffffffffffffffffffffffffffffffffffffff1614613188576131878282613802565b5b5b505050565b505050565b60006131b48473ffffffffffffffffffffffffffffffffffffffff16613881565b1561331d578373ffffffffffffffffffffffffffffffffffffffff1663150b7a026131dd6126c3565b8786866040518563ffffffff1660e01b81526004016131ff9493929190614337565b602060405180830381600087803b15801561321957600080fd5b505af192505050801561324a57506040513d601f19601f820116820180604052508101906132479190613d27565b60015b6132cd573d806000811461327a576040519150601f19603f3d011682016040523d82523d6000602084013e61327f565b606091505b506000815114156132c5576040517f08c379a00000000000000000000000000000000000000000000000000000000081526004016132bc90614402565b60405180910390fd5b805181602001fd5b63150b7a0260e01b7bffffffffffffffffffffffffffffffffffffffffffffffffffffffff1916817bffffffffffffffffffffffffffffffffffffffffffffffffffffffff191614915050613322565b600190505b949350505050565b600073ffffffffffffffffffffffffffffffffffffffff168273ffffffffffffffffffffffffffffffffffffffff16141561339a576040517f08c379a0000000000000000000000000000000000000000000000000000000008152600401613391906145c2565b60405180910390fd5b6133a381612657565b156133e3576040517f08c379a00000000000000000000000000000000000000000000000000000000081526004016133da90614482565b60405180910390fd5b6133ef6000838361307a565b6001600360008473ffffffffffffffffffffffffffffffffffffffff1673ffffffffffffffffffffffffffffffffffffffff168152602001908152602001600020600082825461343f919061482c565b92505081905550816002600083815260200190815260200160002060006101000a81548173ffffffffffffffffffffffffffffffffffffffff021916908373ffffffffffffffffffffffffffffffffffffffff160217905550808273ffffffffffffffffffffffffffffffffffffffff16600073ffffffffffffffffffffffffffffffffffffffff167fddf252ad1be2c89b69c2b068fc378daa952ba7f163c4a11628f55a4df523b3ef60405160405180910390a46135006000838361318e565b5050565b505050565b6008805490506009600083815260200190815260200160002081905550600881908060018154018082558091505060019003906000526020600020016000909190919091505550565b6000600161355f846118c0565b613569919061490d565b905060006007600084815260200190815260200160002054905081811461364e576000600660008673ffffffffffffffffffffffffffffffffffffffff1673ffffffffffffffffffffffffffffffffffffffff168152602001908152602001600020600084815260200190815260200160002054905080600660008773ffffffffffffffffffffffffffffffffffffffff1673ffffffffffffffffffffffffffffffffffffffff168152602001908152602001600020600084815260200190815260200160002081905550816007600083815260200190815260200160002081905550505b6007600084815260200190815260200160002060009055600660008573ffffffffffffffffffffffffffffffffffffffff1673ffffffffffffffffffffffffffffffffffffffff16815260200190815260200160002060008381526020019081526020016000206000905550505050565b600060016008805490506136d3919061490d565b9050600060096000848152602001908152602001600020549050600060088381548110613729577f4e487b7100000000000000000000000000000000000000000000000000000000600052603260045260246000fd5b906000526020600020015490508060088381548110613771577f4e487b7100000000000000000000000000000000000000000000000000000000600052603260045260246000fd5b9060005260206000200181905550816009600083815260200190815260200160002081905550600960008581526020019081526020016000206000905560088054806137e6577f4e487b7100000000000000000000000000000000000000000000000000000000600052603160045260246000fd5b6001900381819060005260206000200160009055905550505050565b600061380d836118c0565b905081600660008573ffffffffffffffffffffffffffffffffffffffff1673ffffffffffffffffffffffffffffffffffffffff168152602001908152602001600020600083815260200190815260200160002081905550806007600084815260200190815260200160002081905550505050565b6000808273ffffffffffffffffffffffffffffffffffffffff163b119050919050565b8280546138b0906149f7565b90600052602060002090601f0160209004810192826138d25760008555613919565b82601f106138eb57805160ff1916838001178555613919565b82800160010185558215613919579182015b828111156139185782518255916020019190600101906138fd565b5b509050613926919061392a565b5090565b5b8082111561394357600081600090555060010161392b565b5090565b600061395a61395584614702565b6146dd565b9050808382526020820190508285602086028201111561397957600080fd5b60005b858110156139a9578161398f8882613a2f565b84526020840193506020830192505060018101905061397c565b5050509392505050565b60006139c66139c18461472e565b6146dd565b9050828152602081018484840111156139de57600080fd5b6139e98482856149b5565b509392505050565b6000613a046139ff8461475f565b6146dd565b905082815260208101848484011115613a1c57600080fd5b613a278482856149b5565b509392505050565b600081359050613a3e816151b3565b92915050565b600082601f830112613a5557600080fd5b8135613a65848260208601613947565b91505092915050565b600081359050613a7d816151ca565b92915050565b600081359050613a92816151e1565b92915050565b600081519050613aa7816151e1565b92915050565b600082601f830112613abe57600080fd5b8135613ace8482602086016139b3565b91505092915050565b600082601f830112613ae857600080fd5b8135613af88482602086016139f1565b91505092915050565b600081359050613b10816151f8565b92915050565b600060208284031215613b2857600080fd5b6000613b3684828501613a2f565b91505092915050565b60008060408385031215613b5257600080fd5b6000613b6085828601613a2f565b9250506020613b7185828601613a2f565b9150509250929050565b600080600060608486031215613b9057600080fd5b6000613b9e86828701613a2f565b9350506020613baf86828701613a2f565b9250506040613bc086828701613b01565b9150509250925092565b60008060008060808587031215613be057600080fd5b6000613bee87828801613a2f565b9450506020613bff87828801613a2f565b9350506040613c1087828801613b01565b925050606085013567ffffffffffffffff811115613c2d57600080fd5b613c3987828801613aad565b91505092959194509250565b60008060408385031215613c5857600080fd5b6000613c6685828601613a2f565b9250506020613c7785828601613a6e565b9150509250929050565b60008060408385031215613c9457600080fd5b6000613ca285828601613a2f565b9250506020613cb385828601613b01565b9150509250929050565b600060208284031215613ccf57600080fd5b600082013567ffffffffffffffff811115613ce957600080fd5b613cf584828501613a44565b91505092915050565b600060208284031215613d1057600080fd5b6000613d1e84828501613a83565b91505092915050565b600060208284031215613d3957600080fd5b6000613d4784828501613a98565b91505092915050565b600060208284031215613d6257600080fd5b600082013567ffffffffffffffff811115613d7c57600080fd5b613d8884828501613ad7565b91505092915050565b600060208284031215613da357600080fd5b6000613db184828501613b01565b91505092915050565b6000613dc683836142b8565b60208301905092915050565b613ddb81614941565b82525050565b6000613dec826147b5565b613df681856147e3565b9350613e0183614790565b8060005b83811015613e32578151613e198882613dba565b9750613e24836147d6565b925050600181019050613e05565b5085935050505092915050565b613e4881614953565b82525050565b6000613e59826147c0565b613e6381856147f4565b9350613e738185602086016149c4565b613e7c81614b90565b840191505092915050565b6000613e92826147cb565b613e9c8185614810565b9350613eac8185602086016149c4565b613eb581614b90565b840191505092915050565b6000613ecb826147cb565b613ed58185614821565b9350613ee58185602086016149c4565b80840191505092915050565b60008154613efe816149f7565b613f088186614821565b94506001821660008114613f235760018114613f3457613f67565b60ff19831686528186019350613f67565b613f3d856147a0565b60005b83811015613f5f57815481890152600182019150602081019050613f40565b838801955050505b50505092915050565b6000613f7d602b83614810565b9150613f8882614ba1565b604082019050919050565b6000613fa0603283614810565b9150613fab82614bf0565b604082019050919050565b6000613fc3602683614810565b9150613fce82614c3f565b604082019050919050565b6000613fe6601583614810565b9150613ff182614c8e565b602082019050919050565b6000614009602583614810565b915061401482614cb7565b604082019050919050565b600061402c601c83614810565b915061403782614d06565b602082019050919050565b600061404f602183614810565b915061405a82614d2f565b604082019050919050565b6000614072602483614810565b915061407d82614d7e565b604082019050919050565b6000614095601983614810565b91506140a082614dcd565b602082019050919050565b60006140b8602283614810565b91506140c382614df6565b604082019050919050565b60006140db602c83614810565b91506140e682614e45565b604082019050919050565b60006140fe603883614810565b915061410982614e94565b604082019050919050565b6000614121602a83614810565b915061412c82614ee3565b604082019050919050565b6000614144602983614810565b915061414f82614f32565b604082019050919050565b6000614167602083614810565b915061417282614f81565b602082019050919050565b600061418a602083614810565b915061419582614faa565b602082019050919050565b60006141ad602c83614810565b91506141b882614fd3565b604082019050919050565b60006141d0602083614810565b91506141db82615022565b602082019050919050565b60006141f3602f83614810565b91506141fe8261504b565b604082019050919050565b6000614216602183614810565b91506142218261509a565b604082019050919050565b6000614239600083614805565b9150614244826150e9565b600082019050919050565b600061425c603183614810565b9150614267826150ec565b604082019050919050565b600061427f602c83614810565b915061428a8261513b565b604082019050919050565b60006142a2601583614810565b91506142ad8261518a565b602082019050919050565b6142c1816149ab565b82525050565b6142d0816149ab565b82525050565b60006142e28286613ec0565b91506142ee8285613ec0565b91506142fa8284613ef1565b9150819050949350505050565b60006143128261422c565b9150819050919050565b60006020820190506143316000830184613dd2565b92915050565b600060808201905061434c6000830187613dd2565b6143596020830186613dd2565b61436660408301856142c7565b81810360608301526143788184613e4e565b905095945050505050565b6000602082019050818103600083015261439d8184613de1565b905092915050565b60006020820190506143ba6000830184613e3f565b92915050565b600060208201905081810360008301526143da8184613e87565b905092915050565b600060208201905081810360008301526143fb81613f70565b9050919050565b6000602082019050818103600083015261441b81613f93565b9050919050565b6000602082019050818103600083015261443b81613fb6565b9050919050565b6000602082019050818103600083015261445b81613fd9565b9050919050565b6000602082019050818103600083015261447b81613ffc565b9050919050565b6000602082019050818103600083015261449b8161401f565b9050919050565b600060208201905081810360008301526144bb81614042565b9050919050565b600060208201905081810360008301526144db81614065565b9050919050565b600060208201905081810360008301526144fb81614088565b9050919050565b6000602082019050818103600083015261451b816140ab565b9050919050565b6000602082019050818103600083015261453b816140ce565b9050919050565b6000602082019050818103600083015261455b816140f1565b9050919050565b6000602082019050818103600083015261457b81614114565b9050919050565b6000602082019050818103600083015261459b81614137565b9050919050565b600060208201905081810360008301526145bb8161415a565b9050919050565b600060208201905081810360008301526145db8161417d565b9050919050565b600060208201905081810360008301526145fb816141a0565b9050919050565b6000602082019050818103600083015261461b816141c3565b9050919050565b6000602082019050818103600083015261463b816141e6565b9050919050565b6000602082019050818103600083015261465b81614209565b9050919050565b6000602082019050818103600083015261467b8161424f565b9050919050565b6000602082019050818103600083015261469b81614272565b9050919050565b600060208201905081810360008301526146bb81614295565b9050919050565b60006020820190506146d760008301846142c7565b92915050565b60006146e76146f8565b90506146f38282614a29565b919050565b6000604051905090565b600067ffffffffffffffff82111561471d5761471c614b61565b5b602082029050602081019050919050565b600067ffffffffffffffff82111561474957614748614b61565b5b61475282614b90565b9050602081019050919050565b600067ffffffffffffffff82111561477a57614779614b61565b5b61478382614b90565b9050602081019050919050565b6000819050602082019050919050565b60008190508160005260206000209050919050565b600081519050919050565b600081519050919050565b600081519050919050565b6000602082019050919050565b600082825260208201905092915050565b600082825260208201905092915050565b600081905092915050565b600082825260208201905092915050565b600081905092915050565b6000614837826149ab565b9150614842836149ab565b9250827fffffffffffffffffffffffffffffffffffffffffffffffffffffffffffffffff0382111561487757614876614ad4565b5b828201905092915050565b600061488d826149ab565b9150614898836149ab565b9250826148a8576148a7614b03565b5b828204905092915050565b60006148be826149ab565b91506148c9836149ab565b9250817fffffffffffffffffffffffffffffffffffffffffffffffffffffffffffffffff048311821515161561490257614901614ad4565b5b828202905092915050565b6000614918826149ab565b9150614923836149ab565b92508282101561493657614935614ad4565b5b828203905092915050565b600061494c8261498b565b9050919050565b60008115159050919050565b60007fffffffff0000000000000000000000000000000000000000000000000000000082169050919050565b600073ffffffffffffffffffffffffffffffffffffffff82169050919050565b6000819050919050565b82818337600083830152505050565b60005b838110156149e25780820151818401526020810190506149c7565b838111156149f1576000848401525b50505050565b60006002820490506001821680614a0f57607f821691505b60208210811415614a2357614a22614b32565b5b50919050565b614a3282614b90565b810181811067ffffffffffffffff82111715614a5157614a50614b61565b5b80604052505050565b6000614a65826149ab565b91507fffffffffffffffffffffffffffffffffffffffffffffffffffffffffffffffff821415614a9857614a97614ad4565b5b600182019050919050565b6000614aae826149ab565b9150614ab9836149ab565b925082614ac957614ac8614b03565b5b828206905092915050565b7f4e487b7100000000000000000000000000000000000000000000000000000000600052601160045260246000fd5b7f4e487b7100000000000000000000000000000000000000000000000000000000600052601260045260246000fd5b7f4e487b7100000000000000000000000000000000000000000000000000000000600052602260045260246000fd5b7f4e487b7100000000000000000000000000000000000000000000000000000000600052604160045260246000fd5b6000601f19601f8301169050919050565b7f455243373231456e756d657261626c653a206f776e657220696e646578206f7560008201527f74206f6620626f756e6473000000000000000000000000000000000000000000602082015250565b7f4552433732313a207472616e7366657220746f206e6f6e20455243373231526560008201527f63656976657220696d706c656d656e7465720000000000000000000000000000602082015250565b7f4f776e61626c653a206e6577206f776e657220697320746865207a65726f206160008201527f6464726573730000000000000000000000000000000000000000000000000000602082015250565b7f42616c616e63652065786365656473206c696d69740000000000000000000000600082015250565b7f4552433732313a207472616e736665722066726f6d20696e636f72726563742060008201527f6f776e6572000000000000000000000000000000000000000000000000000000602082015250565b7f4552433732313a20746f6b656e20616c7265616479206d696e74656400000000600082015250565b7f53616c65206d7573742062652061637469766520746f206d696e7420546f6b6560008201527f6e00000000000000000000000000000000000000000000000000000000000000602082015250565b7f4552433732313a207472616e7366657220746f20746865207a65726f2061646460008201527f7265737300000000000000000000000000000000000000000000000000000000602082015250565b7f4552433732313a20617070726f766520746f2063616c6c657200000000000000600082015250565b7f43616e206f6e6c79206d696e742074776f20746f6b656e73206174206120746960008201527f6d65000000000000000000000000000000000000000000000000000000000000602082015250565b7f4552433732313a206f70657261746f7220717565727920666f72206e6f6e657860008201527f697374656e7420746f6b656e0000000000000000000000000000000000000000602082015250565b7f4552433732313a20617070726f76652063616c6c6572206973206e6f74206f7760008201527f6e6572206e6f7220617070726f76656420666f7220616c6c0000000000000000602082015250565b7f4552433732313a2062616c616e636520717565727920666f7220746865207a6560008201527f726f206164647265737300000000000000000000000000000000000000000000602082015250565b7f4552433732313a206f776e657220717565727920666f72206e6f6e657869737460008201527f656e7420746f6b656e0000000000000000000000000000000000000000000000602082015250565b7f507572636861736520776f756c6420657863656564206d617820737570706c79600082015250565b7f4552433732313a206d696e7420746f20746865207a65726f2061646472657373600082015250565b7f4552433732313a20617070726f76656420717565727920666f72206e6f6e657860008201527f697374656e7420746f6b656e0000000000000000000000000000000000000000602082015250565b7f4f776e61626c653a2063616c6c6572206973206e6f7420746865206f776e6572600082015250565b7f4552433732314d657461646174613a2055524920717565727920666f72206e6f60008201527f6e6578697374656e7420746f6b656e0000000000000000000000000000000000602082015250565b7f4552433732313a20617070726f76616c20746f2063757272656e74206f776e6560008201527f7200000000000000000000000000000000000000000000000000000000000000602082015250565b50565b7f4552433732313a207472616e736665722063616c6c6572206973206e6f74206f60008201527f776e6572206e6f7220617070726f766564000000000000000000000000000000602082015250565b7f455243373231456e756d657261626c653a20676c6f62616c20696e646578206f60008201527f7574206f6620626f756e64730000000000000000000000000000000000000000602082015250565b7f4e6f7420656e6f7567682065746865722073656e740000000000000000000000600082015250565b6151bc81614941565b81146151c757600080fd5b50565b6151d381614953565b81146151de57600080fd5b50565b6151ea8161495f565b81146151f557600080fd5b50565b615201816149ab565b811461520c57600080fd5b5056fea26469706673582212206578990f7e3e4e39dc8a85f23a9fdd384b1f457a7b688bce6f58c6dd57034efe64736f6c63430008040033",
          "opcodes": "PUSH1 0x80 PUSH1 0x40 MSTORE PUSH1 0x0 PUSH1 0xA PUSH1 0x14 PUSH2 0x100 EXP DUP2 SLOAD DUP2 PUSH1 0xFF MUL NOT AND SWAP1 DUP4 ISZERO ISZERO MUL OR SWAP1 SSTORE POP PUSH1 0x0 PUSH1 0xA PUSH1 0x15 PUSH2 0x100 EXP DUP2 SLOAD DUP2 PUSH1 0xFF MUL NOT AND SWAP1 DUP4 ISZERO ISZERO MUL OR SWAP1 SSTORE POP PUSH1 0x40 MLOAD DUP1 PUSH1 0x40 ADD PUSH1 0x40 MSTORE DUP1 PUSH1 0x5 DUP2 MSTORE PUSH1 0x20 ADD PUSH32 0x2E6A736F6E000000000000000000000000000000000000000000000000000000 DUP2 MSTORE POP PUSH1 0xD SWAP1 DUP1 MLOAD SWAP1 PUSH1 0x20 ADD SWAP1 PUSH3 0x87 SWAP3 SWAP2 SWAP1 PUSH3 0x242 JUMP JUMPDEST POP PUSH7 0x2386F26FC10000 PUSH1 0xE SSTORE PUSH7 0x11C37937E08000 PUSH1 0xF SSTORE PUSH2 0x2710 PUSH1 0x10 SSTORE PUSH1 0x2 PUSH1 0x11 SSTORE PUSH1 0xA PUSH1 0x12 SSTORE PUSH1 0x40 MLOAD DUP1 PUSH1 0x40 ADD PUSH1 0x40 MSTORE DUP1 PUSH1 0x8 DUP2 MSTORE PUSH1 0x20 ADD PUSH32 0x456D6F6A694E6674000000000000000000000000000000000000000000000000 DUP2 MSTORE POP PUSH1 0x40 MLOAD DUP1 PUSH1 0x40 ADD PUSH1 0x40 MSTORE DUP1 PUSH1 0x3 DUP2 MSTORE PUSH1 0x20 ADD PUSH32 0x454D4A0000000000000000000000000000000000000000000000000000000000 DUP2 MSTORE POP DUP2 PUSH1 0x0 SWAP1 DUP1 MLOAD SWAP1 PUSH1 0x20 ADD SWAP1 PUSH3 0x132 SWAP3 SWAP2 SWAP1 PUSH3 0x242 JUMP JUMPDEST POP DUP1 PUSH1 0x1 SWAP1 DUP1 MLOAD SWAP1 PUSH1 0x20 ADD SWAP1 PUSH3 0x14B SWAP3 SWAP2 SWAP1 PUSH3 0x242 JUMP JUMPDEST POP POP POP PUSH3 0x16E PUSH3 0x162 PUSH3 0x174 PUSH1 0x20 SHL PUSH1 0x20 SHR JUMP JUMPDEST PUSH3 0x17C PUSH1 0x20 SHL PUSH1 0x20 SHR JUMP JUMPDEST PUSH3 0x357 JUMP JUMPDEST PUSH1 0x0 CALLER SWAP1 POP SWAP1 JUMP JUMPDEST PUSH1 0x0 PUSH1 0xA PUSH1 0x0 SWAP1 SLOAD SWAP1 PUSH2 0x100 EXP SWAP1 DIV PUSH20 0xFFFFFFFFFFFFFFFFFFFFFFFFFFFFFFFFFFFFFFFF AND SWAP1 POP DUP2 PUSH1 0xA PUSH1 0x0 PUSH2 0x100 EXP DUP2 SLOAD DUP2 PUSH20 0xFFFFFFFFFFFFFFFFFFFFFFFFFFFFFFFFFFFFFFFF MUL NOT AND SWAP1 DUP4 PUSH20 0xFFFFFFFFFFFFFFFFFFFFFFFFFFFFFFFFFFFFFFFF AND MUL OR SWAP1 SSTORE POP DUP2 PUSH20 0xFFFFFFFFFFFFFFFFFFFFFFFFFFFFFFFFFFFFFFFF AND DUP2 PUSH20 0xFFFFFFFFFFFFFFFFFFFFFFFFFFFFFFFFFFFFFFFF AND PUSH32 0x8BE0079C531659141344CD1FD0A4F28419497F9722A3DAAFE3B4186F6B6457E0 PUSH1 0x40 MLOAD PUSH1 0x40 MLOAD DUP1 SWAP2 SUB SWAP1 LOG3 POP POP JUMP JUMPDEST DUP3 DUP1 SLOAD PUSH3 0x250 SWAP1 PUSH3 0x2F2 JUMP JUMPDEST SWAP1 PUSH1 0x0 MSTORE PUSH1 0x20 PUSH1 0x0 KECCAK256 SWAP1 PUSH1 0x1F ADD PUSH1 0x20 SWAP1 DIV DUP2 ADD SWAP3 DUP3 PUSH3 0x274 JUMPI PUSH1 0x0 DUP6 SSTORE PUSH3 0x2C0 JUMP JUMPDEST DUP3 PUSH1 0x1F LT PUSH3 0x28F JUMPI DUP1 MLOAD PUSH1 0xFF NOT AND DUP4 DUP1 ADD OR DUP6 SSTORE PUSH3 0x2C0 JUMP JUMPDEST DUP3 DUP1 ADD PUSH1 0x1 ADD DUP6 SSTORE DUP3 ISZERO PUSH3 0x2C0 JUMPI SWAP2 DUP3 ADD JUMPDEST DUP3 DUP2 GT ISZERO PUSH3 0x2BF JUMPI DUP3 MLOAD DUP3 SSTORE SWAP2 PUSH1 0x20 ADD SWAP2 SWAP1 PUSH1 0x1 ADD SWAP1 PUSH3 0x2A2 JUMP JUMPDEST JUMPDEST POP SWAP1 POP PUSH3 0x2CF SWAP2 SWAP1 PUSH3 0x2D3 JUMP JUMPDEST POP SWAP1 JUMP JUMPDEST JUMPDEST DUP1 DUP3 GT ISZERO PUSH3 0x2EE JUMPI PUSH1 0x0 DUP2 PUSH1 0x0 SWAP1 SSTORE POP PUSH1 0x1 ADD PUSH3 0x2D4 JUMP JUMPDEST POP SWAP1 JUMP JUMPDEST PUSH1 0x0 PUSH1 0x2 DUP3 DIV SWAP1 POP PUSH1 0x1 DUP3 AND DUP1 PUSH3 0x30B JUMPI PUSH1 0x7F DUP3 AND SWAP2 POP JUMPDEST PUSH1 0x20 DUP3 LT DUP2 EQ ISZERO PUSH3 0x322 JUMPI PUSH3 0x321 PUSH3 0x328 JUMP JUMPDEST JUMPDEST POP SWAP2 SWAP1 POP JUMP JUMPDEST PUSH32 0x4E487B7100000000000000000000000000000000000000000000000000000000 PUSH1 0x0 MSTORE PUSH1 0x22 PUSH1 0x4 MSTORE PUSH1 0x24 PUSH1 0x0 REVERT JUMPDEST PUSH2 0x5245 DUP1 PUSH3 0x367 PUSH1 0x0 CODECOPY PUSH1 0x0 RETURN INVALID PUSH1 0x80 PUSH1 0x40 MSTORE PUSH1 0x4 CALLDATASIZE LT PUSH2 0x287 JUMPI PUSH1 0x0 CALLDATALOAD PUSH1 0xE0 SHR DUP1 PUSH4 0x70A08231 GT PUSH2 0x15A JUMPI DUP1 PUSH4 0xC3C1A138 GT PUSH2 0xC1 JUMPI DUP1 PUSH4 0xE985E9C5 GT PUSH2 0x7A JUMPI DUP1 PUSH4 0xE985E9C5 EQ PUSH2 0x99D JUMPI DUP1 PUSH4 0xEB8D2444 EQ PUSH2 0x9DA JUMPI DUP1 PUSH4 0xED931E17 EQ PUSH2 0xA05 JUMPI DUP1 PUSH4 0xF2C4CE1E EQ PUSH2 0xA2E JUMPI DUP1 PUSH4 0xF2FDE38B EQ PUSH2 0xA57 JUMPI DUP1 PUSH4 0xF90296D8 EQ PUSH2 0xA80 JUMPI PUSH2 0x287 JUMP JUMPDEST DUP1 PUSH4 0xC3C1A138 EQ PUSH2 0x87B JUMPI DUP1 PUSH4 0xC6682862 EQ PUSH2 0x8A4 JUMPI DUP1 PUSH4 0xC87B56DD EQ PUSH2 0x8CF JUMPI DUP1 PUSH4 0xD5ABEB01 EQ PUSH2 0x90C JUMPI DUP1 PUSH4 0xD936547E EQ PUSH2 0x937 JUMPI DUP1 PUSH4 0xDA3EF23F EQ PUSH2 0x974 JUMPI PUSH2 0x287 JUMP JUMPDEST DUP1 PUSH4 0x95D89B41 GT PUSH2 0x113 JUMPI DUP1 PUSH4 0x95D89B41 EQ PUSH2 0x781 JUMPI DUP1 PUSH4 0x9B6FBF8A EQ PUSH2 0x7AC JUMPI DUP1 PUSH4 0x9D51D9B7 EQ PUSH2 0x7D5 JUMPI DUP1 PUSH4 0xA22CB465 EQ PUSH2 0x7FE JUMPI DUP1 PUSH4 0xA945BF80 EQ PUSH2 0x827 JUMPI DUP1 PUSH4 0xB88D4FDE EQ PUSH2 0x852 JUMPI PUSH2 0x287 JUMP JUMPDEST DUP1 PUSH4 0x70A08231 EQ PUSH2 0x685 JUMPI DUP1 PUSH4 0x715018A6 EQ PUSH2 0x6C2 JUMPI DUP1 PUSH4 0x73AD468A EQ PUSH2 0x6D9 JUMPI DUP1 PUSH4 0x7F00C7A6 EQ PUSH2 0x704 JUMPI DUP1 PUSH4 0x8AE28A40 EQ PUSH2 0x72D JUMPI DUP1 PUSH4 0x8DA5CB5B EQ PUSH2 0x756 JUMPI PUSH2 0x287 JUMP JUMPDEST DUP1 PUSH4 0x2F745C59 GT PUSH2 0x1FE JUMPI DUP1 PUSH4 0x438B6300 GT PUSH2 0x1B7 JUMPI DUP1 PUSH4 0x438B6300 EQ PUSH2 0x54F JUMPI DUP1 PUSH4 0x4F6CCCE7 EQ PUSH2 0x58C JUMPI DUP1 PUSH4 0x55F804B3 EQ PUSH2 0x5C9 JUMPI DUP1 PUSH4 0x6352211E EQ PUSH2 0x5F2 JUMPI DUP1 PUSH4 0x6C0360EB EQ PUSH2 0x62F JUMPI DUP1 PUSH4 0x6EBEAC85 EQ PUSH2 0x65A JUMPI PUSH2 0x287 JUMP JUMPDEST DUP1 PUSH4 0x2F745C59 EQ PUSH2 0x462 JUMPI DUP1 PUSH4 0x30B2264E EQ PUSH2 0x49F JUMPI DUP1 PUSH4 0x30CC7AE0 EQ PUSH2 0x4DC JUMPI DUP1 PUSH4 0x34918DFD EQ PUSH2 0x505 JUMPI DUP1 PUSH4 0x3CCFD60B EQ PUSH2 0x51C JUMPI DUP1 PUSH4 0x42842E0E EQ PUSH2 0x526 JUMPI PUSH2 0x287 JUMP JUMPDEST DUP1 PUSH4 0x95EA7B3 GT PUSH2 0x250 JUMPI DUP1 PUSH4 0x95EA7B3 EQ PUSH2 0x387 JUMPI DUP1 PUSH4 0xD730ACC EQ PUSH2 0x3B0 JUMPI DUP1 PUSH4 0x18160DDD EQ PUSH2 0x3CC JUMPI DUP1 PUSH4 0x239C70AE EQ PUSH2 0x3F7 JUMPI DUP1 PUSH4 0x23B872DD EQ PUSH2 0x422 JUMPI DUP1 PUSH4 0x2714CE92 EQ PUSH2 0x44B JUMPI PUSH2 0x287 JUMP JUMPDEST DUP1 PUSH3 0xE7FA8 EQ PUSH2 0x28C JUMPI DUP1 PUSH4 0x1FFC9A7 EQ PUSH2 0x2B7 JUMPI DUP1 PUSH4 0x6FDDE03 EQ PUSH2 0x2F4 JUMPI DUP1 PUSH4 0x81812FC EQ PUSH2 0x31F JUMPI DUP1 PUSH4 0x81C8C44 EQ PUSH2 0x35C JUMPI JUMPDEST PUSH1 0x0 DUP1 REVERT JUMPDEST CALLVALUE DUP1 ISZERO PUSH2 0x298 JUMPI PUSH1 0x0 DUP1 REVERT JUMPDEST POP PUSH2 0x2A1 PUSH2 0xAA9 JUMP JUMPDEST PUSH1 0x40 MLOAD PUSH2 0x2AE SWAP2 SWAP1 PUSH2 0x46C2 JUMP JUMPDEST PUSH1 0x40 MLOAD DUP1 SWAP2 SUB SWAP1 RETURN JUMPDEST CALLVALUE DUP1 ISZERO PUSH2 0x2C3 JUMPI PUSH1 0x0 DUP1 REVERT JUMPDEST POP PUSH2 0x2DE PUSH1 0x4 DUP1 CALLDATASIZE SUB DUP2 ADD SWAP1 PUSH2 0x2D9 SWAP2 SWAP1 PUSH2 0x3CFE JUMP JUMPDEST PUSH2 0xAAF JUMP JUMPDEST PUSH1 0x40 MLOAD PUSH2 0x2EB SWAP2 SWAP1 PUSH2 0x43A5 JUMP JUMPDEST PUSH1 0x40 MLOAD DUP1 SWAP2 SUB SWAP1 RETURN JUMPDEST CALLVALUE DUP1 ISZERO PUSH2 0x300 JUMPI PUSH1 0x0 DUP1 REVERT JUMPDEST POP PUSH2 0x309 PUSH2 0xB29 JUMP JUMPDEST PUSH1 0x40 MLOAD PUSH2 0x316 SWAP2 SWAP1 PUSH2 0x43C0 JUMP JUMPDEST PUSH1 0x40 MLOAD DUP1 SWAP2 SUB SWAP1 RETURN JUMPDEST CALLVALUE DUP1 ISZERO PUSH2 0x32B JUMPI PUSH1 0x0 DUP1 REVERT JUMPDEST POP PUSH2 0x346 PUSH1 0x4 DUP1 CALLDATASIZE SUB DUP2 ADD SWAP1 PUSH2 0x341 SWAP2 SWAP1 PUSH2 0x3D91 JUMP JUMPDEST PUSH2 0xBBB JUMP JUMPDEST PUSH1 0x40 MLOAD PUSH2 0x353 SWAP2 SWAP1 PUSH2 0x431C JUMP JUMPDEST PUSH1 0x40 MLOAD DUP1 SWAP2 SUB SWAP1 RETURN JUMPDEST CALLVALUE DUP1 ISZERO PUSH2 0x368 JUMPI PUSH1 0x0 DUP1 REVERT JUMPDEST POP PUSH2 0x371 PUSH2 0xC40 JUMP JUMPDEST PUSH1 0x40 MLOAD PUSH2 0x37E SWAP2 SWAP1 PUSH2 0x43C0 JUMP JUMPDEST PUSH1 0x40 MLOAD DUP1 SWAP2 SUB SWAP1 RETURN JUMPDEST CALLVALUE DUP1 ISZERO PUSH2 0x393 JUMPI PUSH1 0x0 DUP1 REVERT JUMPDEST POP PUSH2 0x3AE PUSH1 0x4 DUP1 CALLDATASIZE SUB DUP2 ADD SWAP1 PUSH2 0x3A9 SWAP2 SWAP1 PUSH2 0x3C81 JUMP JUMPDEST PUSH2 0xCCE JUMP JUMPDEST STOP JUMPDEST PUSH2 0x3CA PUSH1 0x4 DUP1 CALLDATASIZE SUB DUP2 ADD SWAP1 PUSH2 0x3C5 SWAP2 SWAP1 PUSH2 0x3D91 JUMP JUMPDEST PUSH2 0xDE6 JUMP JUMPDEST STOP JUMPDEST CALLVALUE DUP1 ISZERO PUSH2 0x3D8 JUMPI PUSH1 0x0 DUP1 REVERT JUMPDEST POP PUSH2 0x3E1 PUSH2 0x10D2 JUMP JUMPDEST PUSH1 0x40 MLOAD PUSH2 0x3EE SWAP2 SWAP1 PUSH2 0x46C2 JUMP JUMPDEST PUSH1 0x40 MLOAD DUP1 SWAP2 SUB SWAP1 RETURN JUMPDEST CALLVALUE DUP1 ISZERO PUSH2 0x403 JUMPI PUSH1 0x0 DUP1 REVERT JUMPDEST POP PUSH2 0x40C PUSH2 0x10DF JUMP JUMPDEST PUSH1 0x40 MLOAD PUSH2 0x419 SWAP2 SWAP1 PUSH2 0x46C2 JUMP JUMPDEST PUSH1 0x40 MLOAD DUP1 SWAP2 SUB SWAP1 RETURN JUMPDEST CALLVALUE DUP1 ISZERO PUSH2 0x42E JUMPI PUSH1 0x0 DUP1 REVERT JUMPDEST POP PUSH2 0x449 PUSH1 0x4 DUP1 CALLDATASIZE SUB DUP2 ADD SWAP1 PUSH2 0x444 SWAP2 SWAP1 PUSH2 0x3B7B JUMP JUMPDEST PUSH2 0x10E5 JUMP JUMPDEST STOP JUMPDEST CALLVALUE DUP1 ISZERO PUSH2 0x457 JUMPI PUSH1 0x0 DUP1 REVERT JUMPDEST POP PUSH2 0x460 PUSH2 0x1145 JUMP JUMPDEST STOP JUMPDEST CALLVALUE DUP1 ISZERO PUSH2 0x46E JUMPI PUSH1 0x0 DUP1 REVERT JUMPDEST POP PUSH2 0x489 PUSH1 0x4 DUP1 CALLDATASIZE SUB DUP2 ADD SWAP1 PUSH2 0x484 SWAP2 SWAP1 PUSH2 0x3C81 JUMP JUMPDEST PUSH2 0x11ED JUMP JUMPDEST PUSH1 0x40 MLOAD PUSH2 0x496 SWAP2 SWAP1 PUSH2 0x46C2 JUMP JUMPDEST PUSH1 0x40 MLOAD DUP1 SWAP2 SUB SWAP1 RETURN JUMPDEST CALLVALUE DUP1 ISZERO PUSH2 0x4AB JUMPI PUSH1 0x0 DUP1 REVERT JUMPDEST POP PUSH2 0x4C6 PUSH1 0x4 DUP1 CALLDATASIZE SUB DUP2 ADD SWAP1 PUSH2 0x4C1 SWAP2 SWAP1 PUSH2 0x3B16 JUMP JUMPDEST PUSH2 0x1292 JUMP JUMPDEST PUSH1 0x40 MLOAD PUSH2 0x4D3 SWAP2 SWAP1 PUSH2 0x43A5 JUMP JUMPDEST PUSH1 0x40 MLOAD DUP1 SWAP2 SUB SWAP1 RETURN JUMPDEST CALLVALUE DUP1 ISZERO PUSH2 0x4E8 JUMPI PUSH1 0x0 DUP1 REVERT JUMPDEST POP PUSH2 0x503 PUSH1 0x4 DUP1 CALLDATASIZE SUB DUP2 ADD SWAP1 PUSH2 0x4FE SWAP2 SWAP1 PUSH2 0x3B16 JUMP JUMPDEST PUSH2 0x12B2 JUMP JUMPDEST STOP JUMPDEST CALLVALUE DUP1 ISZERO PUSH2 0x511 JUMPI PUSH1 0x0 DUP1 REVERT JUMPDEST POP PUSH2 0x51A PUSH2 0x1389 JUMP JUMPDEST STOP JUMPDEST PUSH2 0x524 PUSH2 0x1431 JUMP JUMPDEST STOP JUMPDEST CALLVALUE DUP1 ISZERO PUSH2 0x532 JUMPI PUSH1 0x0 DUP1 REVERT JUMPDEST POP PUSH2 0x54D PUSH1 0x4 DUP1 CALLDATASIZE SUB DUP2 ADD SWAP1 PUSH2 0x548 SWAP2 SWAP1 PUSH2 0x3B7B JUMP JUMPDEST PUSH2 0x1526 JUMP JUMPDEST STOP JUMPDEST CALLVALUE DUP1 ISZERO PUSH2 0x55B JUMPI PUSH1 0x0 DUP1 REVERT JUMPDEST POP PUSH2 0x576 PUSH1 0x4 DUP1 CALLDATASIZE SUB DUP2 ADD SWAP1 PUSH2 0x571 SWAP2 SWAP1 PUSH2 0x3B16 JUMP JUMPDEST PUSH2 0x1546 JUMP JUMPDEST PUSH1 0x40 MLOAD PUSH2 0x583 SWAP2 SWAP1 PUSH2 0x4383 JUMP JUMPDEST PUSH1 0x40 MLOAD DUP1 SWAP2 SUB SWAP1 RETURN JUMPDEST CALLVALUE DUP1 ISZERO PUSH2 0x598 JUMPI PUSH1 0x0 DUP1 REVERT JUMPDEST POP PUSH2 0x5B3 PUSH1 0x4 DUP1 CALLDATASIZE SUB DUP2 ADD SWAP1 PUSH2 0x5AE SWAP2 SWAP1 PUSH2 0x3D91 JUMP JUMPDEST PUSH2 0x1640 JUMP JUMPDEST PUSH1 0x40 MLOAD PUSH2 0x5C0 SWAP2 SWAP1 PUSH2 0x46C2 JUMP JUMPDEST PUSH1 0x40 MLOAD DUP1 SWAP2 SUB SWAP1 RETURN JUMPDEST CALLVALUE DUP1 ISZERO PUSH2 0x5D5 JUMPI PUSH1 0x0 DUP1 REVERT JUMPDEST POP PUSH2 0x5F0 PUSH1 0x4 DUP1 CALLDATASIZE SUB DUP2 ADD SWAP1 PUSH2 0x5EB SWAP2 SWAP1 PUSH2 0x3D50 JUMP JUMPDEST PUSH2 0x16D7 JUMP JUMPDEST STOP JUMPDEST CALLVALUE DUP1 ISZERO PUSH2 0x5FE JUMPI PUSH1 0x0 DUP1 REVERT JUMPDEST POP PUSH2 0x619 PUSH1 0x4 DUP1 CALLDATASIZE SUB DUP2 ADD SWAP1 PUSH2 0x614 SWAP2 SWAP1 PUSH2 0x3D91 JUMP JUMPDEST PUSH2 0x176D JUMP JUMPDEST PUSH1 0x40 MLOAD PUSH2 0x626 SWAP2 SWAP1 PUSH2 0x431C JUMP JUMPDEST PUSH1 0x40 MLOAD DUP1 SWAP2 SUB SWAP1 RETURN JUMPDEST CALLVALUE DUP1 ISZERO PUSH2 0x63B JUMPI PUSH1 0x0 DUP1 REVERT JUMPDEST POP PUSH2 0x644 PUSH2 0x181F JUMP JUMPDEST PUSH1 0x40 MLOAD PUSH2 0x651 SWAP2 SWAP1 PUSH2 0x43C0 JUMP JUMPDEST PUSH1 0x40 MLOAD DUP1 SWAP2 SUB SWAP1 RETURN JUMPDEST CALLVALUE DUP1 ISZERO PUSH2 0x666 JUMPI PUSH1 0x0 DUP1 REVERT JUMPDEST POP PUSH2 0x66F PUSH2 0x18AD JUMP JUMPDEST PUSH1 0x40 MLOAD PUSH2 0x67C SWAP2 SWAP1 PUSH2 0x43A5 JUMP JUMPDEST PUSH1 0x40 MLOAD DUP1 SWAP2 SUB SWAP1 RETURN JUMPDEST CALLVALUE DUP1 ISZERO PUSH2 0x691 JUMPI PUSH1 0x0 DUP1 REVERT JUMPDEST POP PUSH2 0x6AC PUSH1 0x4 DUP1 CALLDATASIZE SUB DUP2 ADD SWAP1 PUSH2 0x6A7 SWAP2 SWAP1 PUSH2 0x3B16 JUMP JUMPDEST PUSH2 0x18C0 JUMP JUMPDEST PUSH1 0x40 MLOAD PUSH2 0x6B9 SWAP2 SWAP1 PUSH2 0x46C2 JUMP JUMPDEST PUSH1 0x40 MLOAD DUP1 SWAP2 SUB SWAP1 RETURN JUMPDEST CALLVALUE DUP1 ISZERO PUSH2 0x6CE JUMPI PUSH1 0x0 DUP1 REVERT JUMPDEST POP PUSH2 0x6D7 PUSH2 0x1978 JUMP JUMPDEST STOP JUMPDEST CALLVALUE DUP1 ISZERO PUSH2 0x6E5 JUMPI PUSH1 0x0 DUP1 REVERT JUMPDEST POP PUSH2 0x6EE PUSH2 0x1A00 JUMP JUMPDEST PUSH1 0x40 MLOAD PUSH2 0x6FB SWAP2 SWAP1 PUSH2 0x46C2 JUMP JUMPDEST PUSH1 0x40 MLOAD DUP1 SWAP2 SUB SWAP1 RETURN JUMPDEST CALLVALUE DUP1 ISZERO PUSH2 0x710 JUMPI PUSH1 0x0 DUP1 REVERT JUMPDEST POP PUSH2 0x72B PUSH1 0x4 DUP1 CALLDATASIZE SUB DUP2 ADD SWAP1 PUSH2 0x726 SWAP2 SWAP1 PUSH2 0x3D91 JUMP JUMPDEST PUSH2 0x1A06 JUMP JUMPDEST STOP JUMPDEST CALLVALUE DUP1 ISZERO PUSH2 0x739 JUMPI PUSH1 0x0 DUP1 REVERT JUMPDEST POP PUSH2 0x754 PUSH1 0x4 DUP1 CALLDATASIZE SUB DUP2 ADD SWAP1 PUSH2 0x74F SWAP2 SWAP1 PUSH2 0x3CBD JUMP JUMPDEST PUSH2 0x1A8C JUMP JUMPDEST STOP JUMPDEST CALLVALUE DUP1 ISZERO PUSH2 0x762 JUMPI PUSH1 0x0 DUP1 REVERT JUMPDEST POP PUSH2 0x76B PUSH2 0x1BC3 JUMP JUMPDEST PUSH1 0x40 MLOAD PUSH2 0x778 SWAP2 SWAP1 PUSH2 0x431C JUMP JUMPDEST PUSH1 0x40 MLOAD DUP1 SWAP2 SUB SWAP1 RETURN JUMPDEST CALLVALUE DUP1 ISZERO PUSH2 0x78D JUMPI PUSH1 0x0 DUP1 REVERT JUMPDEST POP PUSH2 0x796 PUSH2 0x1BED JUMP JUMPDEST PUSH1 0x40 MLOAD PUSH2 0x7A3 SWAP2 SWAP1 PUSH2 0x43C0 JUMP JUMPDEST PUSH1 0x40 MLOAD DUP1 SWAP2 SUB SWAP1 RETURN JUMPDEST CALLVALUE DUP1 ISZERO PUSH2 0x7B8 JUMPI PUSH1 0x0 DUP1 REVERT JUMPDEST POP PUSH2 0x7D3 PUSH1 0x4 DUP1 CALLDATASIZE SUB DUP2 ADD SWAP1 PUSH2 0x7CE SWAP2 SWAP1 PUSH2 0x3CBD JUMP JUMPDEST PUSH2 0x1C7F JUMP JUMPDEST STOP JUMPDEST CALLVALUE DUP1 ISZERO PUSH2 0x7E1 JUMPI PUSH1 0x0 DUP1 REVERT JUMPDEST POP PUSH2 0x7FC PUSH1 0x4 DUP1 CALLDATASIZE SUB DUP2 ADD SWAP1 PUSH2 0x7F7 SWAP2 SWAP1 PUSH2 0x3D91 JUMP JUMPDEST PUSH2 0x1DB6 JUMP JUMPDEST STOP JUMPDEST CALLVALUE DUP1 ISZERO PUSH2 0x80A JUMPI PUSH1 0x0 DUP1 REVERT JUMPDEST POP PUSH2 0x825 PUSH1 0x4 DUP1 CALLDATASIZE SUB DUP2 ADD SWAP1 PUSH2 0x820 SWAP2 SWAP1 PUSH2 0x3C45 JUMP JUMPDEST PUSH2 0x1E3C JUMP JUMPDEST STOP JUMPDEST CALLVALUE DUP1 ISZERO PUSH2 0x833 JUMPI PUSH1 0x0 DUP1 REVERT JUMPDEST POP PUSH2 0x83C PUSH2 0x1E52 JUMP JUMPDEST PUSH1 0x40 MLOAD PUSH2 0x849 SWAP2 SWAP1 PUSH2 0x46C2 JUMP JUMPDEST PUSH1 0x40 MLOAD DUP1 SWAP2 SUB SWAP1 RETURN JUMPDEST CALLVALUE DUP1 ISZERO PUSH2 0x85E JUMPI PUSH1 0x0 DUP1 REVERT JUMPDEST POP PUSH2 0x879 PUSH1 0x4 DUP1 CALLDATASIZE SUB DUP2 ADD SWAP1 PUSH2 0x874 SWAP2 SWAP1 PUSH2 0x3BCA JUMP JUMPDEST PUSH2 0x1E58 JUMP JUMPDEST STOP JUMPDEST CALLVALUE DUP1 ISZERO PUSH2 0x887 JUMPI PUSH1 0x0 DUP1 REVERT JUMPDEST POP PUSH2 0x8A2 PUSH1 0x4 DUP1 CALLDATASIZE SUB DUP2 ADD SWAP1 PUSH2 0x89D SWAP2 SWAP1 PUSH2 0x3D91 JUMP JUMPDEST PUSH2 0x1EBA JUMP JUMPDEST STOP JUMPDEST CALLVALUE DUP1 ISZERO PUSH2 0x8B0 JUMPI PUSH1 0x0 DUP1 REVERT JUMPDEST POP PUSH2 0x8B9 PUSH2 0x1F40 JUMP JUMPDEST PUSH1 0x40 MLOAD PUSH2 0x8C6 SWAP2 SWAP1 PUSH2 0x43C0 JUMP JUMPDEST PUSH1 0x40 MLOAD DUP1 SWAP2 SUB SWAP1 RETURN JUMPDEST CALLVALUE DUP1 ISZERO PUSH2 0x8DB JUMPI PUSH1 0x0 DUP1 REVERT JUMPDEST POP PUSH2 0x8F6 PUSH1 0x4 DUP1 CALLDATASIZE SUB DUP2 ADD SWAP1 PUSH2 0x8F1 SWAP2 SWAP1 PUSH2 0x3D91 JUMP JUMPDEST PUSH2 0x1FCE JUMP JUMPDEST PUSH1 0x40 MLOAD PUSH2 0x903 SWAP2 SWAP1 PUSH2 0x43C0 JUMP JUMPDEST PUSH1 0x40 MLOAD DUP1 SWAP2 SUB SWAP1 RETURN JUMPDEST CALLVALUE DUP1 ISZERO PUSH2 0x918 JUMPI PUSH1 0x0 DUP1 REVERT JUMPDEST POP PUSH2 0x921 PUSH2 0x2127 JUMP JUMPDEST PUSH1 0x40 MLOAD PUSH2 0x92E SWAP2 SWAP1 PUSH2 0x46C2 JUMP JUMPDEST PUSH1 0x40 MLOAD DUP1 SWAP2 SUB SWAP1 RETURN JUMPDEST CALLVALUE DUP1 ISZERO PUSH2 0x943 JUMPI PUSH1 0x0 DUP1 REVERT JUMPDEST POP PUSH2 0x95E PUSH1 0x4 DUP1 CALLDATASIZE SUB DUP2 ADD SWAP1 PUSH2 0x959 SWAP2 SWAP1 PUSH2 0x3B16 JUMP JUMPDEST PUSH2 0x212D JUMP JUMPDEST PUSH1 0x40 MLOAD PUSH2 0x96B SWAP2 SWAP1 PUSH2 0x43A5 JUMP JUMPDEST PUSH1 0x40 MLOAD DUP1 SWAP2 SUB SWAP1 RETURN JUMPDEST CALLVALUE DUP1 ISZERO PUSH2 0x980 JUMPI PUSH1 0x0 DUP1 REVERT JUMPDEST POP PUSH2 0x99B PUSH1 0x4 DUP1 CALLDATASIZE SUB DUP2 ADD SWAP1 PUSH2 0x996 SWAP2 SWAP1 PUSH2 0x3D50 JUMP JUMPDEST PUSH2 0x214D JUMP JUMPDEST STOP JUMPDEST CALLVALUE DUP1 ISZERO PUSH2 0x9A9 JUMPI PUSH1 0x0 DUP1 REVERT JUMPDEST POP PUSH2 0x9C4 PUSH1 0x4 DUP1 CALLDATASIZE SUB DUP2 ADD SWAP1 PUSH2 0x9BF SWAP2 SWAP1 PUSH2 0x3B3F JUMP JUMPDEST PUSH2 0x21E3 JUMP JUMPDEST PUSH1 0x40 MLOAD PUSH2 0x9D1 SWAP2 SWAP1 PUSH2 0x43A5 JUMP JUMPDEST PUSH1 0x40 MLOAD DUP1 SWAP2 SUB SWAP1 RETURN JUMPDEST CALLVALUE DUP1 ISZERO PUSH2 0x9E6 JUMPI PUSH1 0x0 DUP1 REVERT JUMPDEST POP PUSH2 0x9EF PUSH2 0x2277 JUMP JUMPDEST PUSH1 0x40 MLOAD PUSH2 0x9FC SWAP2 SWAP1 PUSH2 0x43A5 JUMP JUMPDEST PUSH1 0x40 MLOAD DUP1 SWAP2 SUB SWAP1 RETURN JUMPDEST CALLVALUE DUP1 ISZERO PUSH2 0xA11 JUMPI PUSH1 0x0 DUP1 REVERT JUMPDEST POP PUSH2 0xA2C PUSH1 0x4 DUP1 CALLDATASIZE SUB DUP2 ADD SWAP1 PUSH2 0xA27 SWAP2 SWAP1 PUSH2 0x3B16 JUMP JUMPDEST PUSH2 0x228A JUMP JUMPDEST STOP JUMPDEST CALLVALUE DUP1 ISZERO PUSH2 0xA3A JUMPI PUSH1 0x0 DUP1 REVERT JUMPDEST POP PUSH2 0xA55 PUSH1 0x4 DUP1 CALLDATASIZE SUB DUP2 ADD SWAP1 PUSH2 0xA50 SWAP2 SWAP1 PUSH2 0x3D50 JUMP JUMPDEST PUSH2 0x2361 JUMP JUMPDEST STOP JUMPDEST CALLVALUE DUP1 ISZERO PUSH2 0xA63 JUMPI PUSH1 0x0 DUP1 REVERT JUMPDEST POP PUSH2 0xA7E PUSH1 0x4 DUP1 CALLDATASIZE SUB DUP2 ADD SWAP1 PUSH2 0xA79 SWAP2 SWAP1 PUSH2 0x3B16 JUMP JUMPDEST PUSH2 0x23F7 JUMP JUMPDEST STOP JUMPDEST CALLVALUE DUP1 ISZERO PUSH2 0xA8C JUMPI PUSH1 0x0 DUP1 REVERT JUMPDEST POP PUSH2 0xAA7 PUSH1 0x4 DUP1 CALLDATASIZE SUB DUP2 ADD SWAP1 PUSH2 0xAA2 SWAP2 SWAP1 PUSH2 0x3D91 JUMP JUMPDEST PUSH2 0x24EF JUMP JUMPDEST STOP JUMPDEST PUSH1 0xF SLOAD DUP2 JUMP JUMPDEST PUSH1 0x0 PUSH32 0x780E9D6300000000000000000000000000000000000000000000000000000000 PUSH28 0xFFFFFFFFFFFFFFFFFFFFFFFFFFFFFFFFFFFFFFFFFFFFFFFFFFFFFFFF NOT AND DUP3 PUSH28 0xFFFFFFFFFFFFFFFFFFFFFFFFFFFFFFFFFFFFFFFFFFFFFFFFFFFFFFFF NOT AND EQ DUP1 PUSH2 0xB22 JUMPI POP PUSH2 0xB21 DUP3 PUSH2 0x2575 JUMP JUMPDEST JUMPDEST SWAP1 POP SWAP2 SWAP1 POP JUMP JUMPDEST PUSH1 0x60 PUSH1 0x0 DUP1 SLOAD PUSH2 0xB38 SWAP1 PUSH2 0x49F7 JUMP JUMPDEST DUP1 PUSH1 0x1F ADD PUSH1 0x20 DUP1 SWAP2 DIV MUL PUSH1 0x20 ADD PUSH1 0x40 MLOAD SWAP1 DUP2 ADD PUSH1 0x40 MSTORE DUP1 SWAP3 SWAP2 SWAP1 DUP2 DUP2 MSTORE PUSH1 0x20 ADD DUP3 DUP1 SLOAD PUSH2 0xB64 SWAP1 PUSH2 0x49F7 JUMP JUMPDEST DUP1 ISZERO PUSH2 0xBB1 JUMPI DUP1 PUSH1 0x1F LT PUSH2 0xB86 JUMPI PUSH2 0x100 DUP1 DUP4 SLOAD DIV MUL DUP4 MSTORE SWAP2 PUSH1 0x20 ADD SWAP2 PUSH2 0xBB1 JUMP JUMPDEST DUP3 ADD SWAP2 SWAP1 PUSH1 0x0 MSTORE PUSH1 0x20 PUSH1 0x0 KECCAK256 SWAP1 JUMPDEST DUP2 SLOAD DUP2 MSTORE SWAP1 PUSH1 0x1 ADD SWAP1 PUSH1 0x20 ADD DUP1 DUP4 GT PUSH2 0xB94 JUMPI DUP3 SWAP1 SUB PUSH1 0x1F AND DUP3 ADD SWAP2 JUMPDEST POP POP POP POP POP SWAP1 POP SWAP1 JUMP JUMPDEST PUSH1 0x0 PUSH2 0xBC6 DUP3 PUSH2 0x2657 JUMP JUMPDEST PUSH2 0xC05 JUMPI PUSH1 0x40 MLOAD PUSH32 0x8C379A000000000000000000000000000000000000000000000000000000000 DUP2 MSTORE PUSH1 0x4 ADD PUSH2 0xBFC SWAP1 PUSH2 0x45E2 JUMP JUMPDEST PUSH1 0x40 MLOAD DUP1 SWAP2 SUB SWAP1 REVERT JUMPDEST PUSH1 0x4 PUSH1 0x0 DUP4 DUP2 MSTORE PUSH1 0x20 ADD SWAP1 DUP2 MSTORE PUSH1 0x20 ADD PUSH1 0x0 KECCAK256 PUSH1 0x0 SWAP1 SLOAD SWAP1 PUSH2 0x100 EXP SWAP1 DIV PUSH20 0xFFFFFFFFFFFFFFFFFFFFFFFFFFFFFFFFFFFFFFFF AND SWAP1 POP SWAP2 SWAP1 POP JUMP JUMPDEST PUSH1 0xC DUP1 SLOAD PUSH2 0xC4D SWAP1 PUSH2 0x49F7 JUMP JUMPDEST DUP1 PUSH1 0x1F ADD PUSH1 0x20 DUP1 SWAP2 DIV MUL PUSH1 0x20 ADD PUSH1 0x40 MLOAD SWAP1 DUP2 ADD PUSH1 0x40 MSTORE DUP1 SWAP3 SWAP2 SWAP1 DUP2 DUP2 MSTORE PUSH1 0x20 ADD DUP3 DUP1 SLOAD PUSH2 0xC79 SWAP1 PUSH2 0x49F7 JUMP JUMPDEST DUP1 ISZERO PUSH2 0xCC6 JUMPI DUP1 PUSH1 0x1F LT PUSH2 0xC9B JUMPI PUSH2 0x100 DUP1 DUP4 SLOAD DIV MUL DUP4 MSTORE SWAP2 PUSH1 0x20 ADD SWAP2 PUSH2 0xCC6 JUMP JUMPDEST DUP3 ADD SWAP2 SWAP1 PUSH1 0x0 MSTORE PUSH1 0x20 PUSH1 0x0 KECCAK256 SWAP1 JUMPDEST DUP2 SLOAD DUP2 MSTORE SWAP1 PUSH1 0x1 ADD SWAP1 PUSH1 0x20 ADD DUP1 DUP4 GT PUSH2 0xCA9 JUMPI DUP3 SWAP1 SUB PUSH1 0x1F AND DUP3 ADD SWAP2 JUMPDEST POP POP POP POP POP DUP2 JUMP JUMPDEST PUSH1 0x0 PUSH2 0xCD9 DUP3 PUSH2 0x176D JUMP JUMPDEST SWAP1 POP DUP1 PUSH20 0xFFFFFFFFFFFFFFFFFFFFFFFFFFFFFFFFFFFFFFFF AND DUP4 PUSH20 0xFFFFFFFFFFFFFFFFFFFFFFFFFFFFFFFFFFFFFFFF AND EQ ISZERO PUSH2 0xD4A JUMPI PUSH1 0x40 MLOAD PUSH32 0x8C379A000000000000000000000000000000000000000000000000000000000 DUP2 MSTORE PUSH1 0x4 ADD PUSH2 0xD41 SWAP1 PUSH2 0x4642 JUMP JUMPDEST PUSH1 0x40 MLOAD DUP1 SWAP2 SUB SWAP1 REVERT JUMPDEST DUP1 PUSH20 0xFFFFFFFFFFFFFFFFFFFFFFFFFFFFFFFFFFFFFFFF AND PUSH2 0xD69 PUSH2 0x26C3 JUMP JUMPDEST PUSH20 0xFFFFFFFFFFFFFFFFFFFFFFFFFFFFFFFFFFFFFFFF AND EQ DUP1 PUSH2 0xD98 JUMPI POP PUSH2 0xD97 DUP2 PUSH2 0xD92 PUSH2 0x26C3 JUMP JUMPDEST PUSH2 0x21E3 JUMP JUMPDEST JUMPDEST PUSH2 0xDD7 JUMPI PUSH1 0x40 MLOAD PUSH32 0x8C379A000000000000000000000000000000000000000000000000000000000 DUP2 MSTORE PUSH1 0x4 ADD PUSH2 0xDCE SWAP1 PUSH2 0x4542 JUMP JUMPDEST PUSH1 0x40 MLOAD DUP1 SWAP2 SUB SWAP1 REVERT JUMPDEST PUSH2 0xDE1 DUP4 DUP4 PUSH2 0x26CB JUMP JUMPDEST POP POP POP JUMP JUMPDEST PUSH1 0x0 PUSH2 0xDF0 PUSH2 0x10D2 JUMP JUMPDEST SWAP1 POP PUSH1 0xA PUSH1 0x15 SWAP1 SLOAD SWAP1 PUSH2 0x100 EXP SWAP1 DIV PUSH1 0xFF AND PUSH2 0xE41 JUMPI PUSH1 0x40 MLOAD PUSH32 0x8C379A000000000000000000000000000000000000000000000000000000000 DUP2 MSTORE PUSH1 0x4 ADD PUSH2 0xE38 SWAP1 PUSH2 0x44A2 JUMP JUMPDEST PUSH1 0x40 MLOAD DUP1 SWAP2 SUB SWAP1 REVERT JUMPDEST PUSH1 0x0 DUP3 GT PUSH2 0xE4E JUMPI PUSH1 0x0 DUP1 REVERT JUMPDEST PUSH1 0x11 SLOAD DUP3 GT ISZERO PUSH2 0xE93 JUMPI PUSH1 0x40 MLOAD PUSH32 0x8C379A000000000000000000000000000000000000000000000000000000000 DUP2 MSTORE PUSH1 0x4 ADD PUSH2 0xE8A SWAP1 PUSH2 0x4502 JUMP JUMPDEST PUSH1 0x40 MLOAD DUP1 SWAP2 SUB SWAP1 REVERT JUMPDEST PUSH1 0x10 SLOAD DUP3 DUP3 PUSH2 0xEA2 SWAP2 SWAP1 PUSH2 0x482C JUMP JUMPDEST GT ISZERO PUSH2 0xEE3 JUMPI PUSH1 0x40 MLOAD PUSH32 0x8C379A000000000000000000000000000000000000000000000000000000000 DUP2 MSTORE PUSH1 0x4 ADD PUSH2 0xEDA SWAP1 PUSH2 0x45A2 JUMP JUMPDEST PUSH1 0x40 MLOAD DUP1 SWAP2 SUB SWAP1 REVERT JUMPDEST PUSH1 0x12 SLOAD DUP3 PUSH2 0xEF0 CALLER PUSH2 0x18C0 JUMP JUMPDEST PUSH2 0xEFA SWAP2 SWAP1 PUSH2 0x482C JUMP JUMPDEST GT ISZERO PUSH2 0xF3B JUMPI PUSH1 0x40 MLOAD PUSH32 0x8C379A000000000000000000000000000000000000000000000000000000000 DUP2 MSTORE PUSH1 0x4 ADD PUSH2 0xF32 SWAP1 PUSH2 0x4442 JUMP JUMPDEST PUSH1 0x40 MLOAD DUP1 SWAP2 SUB SWAP1 REVERT JUMPDEST PUSH2 0xF43 PUSH2 0x1BC3 JUMP JUMPDEST PUSH20 0xFFFFFFFFFFFFFFFFFFFFFFFFFFFFFFFFFFFFFFFF AND CALLER PUSH20 0xFFFFFFFFFFFFFFFFFFFFFFFFFFFFFFFFFFFFFFFF AND EQ PUSH2 0x1097 JUMPI PUSH1 0x1 ISZERO ISZERO PUSH1 0x13 PUSH1 0x0 CALLER PUSH20 0xFFFFFFFFFFFFFFFFFFFFFFFFFFFFFFFFFFFFFFFF AND PUSH20 0xFFFFFFFFFFFFFFFFFFFFFFFFFFFFFFFFFFFFFFFF AND DUP2 MSTORE PUSH1 0x20 ADD SWAP1 DUP2 MSTORE PUSH1 0x20 ADD PUSH1 0x0 KECCAK256 PUSH1 0x0 SWAP1 SLOAD SWAP1 PUSH2 0x100 EXP SWAP1 DIV PUSH1 0xFF AND ISZERO ISZERO EQ PUSH2 0x1096 JUMPI PUSH1 0x1 ISZERO ISZERO PUSH1 0x14 PUSH1 0x0 CALLER PUSH20 0xFFFFFFFFFFFFFFFFFFFFFFFFFFFFFFFFFFFFFFFF AND PUSH20 0xFFFFFFFFFFFFFFFFFFFFFFFFFFFFFFFFFFFFFFFF AND DUP2 MSTORE PUSH1 0x20 ADD SWAP1 DUP2 MSTORE PUSH1 0x20 ADD PUSH1 0x0 KECCAK256 PUSH1 0x0 SWAP1 SLOAD SWAP1 PUSH2 0x100 EXP SWAP1 DIV PUSH1 0xFF AND ISZERO ISZERO EQ PUSH2 0x107A JUMPI DUP2 PUSH1 0xE SLOAD PUSH2 0x1033 SWAP2 SWAP1 PUSH2 0x48B3 JUMP JUMPDEST CALLVALUE LT ISZERO PUSH2 0x1075 JUMPI PUSH1 0x40 MLOAD PUSH32 0x8C379A000000000000000000000000000000000000000000000000000000000 DUP2 MSTORE PUSH1 0x4 ADD PUSH2 0x106C SWAP1 PUSH2 0x46A2 JUMP JUMPDEST PUSH1 0x40 MLOAD DUP1 SWAP2 SUB SWAP1 REVERT JUMPDEST PUSH2 0x1095 JUMP JUMPDEST DUP2 PUSH1 0xF SLOAD PUSH2 0x1088 SWAP2 SWAP1 PUSH2 0x48B3 JUMP JUMPDEST CALLVALUE LT ISZERO PUSH2 0x1094 JUMPI PUSH1 0x0 DUP1 REVERT JUMPDEST JUMPDEST JUMPDEST JUMPDEST PUSH1 0x0 PUSH1 0x1 SWAP1 POP JUMPDEST DUP3 DUP2 GT PUSH2 0x10CD JUMPI PUSH2 0x10BA CALLER DUP3 DUP5 PUSH2 0x10B5 SWAP2 SWAP1 PUSH2 0x482C JUMP JUMPDEST PUSH2 0x2784 JUMP JUMPDEST DUP1 DUP1 PUSH2 0x10C5 SWAP1 PUSH2 0x4A5A JUMP JUMPDEST SWAP2 POP POP PUSH2 0x109E JUMP JUMPDEST POP POP POP JUMP JUMPDEST PUSH1 0x0 PUSH1 0x8 DUP1 SLOAD SWAP1 POP SWAP1 POP SWAP1 JUMP JUMPDEST PUSH1 0x11 SLOAD DUP2 JUMP JUMPDEST PUSH2 0x10F6 PUSH2 0x10F0 PUSH2 0x26C3 JUMP JUMPDEST DUP3 PUSH2 0x27A2 JUMP JUMPDEST PUSH2 0x1135 JUMPI PUSH1 0x40 MLOAD PUSH32 0x8C379A000000000000000000000000000000000000000000000000000000000 DUP2 MSTORE PUSH1 0x4 ADD PUSH2 0x112C SWAP1 PUSH2 0x4662 JUMP JUMPDEST PUSH1 0x40 MLOAD DUP1 SWAP2 SUB SWAP1 REVERT JUMPDEST PUSH2 0x1140 DUP4 DUP4 DUP4 PUSH2 0x2880 JUMP JUMPDEST POP POP POP JUMP JUMPDEST PUSH2 0x114D PUSH2 0x26C3 JUMP JUMPDEST PUSH20 0xFFFFFFFFFFFFFFFFFFFFFFFFFFFFFFFFFFFFFFFF AND PUSH2 0x116B PUSH2 0x1BC3 JUMP JUMPDEST PUSH20 0xFFFFFFFFFFFFFFFFFFFFFFFFFFFFFFFFFFFFFFFF AND EQ PUSH2 0x11C1 JUMPI PUSH1 0x40 MLOAD PUSH32 0x8C379A000000000000000000000000000000000000000000000000000000000 DUP2 MSTORE PUSH1 0x4 ADD PUSH2 0x11B8 SWAP1 PUSH2 0x4602 JUMP JUMPDEST PUSH1 0x40 MLOAD DUP1 SWAP2 SUB SWAP1 REVERT JUMPDEST PUSH1 0xA PUSH1 0x14 SWAP1 SLOAD SWAP1 PUSH2 0x100 EXP SWAP1 DIV PUSH1 0xFF AND ISZERO PUSH1 0xA PUSH1 0x14 PUSH2 0x100 EXP DUP2 SLOAD DUP2 PUSH1 0xFF MUL NOT AND SWAP1 DUP4 ISZERO ISZERO MUL OR SWAP1 SSTORE POP JUMP JUMPDEST PUSH1 0x0 PUSH2 0x11F8 DUP4 PUSH2 0x18C0 JUMP JUMPDEST DUP3 LT PUSH2 0x1239 JUMPI PUSH1 0x40 MLOAD PUSH32 0x8C379A000000000000000000000000000000000000000000000000000000000 DUP2 MSTORE PUSH1 0x4 ADD PUSH2 0x1230 SWAP1 PUSH2 0x43E2 JUMP JUMPDEST PUSH1 0x40 MLOAD DUP1 SWAP2 SUB SWAP1 REVERT JUMPDEST PUSH1 0x6 PUSH1 0x0 DUP5 PUSH20 0xFFFFFFFFFFFFFFFFFFFFFFFFFFFFFFFFFFFFFFFF AND PUSH20 0xFFFFFFFFFFFFFFFFFFFFFFFFFFFFFFFFFFFFFFFF AND DUP2 MSTORE PUSH1 0x20 ADD SWAP1 DUP2 MSTORE PUSH1 0x20 ADD PUSH1 0x0 KECCAK256 PUSH1 0x0 DUP4 DUP2 MSTORE PUSH1 0x20 ADD SWAP1 DUP2 MSTORE PUSH1 0x20 ADD PUSH1 0x0 KECCAK256 SLOAD SWAP1 POP SWAP3 SWAP2 POP POP JUMP JUMPDEST PUSH1 0x14 PUSH1 0x20 MSTORE DUP1 PUSH1 0x0 MSTORE PUSH1 0x40 PUSH1 0x0 KECCAK256 PUSH1 0x0 SWAP2 POP SLOAD SWAP1 PUSH2 0x100 EXP SWAP1 DIV PUSH1 0xFF AND DUP2 JUMP JUMPDEST PUSH2 0x12BA PUSH2 0x26C3 JUMP JUMPDEST PUSH20 0xFFFFFFFFFFFFFFFFFFFFFFFFFFFFFFFFFFFFFFFF AND PUSH2 0x12D8 PUSH2 0x1BC3 JUMP JUMPDEST PUSH20 0xFFFFFFFFFFFFFFFFFFFFFFFFFFFFFFFFFFFFFFFF AND EQ PUSH2 0x132E JUMPI PUSH1 0x40 MLOAD PUSH32 0x8C379A000000000000000000000000000000000000000000000000000000000 DUP2 MSTORE PUSH1 0x4 ADD PUSH2 0x1325 SWAP1 PUSH2 0x4602 JUMP JUMPDEST PUSH1 0x40 MLOAD DUP1 SWAP2 SUB SWAP1 REVERT JUMPDEST PUSH1 0x0 PUSH1 0x13 PUSH1 0x0 DUP4 PUSH20 0xFFFFFFFFFFFFFFFFFFFFFFFFFFFFFFFFFFFFFFFF AND PUSH20 0xFFFFFFFFFFFFFFFFFFFFFFFFFFFFFFFFFFFFFFFF AND DUP2 MSTORE PUSH1 0x20 ADD SWAP1 DUP2 MSTORE PUSH1 0x20 ADD PUSH1 0x0 KECCAK256 PUSH1 0x0 PUSH2 0x100 EXP DUP2 SLOAD DUP2 PUSH1 0xFF MUL NOT AND SWAP1 DUP4 ISZERO ISZERO MUL OR SWAP1 SSTORE POP POP JUMP JUMPDEST PUSH2 0x1391 PUSH2 0x26C3 JUMP JUMPDEST PUSH20 0xFFFFFFFFFFFFFFFFFFFFFFFFFFFFFFFFFFFFFFFF AND PUSH2 0x13AF PUSH2 0x1BC3 JUMP JUMPDEST PUSH20 0xFFFFFFFFFFFFFFFFFFFFFFFFFFFFFFFFFFFFFFFF AND EQ PUSH2 0x1405 JUMPI PUSH1 0x40 MLOAD PUSH32 0x8C379A000000000000000000000000000000000000000000000000000000000 DUP2 MSTORE PUSH1 0x4 ADD PUSH2 0x13FC SWAP1 PUSH2 0x4602 JUMP JUMPDEST PUSH1 0x40 MLOAD DUP1 SWAP2 SUB SWAP1 REVERT JUMPDEST PUSH1 0xA PUSH1 0x15 SWAP1 SLOAD SWAP1 PUSH2 0x100 EXP SWAP1 DIV PUSH1 0xFF AND ISZERO PUSH1 0xA PUSH1 0x15 PUSH2 0x100 EXP DUP2 SLOAD DUP2 PUSH1 0xFF MUL NOT AND SWAP1 DUP4 ISZERO ISZERO MUL OR SWAP1 SSTORE POP JUMP JUMPDEST PUSH2 0x1439 PUSH2 0x26C3 JUMP JUMPDEST PUSH20 0xFFFFFFFFFFFFFFFFFFFFFFFFFFFFFFFFFFFFFFFF AND PUSH2 0x1457 PUSH2 0x1BC3 JUMP JUMPDEST PUSH20 0xFFFFFFFFFFFFFFFFFFFFFFFFFFFFFFFFFFFFFFFF AND EQ PUSH2 0x14AD JUMPI PUSH1 0x40 MLOAD PUSH32 0x8C379A000000000000000000000000000000000000000000000000000000000 DUP2 MSTORE PUSH1 0x4 ADD PUSH2 0x14A4 SWAP1 PUSH2 0x4602 JUMP JUMPDEST PUSH1 0x40 MLOAD DUP1 SWAP2 SUB SWAP1 REVERT JUMPDEST PUSH1 0x0 CALLER PUSH20 0xFFFFFFFFFFFFFFFFFFFFFFFFFFFFFFFFFFFFFFFF AND SELFBALANCE PUSH1 0x40 MLOAD PUSH2 0x14D3 SWAP1 PUSH2 0x4307 JUMP JUMPDEST PUSH1 0x0 PUSH1 0x40 MLOAD DUP1 DUP4 SUB DUP2 DUP6 DUP8 GAS CALL SWAP3 POP POP POP RETURNDATASIZE DUP1 PUSH1 0x0 DUP2 EQ PUSH2 0x1510 JUMPI PUSH1 0x40 MLOAD SWAP2 POP PUSH1 0x1F NOT PUSH1 0x3F RETURNDATASIZE ADD AND DUP3 ADD PUSH1 0x40 MSTORE RETURNDATASIZE DUP3 MSTORE RETURNDATASIZE PUSH1 0x0 PUSH1 0x20 DUP5 ADD RETURNDATACOPY PUSH2 0x1515 JUMP JUMPDEST PUSH1 0x60 SWAP2 POP JUMPDEST POP POP SWAP1 POP DUP1 PUSH2 0x1523 JUMPI PUSH1 0x0 DUP1 REVERT JUMPDEST POP JUMP JUMPDEST PUSH2 0x1541 DUP4 DUP4 DUP4 PUSH1 0x40 MLOAD DUP1 PUSH1 0x20 ADD PUSH1 0x40 MSTORE DUP1 PUSH1 0x0 DUP2 MSTORE POP PUSH2 0x1E58 JUMP JUMPDEST POP POP POP JUMP JUMPDEST PUSH1 0x60 PUSH1 0x0 PUSH2 0x1553 DUP4 PUSH2 0x18C0 JUMP JUMPDEST SWAP1 POP PUSH1 0x0 DUP2 PUSH8 0xFFFFFFFFFFFFFFFF DUP2 GT ISZERO PUSH2 0x1597 JUMPI PUSH32 0x4E487B7100000000000000000000000000000000000000000000000000000000 PUSH1 0x0 MSTORE PUSH1 0x41 PUSH1 0x4 MSTORE PUSH1 0x24 PUSH1 0x0 REVERT JUMPDEST PUSH1 0x40 MLOAD SWAP1 DUP1 DUP3 MSTORE DUP1 PUSH1 0x20 MUL PUSH1 0x20 ADD DUP3 ADD PUSH1 0x40 MSTORE DUP1 ISZERO PUSH2 0x15C5 JUMPI DUP2 PUSH1 0x20 ADD PUSH1 0x20 DUP3 MUL DUP1 CALLDATASIZE DUP4 CALLDATACOPY DUP1 DUP3 ADD SWAP2 POP POP SWAP1 POP JUMPDEST POP SWAP1 POP PUSH1 0x0 JUMPDEST DUP3 DUP2 LT ISZERO PUSH2 0x1635 JUMPI PUSH2 0x15DD DUP6 DUP3 PUSH2 0x11ED JUMP JUMPDEST DUP3 DUP3 DUP2 MLOAD DUP2 LT PUSH2 0x1616 JUMPI PUSH32 0x4E487B7100000000000000000000000000000000000000000000000000000000 PUSH1 0x0 MSTORE PUSH1 0x32 PUSH1 0x4 MSTORE PUSH1 0x24 PUSH1 0x0 REVERT JUMPDEST PUSH1 0x20 MUL PUSH1 0x20 ADD ADD DUP2 DUP2 MSTORE POP POP DUP1 DUP1 PUSH2 0x162D SWAP1 PUSH2 0x4A5A JUMP JUMPDEST SWAP2 POP POP PUSH2 0x15CB JUMP JUMPDEST POP DUP1 SWAP3 POP POP POP SWAP2 SWAP1 POP JUMP JUMPDEST PUSH1 0x0 PUSH2 0x164A PUSH2 0x10D2 JUMP JUMPDEST DUP3 LT PUSH2 0x168B JUMPI PUSH1 0x40 MLOAD PUSH32 0x8C379A000000000000000000000000000000000000000000000000000000000 DUP2 MSTORE PUSH1 0x4 ADD PUSH2 0x1682 SWAP1 PUSH2 0x4682 JUMP JUMPDEST PUSH1 0x40 MLOAD DUP1 SWAP2 SUB SWAP1 REVERT JUMPDEST PUSH1 0x8 DUP3 DUP2 SLOAD DUP2 LT PUSH2 0x16C5 JUMPI PUSH32 0x4E487B7100000000000000000000000000000000000000000000000000000000 PUSH1 0x0 MSTORE PUSH1 0x32 PUSH1 0x4 MSTORE PUSH1 0x24 PUSH1 0x0 REVERT JUMPDEST SWAP1 PUSH1 0x0 MSTORE PUSH1 0x20 PUSH1 0x0 KECCAK256 ADD SLOAD SWAP1 POP SWAP2 SWAP1 POP JUMP JUMPDEST PUSH2 0x16DF PUSH2 0x26C3 JUMP JUMPDEST PUSH20 0xFFFFFFFFFFFFFFFFFFFFFFFFFFFFFFFFFFFFFFFF AND PUSH2 0x16FD PUSH2 0x1BC3 JUMP JUMPDEST PUSH20 0xFFFFFFFFFFFFFFFFFFFFFFFFFFFFFFFFFFFFFFFF AND EQ PUSH2 0x1753 JUMPI PUSH1 0x40 MLOAD PUSH32 0x8C379A000000000000000000000000000000000000000000000000000000000 DUP2 MSTORE PUSH1 0x4 ADD PUSH2 0x174A SWAP1 PUSH2 0x4602 JUMP JUMPDEST PUSH1 0x40 MLOAD DUP1 SWAP2 SUB SWAP1 REVERT JUMPDEST DUP1 PUSH1 0xB SWAP1 DUP1 MLOAD SWAP1 PUSH1 0x20 ADD SWAP1 PUSH2 0x1769 SWAP3 SWAP2 SWAP1 PUSH2 0x38A4 JUMP JUMPDEST POP POP JUMP JUMPDEST PUSH1 0x0 DUP1 PUSH1 0x2 PUSH1 0x0 DUP5 DUP2 MSTORE PUSH1 0x20 ADD SWAP1 DUP2 MSTORE PUSH1 0x20 ADD PUSH1 0x0 KECCAK256 PUSH1 0x0 SWAP1 SLOAD SWAP1 PUSH2 0x100 EXP SWAP1 DIV PUSH20 0xFFFFFFFFFFFFFFFFFFFFFFFFFFFFFFFFFFFFFFFF AND SWAP1 POP PUSH1 0x0 PUSH20 0xFFFFFFFFFFFFFFFFFFFFFFFFFFFFFFFFFFFFFFFF AND DUP2 PUSH20 0xFFFFFFFFFFFFFFFFFFFFFFFFFFFFFFFFFFFFFFFF AND EQ ISZERO PUSH2 0x1816 JUMPI PUSH1 0x40 MLOAD PUSH32 0x8C379A000000000000000000000000000000000000000000000000000000000 DUP2 MSTORE PUSH1 0x4 ADD PUSH2 0x180D SWAP1 PUSH2 0x4582 JUMP JUMPDEST PUSH1 0x40 MLOAD DUP1 SWAP2 SUB SWAP1 REVERT JUMPDEST DUP1 SWAP2 POP POP SWAP2 SWAP1 POP JUMP JUMPDEST PUSH1 0xB DUP1 SLOAD PUSH2 0x182C SWAP1 PUSH2 0x49F7 JUMP JUMPDEST DUP1 PUSH1 0x1F ADD PUSH1 0x20 DUP1 SWAP2 DIV MUL PUSH1 0x20 ADD PUSH1 0x40 MLOAD SWAP1 DUP2 ADD PUSH1 0x40 MSTORE DUP1 SWAP3 SWAP2 SWAP1 DUP2 DUP2 MSTORE PUSH1 0x20 ADD DUP3 DUP1 SLOAD PUSH2 0x1858 SWAP1 PUSH2 0x49F7 JUMP JUMPDEST DUP1 ISZERO PUSH2 0x18A5 JUMPI DUP1 PUSH1 0x1F LT PUSH2 0x187A JUMPI PUSH2 0x100 DUP1 DUP4 SLOAD DIV MUL DUP4 MSTORE SWAP2 PUSH1 0x20 ADD SWAP2 PUSH2 0x18A5 JUMP JUMPDEST DUP3 ADD SWAP2 SWAP1 PUSH1 0x0 MSTORE PUSH1 0x20 PUSH1 0x0 KECCAK256 SWAP1 JUMPDEST DUP2 SLOAD DUP2 MSTORE SWAP1 PUSH1 0x1 ADD SWAP1 PUSH1 0x20 ADD DUP1 DUP4 GT PUSH2 0x1888 JUMPI DUP3 SWAP1 SUB PUSH1 0x1F AND DUP3 ADD SWAP2 JUMPDEST POP POP POP POP POP DUP2 JUMP JUMPDEST PUSH1 0xA PUSH1 0x14 SWAP1 SLOAD SWAP1 PUSH2 0x100 EXP SWAP1 DIV PUSH1 0xFF AND DUP2 JUMP JUMPDEST PUSH1 0x0 DUP1 PUSH20 0xFFFFFFFFFFFFFFFFFFFFFFFFFFFFFFFFFFFFFFFF AND DUP3 PUSH20 0xFFFFFFFFFFFFFFFFFFFFFFFFFFFFFFFFFFFFFFFF AND EQ ISZERO PUSH2 0x1931 JUMPI PUSH1 0x40 MLOAD PUSH32 0x8C379A000000000000000000000000000000000000000000000000000000000 DUP2 MSTORE PUSH1 0x4 ADD PUSH2 0x1928 SWAP1 PUSH2 0x4562 JUMP JUMPDEST PUSH1 0x40 MLOAD DUP1 SWAP2 SUB SWAP1 REVERT JUMPDEST PUSH1 0x3 PUSH1 0x0 DUP4 PUSH20 0xFFFFFFFFFFFFFFFFFFFFFFFFFFFFFFFFFFFFFFFF AND PUSH20 0xFFFFFFFFFFFFFFFFFFFFFFFFFFFFFFFFFFFFFFFF AND DUP2 MSTORE PUSH1 0x20 ADD SWAP1 DUP2 MSTORE PUSH1 0x20 ADD PUSH1 0x0 KECCAK256 SLOAD SWAP1 POP SWAP2 SWAP1 POP JUMP JUMPDEST PUSH2 0x1980 PUSH2 0x26C3 JUMP JUMPDEST PUSH20 0xFFFFFFFFFFFFFFFFFFFFFFFFFFFFFFFFFFFFFFFF AND PUSH2 0x199E PUSH2 0x1BC3 JUMP JUMPDEST PUSH20 0xFFFFFFFFFFFFFFFFFFFFFFFFFFFFFFFFFFFFFFFF AND EQ PUSH2 0x19F4 JUMPI PUSH1 0x40 MLOAD PUSH32 0x8C379A000000000000000000000000000000000000000000000000000000000 DUP2 MSTORE PUSH1 0x4 ADD PUSH2 0x19EB SWAP1 PUSH2 0x4602 JUMP JUMPDEST PUSH1 0x40 MLOAD DUP1 SWAP2 SUB SWAP1 REVERT JUMPDEST PUSH2 0x19FE PUSH1 0x0 PUSH2 0x2AE7 JUMP JUMPDEST JUMP JUMPDEST PUSH1 0x12 SLOAD DUP2 JUMP JUMPDEST PUSH2 0x1A0E PUSH2 0x26C3 JUMP JUMPDEST PUSH20 0xFFFFFFFFFFFFFFFFFFFFFFFFFFFFFFFFFFFFFFFF AND PUSH2 0x1A2C PUSH2 0x1BC3 JUMP JUMPDEST PUSH20 0xFFFFFFFFFFFFFFFFFFFFFFFFFFFFFFFFFFFFFFFF AND EQ PUSH2 0x1A82 JUMPI PUSH1 0x40 MLOAD PUSH32 0x8C379A000000000000000000000000000000000000000000000000000000000 DUP2 MSTORE PUSH1 0x4 ADD PUSH2 0x1A79 SWAP1 PUSH2 0x4602 JUMP JUMPDEST PUSH1 0x40 MLOAD DUP1 SWAP2 SUB SWAP1 REVERT JUMPDEST DUP1 PUSH1 0x11 DUP2 SWAP1 SSTORE POP POP JUMP JUMPDEST PUSH2 0x1A94 PUSH2 0x26C3 JUMP JUMPDEST PUSH20 0xFFFFFFFFFFFFFFFFFFFFFFFFFFFFFFFFFFFFFFFF AND PUSH2 0x1AB2 PUSH2 0x1BC3 JUMP JUMPDEST PUSH20 0xFFFFFFFFFFFFFFFFFFFFFFFFFFFFFFFFFFFFFFFF AND EQ PUSH2 0x1B08 JUMPI PUSH1 0x40 MLOAD PUSH32 0x8C379A000000000000000000000000000000000000000000000000000000000 DUP2 MSTORE PUSH1 0x4 ADD PUSH2 0x1AFF SWAP1 PUSH2 0x4602 JUMP JUMPDEST PUSH1 0x40 MLOAD DUP1 SWAP2 SUB SWAP1 REVERT JUMPDEST PUSH1 0x0 JUMPDEST DUP2 MLOAD DUP2 LT ISZERO PUSH2 0x1BBF JUMPI PUSH1 0x1 PUSH1 0x14 PUSH1 0x0 DUP5 DUP5 DUP2 MLOAD DUP2 LT PUSH2 0x1B53 JUMPI PUSH32 0x4E487B7100000000000000000000000000000000000000000000000000000000 PUSH1 0x0 MSTORE PUSH1 0x32 PUSH1 0x4 MSTORE PUSH1 0x24 PUSH1 0x0 REVERT JUMPDEST PUSH1 0x20 MUL PUSH1 0x20 ADD ADD MLOAD PUSH20 0xFFFFFFFFFFFFFFFFFFFFFFFFFFFFFFFFFFFFFFFF AND PUSH20 0xFFFFFFFFFFFFFFFFFFFFFFFFFFFFFFFFFFFFFFFF AND DUP2 MSTORE PUSH1 0x20 ADD SWAP1 DUP2 MSTORE PUSH1 0x20 ADD PUSH1 0x0 KECCAK256 PUSH1 0x0 PUSH2 0x100 EXP DUP2 SLOAD DUP2 PUSH1 0xFF MUL NOT AND SWAP1 DUP4 ISZERO ISZERO MUL OR SWAP1 SSTORE POP DUP1 DUP1 PUSH2 0x1BB7 SWAP1 PUSH2 0x4A5A JUMP JUMPDEST SWAP2 POP POP PUSH2 0x1B0B JUMP JUMPDEST POP POP JUMP JUMPDEST PUSH1 0x0 PUSH1 0xA PUSH1 0x0 SWAP1 SLOAD SWAP1 PUSH2 0x100 EXP SWAP1 DIV PUSH20 0xFFFFFFFFFFFFFFFFFFFFFFFFFFFFFFFFFFFFFFFF AND SWAP1 POP SWAP1 JUMP JUMPDEST PUSH1 0x60 PUSH1 0x1 DUP1 SLOAD PUSH2 0x1BFC SWAP1 PUSH2 0x49F7 JUMP JUMPDEST DUP1 PUSH1 0x1F ADD PUSH1 0x20 DUP1 SWAP2 DIV MUL PUSH1 0x20 ADD PUSH1 0x40 MLOAD SWAP1 DUP2 ADD PUSH1 0x40 MSTORE DUP1 SWAP3 SWAP2 SWAP1 DUP2 DUP2 MSTORE PUSH1 0x20 ADD DUP3 DUP1 SLOAD PUSH2 0x1C28 SWAP1 PUSH2 0x49F7 JUMP JUMPDEST DUP1 ISZERO PUSH2 0x1C75 JUMPI DUP1 PUSH1 0x1F LT PUSH2 0x1C4A JUMPI PUSH2 0x100 DUP1 DUP4 SLOAD DIV MUL DUP4 MSTORE SWAP2 PUSH1 0x20 ADD SWAP2 PUSH2 0x1C75 JUMP JUMPDEST DUP3 ADD SWAP2 SWAP1 PUSH1 0x0 MSTORE PUSH1 0x20 PUSH1 0x0 KECCAK256 SWAP1 JUMPDEST DUP2 SLOAD DUP2 MSTORE SWAP1 PUSH1 0x1 ADD SWAP1 PUSH1 0x20 ADD DUP1 DUP4 GT PUSH2 0x1C58 JUMPI DUP3 SWAP1 SUB PUSH1 0x1F AND DUP3 ADD SWAP2 JUMPDEST POP POP POP POP POP SWAP1 POP SWAP1 JUMP JUMPDEST PUSH2 0x1C87 PUSH2 0x26C3 JUMP JUMPDEST PUSH20 0xFFFFFFFFFFFFFFFFFFFFFFFFFFFFFFFFFFFFFFFF AND PUSH2 0x1CA5 PUSH2 0x1BC3 JUMP JUMPDEST PUSH20 0xFFFFFFFFFFFFFFFFFFFFFFFFFFFFFFFFFFFFFFFF AND EQ PUSH2 0x1CFB JUMPI PUSH1 0x40 MLOAD PUSH32 0x8C379A000000000000000000000000000000000000000000000000000000000 DUP2 MSTORE PUSH1 0x4 ADD PUSH2 0x1CF2 SWAP1 PUSH2 0x4602 JUMP JUMPDEST PUSH1 0x40 MLOAD DUP1 SWAP2 SUB SWAP1 REVERT JUMPDEST PUSH1 0x0 JUMPDEST DUP2 MLOAD DUP2 LT ISZERO PUSH2 0x1DB2 JUMPI PUSH1 0x1 PUSH1 0x14 PUSH1 0x0 DUP5 DUP5 DUP2 MLOAD DUP2 LT PUSH2 0x1D46 JUMPI PUSH32 0x4E487B7100000000000000000000000000000000000000000000000000000000 PUSH1 0x0 MSTORE PUSH1 0x32 PUSH1 0x4 MSTORE PUSH1 0x24 PUSH1 0x0 REVERT JUMPDEST PUSH1 0x20 MUL PUSH1 0x20 ADD ADD MLOAD PUSH20 0xFFFFFFFFFFFFFFFFFFFFFFFFFFFFFFFFFFFFFFFF AND PUSH20 0xFFFFFFFFFFFFFFFFFFFFFFFFFFFFFFFFFFFFFFFF AND DUP2 MSTORE PUSH1 0x20 ADD SWAP1 DUP2 MSTORE PUSH1 0x20 ADD PUSH1 0x0 KECCAK256 PUSH1 0x0 PUSH2 0x100 EXP DUP2 SLOAD DUP2 PUSH1 0xFF MUL NOT AND SWAP1 DUP4 ISZERO ISZERO MUL OR SWAP1 SSTORE POP DUP1 DUP1 PUSH2 0x1DAA SWAP1 PUSH2 0x4A5A JUMP JUMPDEST SWAP2 POP POP PUSH2 0x1CFE JUMP JUMPDEST POP POP JUMP JUMPDEST PUSH2 0x1DBE PUSH2 0x26C3 JUMP JUMPDEST PUSH20 0xFFFFFFFFFFFFFFFFFFFFFFFFFFFFFFFFFFFFFFFF AND PUSH2 0x1DDC PUSH2 0x1BC3 JUMP JUMPDEST PUSH20 0xFFFFFFFFFFFFFFFFFFFFFFFFFFFFFFFFFFFFFFFF AND EQ PUSH2 0x1E32 JUMPI PUSH1 0x40 MLOAD PUSH32 0x8C379A000000000000000000000000000000000000000000000000000000000 DUP2 MSTORE PUSH1 0x4 ADD PUSH2 0x1E29 SWAP1 PUSH2 0x4602 JUMP JUMPDEST PUSH1 0x40 MLOAD DUP1 SWAP2 SUB SWAP1 REVERT JUMPDEST DUP1 PUSH1 0x12 DUP2 SWAP1 SSTORE POP POP JUMP JUMPDEST PUSH2 0x1E4E PUSH2 0x1E47 PUSH2 0x26C3 JUMP JUMPDEST DUP4 DUP4 PUSH2 0x2BAD JUMP JUMPDEST POP POP JUMP JUMPDEST PUSH1 0xE SLOAD DUP2 JUMP JUMPDEST PUSH2 0x1E69 PUSH2 0x1E63 PUSH2 0x26C3 JUMP JUMPDEST DUP4 PUSH2 0x27A2 JUMP JUMPDEST PUSH2 0x1EA8 JUMPI PUSH1 0x40 MLOAD PUSH32 0x8C379A000000000000000000000000000000000000000000000000000000000 DUP2 MSTORE PUSH1 0x4 ADD PUSH2 0x1E9F SWAP1 PUSH2 0x4662 JUMP JUMPDEST PUSH1 0x40 MLOAD DUP1 SWAP2 SUB SWAP1 REVERT JUMPDEST PUSH2 0x1EB4 DUP5 DUP5 DUP5 DUP5 PUSH2 0x2D1A JUMP JUMPDEST POP POP POP POP JUMP JUMPDEST PUSH2 0x1EC2 PUSH2 0x26C3 JUMP JUMPDEST PUSH20 0xFFFFFFFFFFFFFFFFFFFFFFFFFFFFFFFFFFFFFFFF AND PUSH2 0x1EE0 PUSH2 0x1BC3 JUMP JUMPDEST PUSH20 0xFFFFFFFFFFFFFFFFFFFFFFFFFFFFFFFFFFFFFFFF AND EQ PUSH2 0x1F36 JUMPI PUSH1 0x40 MLOAD PUSH32 0x8C379A000000000000000000000000000000000000000000000000000000000 DUP2 MSTORE PUSH1 0x4 ADD PUSH2 0x1F2D SWAP1 PUSH2 0x4602 JUMP JUMPDEST PUSH1 0x40 MLOAD DUP1 SWAP2 SUB SWAP1 REVERT JUMPDEST DUP1 PUSH1 0xF DUP2 SWAP1 SSTORE POP POP JUMP JUMPDEST PUSH1 0xD DUP1 SLOAD PUSH2 0x1F4D SWAP1 PUSH2 0x49F7 JUMP JUMPDEST DUP1 PUSH1 0x1F ADD PUSH1 0x20 DUP1 SWAP2 DIV MUL PUSH1 0x20 ADD PUSH1 0x40 MLOAD SWAP1 DUP2 ADD PUSH1 0x40 MSTORE DUP1 SWAP3 SWAP2 SWAP1 DUP2 DUP2 MSTORE PUSH1 0x20 ADD DUP3 DUP1 SLOAD PUSH2 0x1F79 SWAP1 PUSH2 0x49F7 JUMP JUMPDEST DUP1 ISZERO PUSH2 0x1FC6 JUMPI DUP1 PUSH1 0x1F LT PUSH2 0x1F9B JUMPI PUSH2 0x100 DUP1 DUP4 SLOAD DIV MUL DUP4 MSTORE SWAP2 PUSH1 0x20 ADD SWAP2 PUSH2 0x1FC6 JUMP JUMPDEST DUP3 ADD SWAP2 SWAP1 PUSH1 0x0 MSTORE PUSH1 0x20 PUSH1 0x0 KECCAK256 SWAP1 JUMPDEST DUP2 SLOAD DUP2 MSTORE SWAP1 PUSH1 0x1 ADD SWAP1 PUSH1 0x20 ADD DUP1 DUP4 GT PUSH2 0x1FA9 JUMPI DUP3 SWAP1 SUB PUSH1 0x1F AND DUP3 ADD SWAP2 JUMPDEST POP POP POP POP POP DUP2 JUMP JUMPDEST PUSH1 0x60 PUSH2 0x1FD9 DUP3 PUSH2 0x2657 JUMP JUMPDEST PUSH2 0x2018 JUMPI PUSH1 0x40 MLOAD PUSH32 0x8C379A000000000000000000000000000000000000000000000000000000000 DUP2 MSTORE PUSH1 0x4 ADD PUSH2 0x200F SWAP1 PUSH2 0x4622 JUMP JUMPDEST PUSH1 0x40 MLOAD DUP1 SWAP2 SUB SWAP1 REVERT JUMPDEST PUSH1 0x0 ISZERO ISZERO PUSH1 0xA PUSH1 0x14 SWAP1 SLOAD SWAP1 PUSH2 0x100 EXP SWAP1 DIV PUSH1 0xFF AND ISZERO ISZERO EQ ISZERO PUSH2 0x20C6 JUMPI PUSH1 0xC DUP1 SLOAD PUSH2 0x2041 SWAP1 PUSH2 0x49F7 JUMP JUMPDEST DUP1 PUSH1 0x1F ADD PUSH1 0x20 DUP1 SWAP2 DIV MUL PUSH1 0x20 ADD PUSH1 0x40 MLOAD SWAP1 DUP2 ADD PUSH1 0x40 MSTORE DUP1 SWAP3 SWAP2 SWAP1 DUP2 DUP2 MSTORE PUSH1 0x20 ADD DUP3 DUP1 SLOAD PUSH2 0x206D SWAP1 PUSH2 0x49F7 JUMP JUMPDEST DUP1 ISZERO PUSH2 0x20BA JUMPI DUP1 PUSH1 0x1F LT PUSH2 0x208F JUMPI PUSH2 0x100 DUP1 DUP4 SLOAD DIV MUL DUP4 MSTORE SWAP2 PUSH1 0x20 ADD SWAP2 PUSH2 0x20BA JUMP JUMPDEST DUP3 ADD SWAP2 SWAP1 PUSH1 0x0 MSTORE PUSH1 0x20 PUSH1 0x0 KECCAK256 SWAP1 JUMPDEST DUP2 SLOAD DUP2 MSTORE SWAP1 PUSH1 0x1 ADD SWAP1 PUSH1 0x20 ADD DUP1 DUP4 GT PUSH2 0x209D JUMPI DUP3 SWAP1 SUB PUSH1 0x1F AND DUP3 ADD SWAP2 JUMPDEST POP POP POP POP POP SWAP1 POP PUSH2 0x2122 JUMP JUMPDEST PUSH1 0x0 PUSH2 0x20D0 PUSH2 0x2D76 JUMP JUMPDEST SWAP1 POP PUSH1 0x0 DUP2 MLOAD GT PUSH2 0x20F0 JUMPI PUSH1 0x40 MLOAD DUP1 PUSH1 0x20 ADD PUSH1 0x40 MSTORE DUP1 PUSH1 0x0 DUP2 MSTORE POP PUSH2 0x211E JUMP JUMPDEST DUP1 PUSH2 0x20FA DUP5 PUSH2 0x2E08 JUMP JUMPDEST PUSH1 0xD PUSH1 0x40 MLOAD PUSH1 0x20 ADD PUSH2 0x210E SWAP4 SWAP3 SWAP2 SWAP1 PUSH2 0x42D6 JUMP JUMPDEST PUSH1 0x40 MLOAD PUSH1 0x20 DUP2 DUP4 SUB SUB DUP2 MSTORE SWAP1 PUSH1 0x40 MSTORE JUMPDEST SWAP2 POP POP JUMPDEST SWAP2 SWAP1 POP JUMP JUMPDEST PUSH1 0x10 SLOAD DUP2 JUMP JUMPDEST PUSH1 0x13 PUSH1 0x20 MSTORE DUP1 PUSH1 0x0 MSTORE PUSH1 0x40 PUSH1 0x0 KECCAK256 PUSH1 0x0 SWAP2 POP SLOAD SWAP1 PUSH2 0x100 EXP SWAP1 DIV PUSH1 0xFF AND DUP2 JUMP JUMPDEST PUSH2 0x2155 PUSH2 0x26C3 JUMP JUMPDEST PUSH20 0xFFFFFFFFFFFFFFFFFFFFFFFFFFFFFFFFFFFFFFFF AND PUSH2 0x2173 PUSH2 0x1BC3 JUMP JUMPDEST PUSH20 0xFFFFFFFFFFFFFFFFFFFFFFFFFFFFFFFFFFFFFFFF AND EQ PUSH2 0x21C9 JUMPI PUSH1 0x40 MLOAD PUSH32 0x8C379A000000000000000000000000000000000000000000000000000000000 DUP2 MSTORE PUSH1 0x4 ADD PUSH2 0x21C0 SWAP1 PUSH2 0x4602 JUMP JUMPDEST PUSH1 0x40 MLOAD DUP1 SWAP2 SUB SWAP1 REVERT JUMPDEST DUP1 PUSH1 0xD SWAP1 DUP1 MLOAD SWAP1 PUSH1 0x20 ADD SWAP1 PUSH2 0x21DF SWAP3 SWAP2 SWAP1 PUSH2 0x38A4 JUMP JUMPDEST POP POP JUMP JUMPDEST PUSH1 0x0 PUSH1 0x5 PUSH1 0x0 DUP5 PUSH20 0xFFFFFFFFFFFFFFFFFFFFFFFFFFFFFFFFFFFFFFFF AND PUSH20 0xFFFFFFFFFFFFFFFFFFFFFFFFFFFFFFFFFFFFFFFF AND DUP2 MSTORE PUSH1 0x20 ADD SWAP1 DUP2 MSTORE PUSH1 0x20 ADD PUSH1 0x0 KECCAK256 PUSH1 0x0 DUP4 PUSH20 0xFFFFFFFFFFFFFFFFFFFFFFFFFFFFFFFFFFFFFFFF AND PUSH20 0xFFFFFFFFFFFFFFFFFFFFFFFFFFFFFFFFFFFFFFFF AND DUP2 MSTORE PUSH1 0x20 ADD SWAP1 DUP2 MSTORE PUSH1 0x20 ADD PUSH1 0x0 KECCAK256 PUSH1 0x0 SWAP1 SLOAD SWAP1 PUSH2 0x100 EXP SWAP1 DIV PUSH1 0xFF AND SWAP1 POP SWAP3 SWAP2 POP POP JUMP JUMPDEST PUSH1 0xA PUSH1 0x15 SWAP1 SLOAD SWAP1 PUSH2 0x100 EXP SWAP1 DIV PUSH1 0xFF AND DUP2 JUMP JUMPDEST PUSH2 0x2292 PUSH2 0x26C3 JUMP JUMPDEST PUSH20 0xFFFFFFFFFFFFFFFFFFFFFFFFFFFFFFFFFFFFFFFF AND PUSH2 0x22B0 PUSH2 0x1BC3 JUMP JUMPDEST PUSH20 0xFFFFFFFFFFFFFFFFFFFFFFFFFFFFFFFFFFFFFFFF AND EQ PUSH2 0x2306 JUMPI PUSH1 0x40 MLOAD PUSH32 0x8C379A000000000000000000000000000000000000000000000000000000000 DUP2 MSTORE PUSH1 0x4 ADD PUSH2 0x22FD SWAP1 PUSH2 0x4602 JUMP JUMPDEST PUSH1 0x40 MLOAD DUP1 SWAP2 SUB SWAP1 REVERT JUMPDEST PUSH1 0x0 PUSH1 0x14 PUSH1 0x0 DUP4 PUSH20 0xFFFFFFFFFFFFFFFFFFFFFFFFFFFFFFFFFFFFFFFF AND PUSH20 0xFFFFFFFFFFFFFFFFFFFFFFFFFFFFFFFFFFFFFFFF AND DUP2 MSTORE PUSH1 0x20 ADD SWAP1 DUP2 MSTORE PUSH1 0x20 ADD PUSH1 0x0 KECCAK256 PUSH1 0x0 PUSH2 0x100 EXP DUP2 SLOAD DUP2 PUSH1 0xFF MUL NOT AND SWAP1 DUP4 ISZERO ISZERO MUL OR SWAP1 SSTORE POP POP JUMP JUMPDEST PUSH2 0x2369 PUSH2 0x26C3 JUMP JUMPDEST PUSH20 0xFFFFFFFFFFFFFFFFFFFFFFFFFFFFFFFFFFFFFFFF AND PUSH2 0x2387 PUSH2 0x1BC3 JUMP JUMPDEST PUSH20 0xFFFFFFFFFFFFFFFFFFFFFFFFFFFFFFFFFFFFFFFF AND EQ PUSH2 0x23DD JUMPI PUSH1 0x40 MLOAD PUSH32 0x8C379A000000000000000000000000000000000000000000000000000000000 DUP2 MSTORE PUSH1 0x4 ADD PUSH2 0x23D4 SWAP1 PUSH2 0x4602 JUMP JUMPDEST PUSH1 0x40 MLOAD DUP1 SWAP2 SUB SWAP1 REVERT JUMPDEST DUP1 PUSH1 0xC SWAP1 DUP1 MLOAD SWAP1 PUSH1 0x20 ADD SWAP1 PUSH2 0x23F3 SWAP3 SWAP2 SWAP1 PUSH2 0x38A4 JUMP JUMPDEST POP POP JUMP JUMPDEST PUSH2 0x23FF PUSH2 0x26C3 JUMP JUMPDEST PUSH20 0xFFFFFFFFFFFFFFFFFFFFFFFFFFFFFFFFFFFFFFFF AND PUSH2 0x241D PUSH2 0x1BC3 JUMP JUMPDEST PUSH20 0xFFFFFFFFFFFFFFFFFFFFFFFFFFFFFFFFFFFFFFFF AND EQ PUSH2 0x2473 JUMPI PUSH1 0x40 MLOAD PUSH32 0x8C379A000000000000000000000000000000000000000000000000000000000 DUP2 MSTORE PUSH1 0x4 ADD PUSH2 0x246A SWAP1 PUSH2 0x4602 JUMP JUMPDEST PUSH1 0x40 MLOAD DUP1 SWAP2 SUB SWAP1 REVERT JUMPDEST PUSH1 0x0 PUSH20 0xFFFFFFFFFFFFFFFFFFFFFFFFFFFFFFFFFFFFFFFF AND DUP2 PUSH20 0xFFFFFFFFFFFFFFFFFFFFFFFFFFFFFFFFFFFFFFFF AND EQ ISZERO PUSH2 0x24E3 JUMPI PUSH1 0x40 MLOAD PUSH32 0x8C379A000000000000000000000000000000000000000000000000000000000 DUP2 MSTORE PUSH1 0x4 ADD PUSH2 0x24DA SWAP1 PUSH2 0x4422 JUMP JUMPDEST PUSH1 0x40 MLOAD DUP1 SWAP2 SUB SWAP1 REVERT JUMPDEST PUSH2 0x24EC DUP2 PUSH2 0x2AE7 JUMP JUMPDEST POP JUMP JUMPDEST PUSH2 0x24F7 PUSH2 0x26C3 JUMP JUMPDEST PUSH20 0xFFFFFFFFFFFFFFFFFFFFFFFFFFFFFFFFFFFFFFFF AND PUSH2 0x2515 PUSH2 0x1BC3 JUMP JUMPDEST PUSH20 0xFFFFFFFFFFFFFFFFFFFFFFFFFFFFFFFFFFFFFFFF AND EQ PUSH2 0x256B JUMPI PUSH1 0x40 MLOAD PUSH32 0x8C379A000000000000000000000000000000000000000000000000000000000 DUP2 MSTORE PUSH1 0x4 ADD PUSH2 0x2562 SWAP1 PUSH2 0x4602 JUMP JUMPDEST PUSH1 0x40 MLOAD DUP1 SWAP2 SUB SWAP1 REVERT JUMPDEST DUP1 PUSH1 0xE DUP2 SWAP1 SSTORE POP POP JUMP JUMPDEST PUSH1 0x0 PUSH32 0x80AC58CD00000000000000000000000000000000000000000000000000000000 PUSH28 0xFFFFFFFFFFFFFFFFFFFFFFFFFFFFFFFFFFFFFFFFFFFFFFFFFFFFFFFF NOT AND DUP3 PUSH28 0xFFFFFFFFFFFFFFFFFFFFFFFFFFFFFFFFFFFFFFFFFFFFFFFFFFFFFFFF NOT AND EQ DUP1 PUSH2 0x2640 JUMPI POP PUSH32 0x5B5E139F00000000000000000000000000000000000000000000000000000000 PUSH28 0xFFFFFFFFFFFFFFFFFFFFFFFFFFFFFFFFFFFFFFFFFFFFFFFFFFFFFFFF NOT AND DUP3 PUSH28 0xFFFFFFFFFFFFFFFFFFFFFFFFFFFFFFFFFFFFFFFFFFFFFFFFFFFFFFFF NOT AND EQ JUMPDEST DUP1 PUSH2 0x2650 JUMPI POP PUSH2 0x264F DUP3 PUSH2 0x2FB5 JUMP JUMPDEST JUMPDEST SWAP1 POP SWAP2 SWAP1 POP JUMP JUMPDEST PUSH1 0x0 DUP1 PUSH20 0xFFFFFFFFFFFFFFFFFFFFFFFFFFFFFFFFFFFFFFFF AND PUSH1 0x2 PUSH1 0x0 DUP5 DUP2 MSTORE PUSH1 0x20 ADD SWAP1 DUP2 MSTORE PUSH1 0x20 ADD PUSH1 0x0 KECCAK256 PUSH1 0x0 SWAP1 SLOAD SWAP1 PUSH2 0x100 EXP SWAP1 DIV PUSH20 0xFFFFFFFFFFFFFFFFFFFFFFFFFFFFFFFFFFFFFFFF AND PUSH20 0xFFFFFFFFFFFFFFFFFFFFFFFFFFFFFFFFFFFFFFFF AND EQ ISZERO SWAP1 POP SWAP2 SWAP1 POP JUMP JUMPDEST PUSH1 0x0 CALLER SWAP1 POP SWAP1 JUMP JUMPDEST DUP2 PUSH1 0x4 PUSH1 0x0 DUP4 DUP2 MSTORE PUSH1 0x20 ADD SWAP1 DUP2 MSTORE PUSH1 0x20 ADD PUSH1 0x0 KECCAK256 PUSH1 0x0 PUSH2 0x100 EXP DUP2 SLOAD DUP2 PUSH20 0xFFFFFFFFFFFFFFFFFFFFFFFFFFFFFFFFFFFFFFFF MUL NOT AND SWAP1 DUP4 PUSH20 0xFFFFFFFFFFFFFFFFFFFFFFFFFFFFFFFFFFFFFFFF AND MUL OR SWAP1 SSTORE POP DUP1 DUP3 PUSH20 0xFFFFFFFFFFFFFFFFFFFFFFFFFFFFFFFFFFFFFFFF AND PUSH2 0x273E DUP4 PUSH2 0x176D JUMP JUMPDEST PUSH20 0xFFFFFFFFFFFFFFFFFFFFFFFFFFFFFFFFFFFFFFFF AND PUSH32 0x8C5BE1E5EBEC7D5BD14F71427D1E84F3DD0314C0F7B2291E5B200AC8C7C3B925 PUSH1 0x40 MLOAD PUSH1 0x40 MLOAD DUP1 SWAP2 SUB SWAP1 LOG4 POP POP JUMP JUMPDEST PUSH2 0x279E DUP3 DUP3 PUSH1 0x40 MLOAD DUP1 PUSH1 0x20 ADD PUSH1 0x40 MSTORE DUP1 PUSH1 0x0 DUP2 MSTORE POP PUSH2 0x301F JUMP JUMPDEST POP POP JUMP JUMPDEST PUSH1 0x0 PUSH2 0x27AD DUP3 PUSH2 0x2657 JUMP JUMPDEST PUSH2 0x27EC JUMPI PUSH1 0x40 MLOAD PUSH32 0x8C379A000000000000000000000000000000000000000000000000000000000 DUP2 MSTORE PUSH1 0x4 ADD PUSH2 0x27E3 SWAP1 PUSH2 0x4522 JUMP JUMPDEST PUSH1 0x40 MLOAD DUP1 SWAP2 SUB SWAP1 REVERT JUMPDEST PUSH1 0x0 PUSH2 0x27F7 DUP4 PUSH2 0x176D JUMP JUMPDEST SWAP1 POP DUP1 PUSH20 0xFFFFFFFFFFFFFFFFFFFFFFFFFFFFFFFFFFFFFFFF AND DUP5 PUSH20 0xFFFFFFFFFFFFFFFFFFFFFFFFFFFFFFFFFFFFFFFF AND EQ DUP1 PUSH2 0x2866 JUMPI POP DUP4 PUSH20 0xFFFFFFFFFFFFFFFFFFFFFFFFFFFFFFFFFFFFFFFF AND PUSH2 0x284E DUP5 PUSH2 0xBBB JUMP JUMPDEST PUSH20 0xFFFFFFFFFFFFFFFFFFFFFFFFFFFFFFFFFFFFFFFF AND EQ JUMPDEST DUP1 PUSH2 0x2877 JUMPI POP PUSH2 0x2876 DUP2 DUP6 PUSH2 0x21E3 JUMP JUMPDEST JUMPDEST SWAP2 POP POP SWAP3 SWAP2 POP POP JUMP JUMPDEST DUP3 PUSH20 0xFFFFFFFFFFFFFFFFFFFFFFFFFFFFFFFFFFFFFFFF AND PUSH2 0x28A0 DUP3 PUSH2 0x176D JUMP JUMPDEST PUSH20 0xFFFFFFFFFFFFFFFFFFFFFFFFFFFFFFFFFFFFFFFF AND EQ PUSH2 0x28F6 JUMPI PUSH1 0x40 MLOAD PUSH32 0x8C379A000000000000000000000000000000000000000000000000000000000 DUP2 MSTORE PUSH1 0x4 ADD PUSH2 0x28ED SWAP1 PUSH2 0x4462 JUMP JUMPDEST PUSH1 0x40 MLOAD DUP1 SWAP2 SUB SWAP1 REVERT JUMPDEST PUSH1 0x0 PUSH20 0xFFFFFFFFFFFFFFFFFFFFFFFFFFFFFFFFFFFFFFFF AND DUP3 PUSH20 0xFFFFFFFFFFFFFFFFFFFFFFFFFFFFFFFFFFFFFFFF AND EQ ISZERO PUSH2 0x2966 JUMPI PUSH1 0x40 MLOAD PUSH32 0x8C379A000000000000000000000000000000000000000000000000000000000 DUP2 MSTORE PUSH1 0x4 ADD PUSH2 0x295D SWAP1 PUSH2 0x44C2 JUMP JUMPDEST PUSH1 0x40 MLOAD DUP1 SWAP2 SUB SWAP1 REVERT JUMPDEST PUSH2 0x2971 DUP4 DUP4 DUP4 PUSH2 0x307A JUMP JUMPDEST PUSH2 0x297C PUSH1 0x0 DUP3 PUSH2 0x26CB JUMP JUMPDEST PUSH1 0x1 PUSH1 0x3 PUSH1 0x0 DUP6 PUSH20 0xFFFFFFFFFFFFFFFFFFFFFFFFFFFFFFFFFFFFFFFF AND PUSH20 0xFFFFFFFFFFFFFFFFFFFFFFFFFFFFFFFFFFFFFFFF AND DUP2 MSTORE PUSH1 0x20 ADD SWAP1 DUP2 MSTORE PUSH1 0x20 ADD PUSH1 0x0 KECCAK256 PUSH1 0x0 DUP3 DUP3 SLOAD PUSH2 0x29CC SWAP2 SWAP1 PUSH2 0x490D JUMP JUMPDEST SWAP3 POP POP DUP2 SWAP1 SSTORE POP PUSH1 0x1 PUSH1 0x3 PUSH1 0x0 DUP5 PUSH20 0xFFFFFFFFFFFFFFFFFFFFFFFFFFFFFFFFFFFFFFFF AND PUSH20 0xFFFFFFFFFFFFFFFFFFFFFFFFFFFFFFFFFFFFFFFF AND DUP2 MSTORE PUSH1 0x20 ADD SWAP1 DUP2 MSTORE PUSH1 0x20 ADD PUSH1 0x0 KECCAK256 PUSH1 0x0 DUP3 DUP3 SLOAD PUSH2 0x2A23 SWAP2 SWAP1 PUSH2 0x482C JUMP JUMPDEST SWAP3 POP POP DUP2 SWAP1 SSTORE POP DUP2 PUSH1 0x2 PUSH1 0x0 DUP4 DUP2 MSTORE PUSH1 0x20 ADD SWAP1 DUP2 MSTORE PUSH1 0x20 ADD PUSH1 0x0 KECCAK256 PUSH1 0x0 PUSH2 0x100 EXP DUP2 SLOAD DUP2 PUSH20 0xFFFFFFFFFFFFFFFFFFFFFFFFFFFFFFFFFFFFFFFF MUL NOT AND SWAP1 DUP4 PUSH20 0xFFFFFFFFFFFFFFFFFFFFFFFFFFFFFFFFFFFFFFFF AND MUL OR SWAP1 SSTORE POP DUP1 DUP3 PUSH20 0xFFFFFFFFFFFFFFFFFFFFFFFFFFFFFFFFFFFFFFFF AND DUP5 PUSH20 0xFFFFFFFFFFFFFFFFFFFFFFFFFFFFFFFFFFFFFFFF AND PUSH32 0xDDF252AD1BE2C89B69C2B068FC378DAA952BA7F163C4A11628F55A4DF523B3EF PUSH1 0x40 MLOAD PUSH1 0x40 MLOAD DUP1 SWAP2 SUB SWAP1 LOG4 PUSH2 0x2AE2 DUP4 DUP4 DUP4 PUSH2 0x318E JUMP JUMPDEST POP POP POP JUMP JUMPDEST PUSH1 0x0 PUSH1 0xA PUSH1 0x0 SWAP1 SLOAD SWAP1 PUSH2 0x100 EXP SWAP1 DIV PUSH20 0xFFFFFFFFFFFFFFFFFFFFFFFFFFFFFFFFFFFFFFFF AND SWAP1 POP DUP2 PUSH1 0xA PUSH1 0x0 PUSH2 0x100 EXP DUP2 SLOAD DUP2 PUSH20 0xFFFFFFFFFFFFFFFFFFFFFFFFFFFFFFFFFFFFFFFF MUL NOT AND SWAP1 DUP4 PUSH20 0xFFFFFFFFFFFFFFFFFFFFFFFFFFFFFFFFFFFFFFFF AND MUL OR SWAP1 SSTORE POP DUP2 PUSH20 0xFFFFFFFFFFFFFFFFFFFFFFFFFFFFFFFFFFFFFFFF AND DUP2 PUSH20 0xFFFFFFFFFFFFFFFFFFFFFFFFFFFFFFFFFFFFFFFF AND PUSH32 0x8BE0079C531659141344CD1FD0A4F28419497F9722A3DAAFE3B4186F6B6457E0 PUSH1 0x40 MLOAD PUSH1 0x40 MLOAD DUP1 SWAP2 SUB SWAP1 LOG3 POP POP JUMP JUMPDEST DUP2 PUSH20 0xFFFFFFFFFFFFFFFFFFFFFFFFFFFFFFFFFFFFFFFF AND DUP4 PUSH20 0xFFFFFFFFFFFFFFFFFFFFFFFFFFFFFFFFFFFFFFFF AND EQ ISZERO PUSH2 0x2C1C JUMPI PUSH1 0x40 MLOAD PUSH32 0x8C379A000000000000000000000000000000000000000000000000000000000 DUP2 MSTORE PUSH1 0x4 ADD PUSH2 0x2C13 SWAP1 PUSH2 0x44E2 JUMP JUMPDEST PUSH1 0x40 MLOAD DUP1 SWAP2 SUB SWAP1 REVERT JUMPDEST DUP1 PUSH1 0x5 PUSH1 0x0 DUP6 PUSH20 0xFFFFFFFFFFFFFFFFFFFFFFFFFFFFFFFFFFFFFFFF AND PUSH20 0xFFFFFFFFFFFFFFFFFFFFFFFFFFFFFFFFFFFFFFFF AND DUP2 MSTORE PUSH1 0x20 ADD SWAP1 DUP2 MSTORE PUSH1 0x20 ADD PUSH1 0x0 KECCAK256 PUSH1 0x0 DUP5 PUSH20 0xFFFFFFFFFFFFFFFFFFFFFFFFFFFFFFFFFFFFFFFF AND PUSH20 0xFFFFFFFFFFFFFFFFFFFFFFFFFFFFFFFFFFFFFFFF AND DUP2 MSTORE PUSH1 0x20 ADD SWAP1 DUP2 MSTORE PUSH1 0x20 ADD PUSH1 0x0 KECCAK256 PUSH1 0x0 PUSH2 0x100 EXP DUP2 SLOAD DUP2 PUSH1 0xFF MUL NOT AND SWAP1 DUP4 ISZERO ISZERO MUL OR SWAP1 SSTORE POP DUP2 PUSH20 0xFFFFFFFFFFFFFFFFFFFFFFFFFFFFFFFFFFFFFFFF AND DUP4 PUSH20 0xFFFFFFFFFFFFFFFFFFFFFFFFFFFFFFFFFFFFFFFF AND PUSH32 0x17307EAB39AB6107E8899845AD3D59BD9653F200F220920489CA2B5937696C31 DUP4 PUSH1 0x40 MLOAD PUSH2 0x2D0D SWAP2 SWAP1 PUSH2 0x43A5 JUMP JUMPDEST PUSH1 0x40 MLOAD DUP1 SWAP2 SUB SWAP1 LOG3 POP POP POP JUMP JUMPDEST PUSH2 0x2D25 DUP5 DUP5 DUP5 PUSH2 0x2880 JUMP JUMPDEST PUSH2 0x2D31 DUP5 DUP5 DUP5 DUP5 PUSH2 0x3193 JUMP JUMPDEST PUSH2 0x2D70 JUMPI PUSH1 0x40 MLOAD PUSH32 0x8C379A000000000000000000000000000000000000000000000000000000000 DUP2 MSTORE PUSH1 0x4 ADD PUSH2 0x2D67 SWAP1 PUSH2 0x4402 JUMP JUMPDEST PUSH1 0x40 MLOAD DUP1 SWAP2 SUB SWAP1 REVERT JUMPDEST POP POP POP POP JUMP JUMPDEST PUSH1 0x60 PUSH1 0xB DUP1 SLOAD PUSH2 0x2D85 SWAP1 PUSH2 0x49F7 JUMP JUMPDEST DUP1 PUSH1 0x1F ADD PUSH1 0x20 DUP1 SWAP2 DIV MUL PUSH1 0x20 ADD PUSH1 0x40 MLOAD SWAP1 DUP2 ADD PUSH1 0x40 MSTORE DUP1 SWAP3 SWAP2 SWAP1 DUP2 DUP2 MSTORE PUSH1 0x20 ADD DUP3 DUP1 SLOAD PUSH2 0x2DB1 SWAP1 PUSH2 0x49F7 JUMP JUMPDEST DUP1 ISZERO PUSH2 0x2DFE JUMPI DUP1 PUSH1 0x1F LT PUSH2 0x2DD3 JUMPI PUSH2 0x100 DUP1 DUP4 SLOAD DIV MUL DUP4 MSTORE SWAP2 PUSH1 0x20 ADD SWAP2 PUSH2 0x2DFE JUMP JUMPDEST DUP3 ADD SWAP2 SWAP1 PUSH1 0x0 MSTORE PUSH1 0x20 PUSH1 0x0 KECCAK256 SWAP1 JUMPDEST DUP2 SLOAD DUP2 MSTORE SWAP1 PUSH1 0x1 ADD SWAP1 PUSH1 0x20 ADD DUP1 DUP4 GT PUSH2 0x2DE1 JUMPI DUP3 SWAP1 SUB PUSH1 0x1F AND DUP3 ADD SWAP2 JUMPDEST POP POP POP POP POP SWAP1 POP SWAP1 JUMP JUMPDEST PUSH1 0x60 PUSH1 0x0 DUP3 EQ ISZERO PUSH2 0x2E50 JUMPI PUSH1 0x40 MLOAD DUP1 PUSH1 0x40 ADD PUSH1 0x40 MSTORE DUP1 PUSH1 0x1 DUP2 MSTORE PUSH1 0x20 ADD PUSH32 0x3000000000000000000000000000000000000000000000000000000000000000 DUP2 MSTORE POP SWAP1 POP PUSH2 0x2FB0 JUMP JUMPDEST PUSH1 0x0 DUP3 SWAP1 POP PUSH1 0x0 JUMPDEST PUSH1 0x0 DUP3 EQ PUSH2 0x2E82 JUMPI DUP1 DUP1 PUSH2 0x2E6B SWAP1 PUSH2 0x4A5A JUMP JUMPDEST SWAP2 POP POP PUSH1 0xA DUP3 PUSH2 0x2E7B SWAP2 SWAP1 PUSH2 0x4882 JUMP JUMPDEST SWAP2 POP PUSH2 0x2E58 JUMP JUMPDEST PUSH1 0x0 DUP2 PUSH8 0xFFFFFFFFFFFFFFFF DUP2 GT ISZERO PUSH2 0x2EC4 JUMPI PUSH32 0x4E487B7100000000000000000000000000000000000000000000000000000000 PUSH1 0x0 MSTORE PUSH1 0x41 PUSH1 0x4 MSTORE PUSH1 0x24 PUSH1 0x0 REVERT JUMPDEST PUSH1 0x40 MLOAD SWAP1 DUP1 DUP3 MSTORE DUP1 PUSH1 0x1F ADD PUSH1 0x1F NOT AND PUSH1 0x20 ADD DUP3 ADD PUSH1 0x40 MSTORE DUP1 ISZERO PUSH2 0x2EF6 JUMPI DUP2 PUSH1 0x20 ADD PUSH1 0x1 DUP3 MUL DUP1 CALLDATASIZE DUP4 CALLDATACOPY DUP1 DUP3 ADD SWAP2 POP POP SWAP1 POP JUMPDEST POP SWAP1 POP JUMPDEST PUSH1 0x0 DUP6 EQ PUSH2 0x2FA9 JUMPI PUSH1 0x1 DUP3 PUSH2 0x2F0F SWAP2 SWAP1 PUSH2 0x490D JUMP JUMPDEST SWAP2 POP PUSH1 0xA DUP6 PUSH2 0x2F1E SWAP2 SWAP1 PUSH2 0x4AA3 JUMP JUMPDEST PUSH1 0x30 PUSH2 0x2F2A SWAP2 SWAP1 PUSH2 0x482C JUMP JUMPDEST PUSH1 0xF8 SHL DUP2 DUP4 DUP2 MLOAD DUP2 LT PUSH2 0x2F66 JUMPI PUSH32 0x4E487B7100000000000000000000000000000000000000000000000000000000 PUSH1 0x0 MSTORE PUSH1 0x32 PUSH1 0x4 MSTORE PUSH1 0x24 PUSH1 0x0 REVERT JUMPDEST PUSH1 0x20 ADD ADD SWAP1 PUSH31 0xFFFFFFFFFFFFFFFFFFFFFFFFFFFFFFFFFFFFFFFFFFFFFFFFFFFFFFFFFFFFFF NOT AND SWAP1 DUP2 PUSH1 0x0 BYTE SWAP1 MSTORE8 POP PUSH1 0xA DUP6 PUSH2 0x2FA2 SWAP2 SWAP1 PUSH2 0x4882 JUMP JUMPDEST SWAP5 POP PUSH2 0x2EFA JUMP JUMPDEST DUP1 SWAP4 POP POP POP POP JUMPDEST SWAP2 SWAP1 POP JUMP JUMPDEST PUSH1 0x0 PUSH32 0x1FFC9A700000000000000000000000000000000000000000000000000000000 PUSH28 0xFFFFFFFFFFFFFFFFFFFFFFFFFFFFFFFFFFFFFFFFFFFFFFFFFFFFFFFF NOT AND DUP3 PUSH28 0xFFFFFFFFFFFFFFFFFFFFFFFFFFFFFFFFFFFFFFFFFFFFFFFFFFFFFFFF NOT AND EQ SWAP1 POP SWAP2 SWAP1 POP JUMP JUMPDEST PUSH2 0x3029 DUP4 DUP4 PUSH2 0x332A JUMP JUMPDEST PUSH2 0x3036 PUSH1 0x0 DUP5 DUP5 DUP5 PUSH2 0x3193 JUMP JUMPDEST PUSH2 0x3075 JUMPI PUSH1 0x40 MLOAD PUSH32 0x8C379A000000000000000000000000000000000000000000000000000000000 DUP2 MSTORE PUSH1 0x4 ADD PUSH2 0x306C SWAP1 PUSH2 0x4402 JUMP JUMPDEST PUSH1 0x40 MLOAD DUP1 SWAP2 SUB SWAP1 REVERT JUMPDEST POP POP POP JUMP JUMPDEST PUSH2 0x3085 DUP4 DUP4 DUP4 PUSH2 0x3504 JUMP JUMPDEST PUSH1 0x0 PUSH20 0xFFFFFFFFFFFFFFFFFFFFFFFFFFFFFFFFFFFFFFFF AND DUP4 PUSH20 0xFFFFFFFFFFFFFFFFFFFFFFFFFFFFFFFFFFFFFFFF AND EQ ISZERO PUSH2 0x30C8 JUMPI PUSH2 0x30C3 DUP2 PUSH2 0x3509 JUMP JUMPDEST PUSH2 0x3107 JUMP JUMPDEST DUP2 PUSH20 0xFFFFFFFFFFFFFFFFFFFFFFFFFFFFFFFFFFFFFFFF AND DUP4 PUSH20 0xFFFFFFFFFFFFFFFFFFFFFFFFFFFFFFFFFFFFFFFF AND EQ PUSH2 0x3106 JUMPI PUSH2 0x3105 DUP4 DUP3 PUSH2 0x3552 JUMP JUMPDEST JUMPDEST JUMPDEST PUSH1 0x0 PUSH20 0xFFFFFFFFFFFFFFFFFFFFFFFFFFFFFFFFFFFFFFFF AND DUP3 PUSH20 0xFFFFFFFFFFFFFFFFFFFFFFFFFFFFFFFFFFFFFFFF AND EQ ISZERO PUSH2 0x314A JUMPI PUSH2 0x3145 DUP2 PUSH2 0x36BF JUMP JUMPDEST PUSH2 0x3189 JUMP JUMPDEST DUP3 PUSH20 0xFFFFFFFFFFFFFFFFFFFFFFFFFFFFFFFFFFFFFFFF AND DUP3 PUSH20 0xFFFFFFFFFFFFFFFFFFFFFFFFFFFFFFFFFFFFFFFF AND EQ PUSH2 0x3188 JUMPI PUSH2 0x3187 DUP3 DUP3 PUSH2 0x3802 JUMP JUMPDEST JUMPDEST JUMPDEST POP POP POP JUMP JUMPDEST POP POP POP JUMP JUMPDEST PUSH1 0x0 PUSH2 0x31B4 DUP5 PUSH20 0xFFFFFFFFFFFFFFFFFFFFFFFFFFFFFFFFFFFFFFFF AND PUSH2 0x3881 JUMP JUMPDEST ISZERO PUSH2 0x331D JUMPI DUP4 PUSH20 0xFFFFFFFFFFFFFFFFFFFFFFFFFFFFFFFFFFFFFFFF AND PUSH4 0x150B7A02 PUSH2 0x31DD PUSH2 0x26C3 JUMP JUMPDEST DUP8 DUP7 DUP7 PUSH1 0x40 MLOAD DUP6 PUSH4 0xFFFFFFFF AND PUSH1 0xE0 SHL DUP2 MSTORE PUSH1 0x4 ADD PUSH2 0x31FF SWAP5 SWAP4 SWAP3 SWAP2 SWAP1 PUSH2 0x4337 JUMP JUMPDEST PUSH1 0x20 PUSH1 0x40 MLOAD DUP1 DUP4 SUB DUP2 PUSH1 0x0 DUP8 DUP1 EXTCODESIZE ISZERO DUP1 ISZERO PUSH2 0x3219 JUMPI PUSH1 0x0 DUP1 REVERT JUMPDEST POP GAS CALL SWAP3 POP POP POP DUP1 ISZERO PUSH2 0x324A JUMPI POP PUSH1 0x40 MLOAD RETURNDATASIZE PUSH1 0x1F NOT PUSH1 0x1F DUP3 ADD AND DUP3 ADD DUP1 PUSH1 0x40 MSTORE POP DUP2 ADD SWAP1 PUSH2 0x3247 SWAP2 SWAP1 PUSH2 0x3D27 JUMP JUMPDEST PUSH1 0x1 JUMPDEST PUSH2 0x32CD JUMPI RETURNDATASIZE DUP1 PUSH1 0x0 DUP2 EQ PUSH2 0x327A JUMPI PUSH1 0x40 MLOAD SWAP2 POP PUSH1 0x1F NOT PUSH1 0x3F RETURNDATASIZE ADD AND DUP3 ADD PUSH1 0x40 MSTORE RETURNDATASIZE DUP3 MSTORE RETURNDATASIZE PUSH1 0x0 PUSH1 0x20 DUP5 ADD RETURNDATACOPY PUSH2 0x327F JUMP JUMPDEST PUSH1 0x60 SWAP2 POP JUMPDEST POP PUSH1 0x0 DUP2 MLOAD EQ ISZERO PUSH2 0x32C5 JUMPI PUSH1 0x40 MLOAD PUSH32 0x8C379A000000000000000000000000000000000000000000000000000000000 DUP2 MSTORE PUSH1 0x4 ADD PUSH2 0x32BC SWAP1 PUSH2 0x4402 JUMP JUMPDEST PUSH1 0x40 MLOAD DUP1 SWAP2 SUB SWAP1 REVERT JUMPDEST DUP1 MLOAD DUP2 PUSH1 0x20 ADD REVERT JUMPDEST PUSH4 0x150B7A02 PUSH1 0xE0 SHL PUSH28 0xFFFFFFFFFFFFFFFFFFFFFFFFFFFFFFFFFFFFFFFFFFFFFFFFFFFFFFFF NOT AND DUP2 PUSH28 0xFFFFFFFFFFFFFFFFFFFFFFFFFFFFFFFFFFFFFFFFFFFFFFFFFFFFFFFF NOT AND EQ SWAP2 POP POP PUSH2 0x3322 JUMP JUMPDEST PUSH1 0x1 SWAP1 POP JUMPDEST SWAP5 SWAP4 POP POP POP POP JUMP JUMPDEST PUSH1 0x0 PUSH20 0xFFFFFFFFFFFFFFFFFFFFFFFFFFFFFFFFFFFFFFFF AND DUP3 PUSH20 0xFFFFFFFFFFFFFFFFFFFFFFFFFFFFFFFFFFFFFFFF AND EQ ISZERO PUSH2 0x339A JUMPI PUSH1 0x40 MLOAD PUSH32 0x8C379A000000000000000000000000000000000000000000000000000000000 DUP2 MSTORE PUSH1 0x4 ADD PUSH2 0x3391 SWAP1 PUSH2 0x45C2 JUMP JUMPDEST PUSH1 0x40 MLOAD DUP1 SWAP2 SUB SWAP1 REVERT JUMPDEST PUSH2 0x33A3 DUP2 PUSH2 0x2657 JUMP JUMPDEST ISZERO PUSH2 0x33E3 JUMPI PUSH1 0x40 MLOAD PUSH32 0x8C379A000000000000000000000000000000000000000000000000000000000 DUP2 MSTORE PUSH1 0x4 ADD PUSH2 0x33DA SWAP1 PUSH2 0x4482 JUMP JUMPDEST PUSH1 0x40 MLOAD DUP1 SWAP2 SUB SWAP1 REVERT JUMPDEST PUSH2 0x33EF PUSH1 0x0 DUP4 DUP4 PUSH2 0x307A JUMP JUMPDEST PUSH1 0x1 PUSH1 0x3 PUSH1 0x0 DUP5 PUSH20 0xFFFFFFFFFFFFFFFFFFFFFFFFFFFFFFFFFFFFFFFF AND PUSH20 0xFFFFFFFFFFFFFFFFFFFFFFFFFFFFFFFFFFFFFFFF AND DUP2 MSTORE PUSH1 0x20 ADD SWAP1 DUP2 MSTORE PUSH1 0x20 ADD PUSH1 0x0 KECCAK256 PUSH1 0x0 DUP3 DUP3 SLOAD PUSH2 0x343F SWAP2 SWAP1 PUSH2 0x482C JUMP JUMPDEST SWAP3 POP POP DUP2 SWAP1 SSTORE POP DUP2 PUSH1 0x2 PUSH1 0x0 DUP4 DUP2 MSTORE PUSH1 0x20 ADD SWAP1 DUP2 MSTORE PUSH1 0x20 ADD PUSH1 0x0 KECCAK256 PUSH1 0x0 PUSH2 0x100 EXP DUP2 SLOAD DUP2 PUSH20 0xFFFFFFFFFFFFFFFFFFFFFFFFFFFFFFFFFFFFFFFF MUL NOT AND SWAP1 DUP4 PUSH20 0xFFFFFFFFFFFFFFFFFFFFFFFFFFFFFFFFFFFFFFFF AND MUL OR SWAP1 SSTORE POP DUP1 DUP3 PUSH20 0xFFFFFFFFFFFFFFFFFFFFFFFFFFFFFFFFFFFFFFFF AND PUSH1 0x0 PUSH20 0xFFFFFFFFFFFFFFFFFFFFFFFFFFFFFFFFFFFFFFFF AND PUSH32 0xDDF252AD1BE2C89B69C2B068FC378DAA952BA7F163C4A11628F55A4DF523B3EF PUSH1 0x40 MLOAD PUSH1 0x40 MLOAD DUP1 SWAP2 SUB SWAP1 LOG4 PUSH2 0x3500 PUSH1 0x0 DUP4 DUP4 PUSH2 0x318E JUMP JUMPDEST POP POP JUMP JUMPDEST POP POP POP JUMP JUMPDEST PUSH1 0x8 DUP1 SLOAD SWAP1 POP PUSH1 0x9 PUSH1 0x0 DUP4 DUP2 MSTORE PUSH1 0x20 ADD SWAP1 DUP2 MSTORE PUSH1 0x20 ADD PUSH1 0x0 KECCAK256 DUP2 SWAP1 SSTORE POP PUSH1 0x8 DUP2 SWAP1 DUP1 PUSH1 0x1 DUP2 SLOAD ADD DUP1 DUP3 SSTORE DUP1 SWAP2 POP POP PUSH1 0x1 SWAP1 SUB SWAP1 PUSH1 0x0 MSTORE PUSH1 0x20 PUSH1 0x0 KECCAK256 ADD PUSH1 0x0 SWAP1 SWAP2 SWAP1 SWAP2 SWAP1 SWAP2 POP SSTORE POP JUMP JUMPDEST PUSH1 0x0 PUSH1 0x1 PUSH2 0x355F DUP5 PUSH2 0x18C0 JUMP JUMPDEST PUSH2 0x3569 SWAP2 SWAP1 PUSH2 0x490D JUMP JUMPDEST SWAP1 POP PUSH1 0x0 PUSH1 0x7 PUSH1 0x0 DUP5 DUP2 MSTORE PUSH1 0x20 ADD SWAP1 DUP2 MSTORE PUSH1 0x20 ADD PUSH1 0x0 KECCAK256 SLOAD SWAP1 POP DUP2 DUP2 EQ PUSH2 0x364E JUMPI PUSH1 0x0 PUSH1 0x6 PUSH1 0x0 DUP7 PUSH20 0xFFFFFFFFFFFFFFFFFFFFFFFFFFFFFFFFFFFFFFFF AND PUSH20 0xFFFFFFFFFFFFFFFFFFFFFFFFFFFFFFFFFFFFFFFF AND DUP2 MSTORE PUSH1 0x20 ADD SWAP1 DUP2 MSTORE PUSH1 0x20 ADD PUSH1 0x0 KECCAK256 PUSH1 0x0 DUP5 DUP2 MSTORE PUSH1 0x20 ADD SWAP1 DUP2 MSTORE PUSH1 0x20 ADD PUSH1 0x0 KECCAK256 SLOAD SWAP1 POP DUP1 PUSH1 0x6 PUSH1 0x0 DUP8 PUSH20 0xFFFFFFFFFFFFFFFFFFFFFFFFFFFFFFFFFFFFFFFF AND PUSH20 0xFFFFFFFFFFFFFFFFFFFFFFFFFFFFFFFFFFFFFFFF AND DUP2 MSTORE PUSH1 0x20 ADD SWAP1 DUP2 MSTORE PUSH1 0x20 ADD PUSH1 0x0 KECCAK256 PUSH1 0x0 DUP5 DUP2 MSTORE PUSH1 0x20 ADD SWAP1 DUP2 MSTORE PUSH1 0x20 ADD PUSH1 0x0 KECCAK256 DUP2 SWAP1 SSTORE POP DUP2 PUSH1 0x7 PUSH1 0x0 DUP4 DUP2 MSTORE PUSH1 0x20 ADD SWAP1 DUP2 MSTORE PUSH1 0x20 ADD PUSH1 0x0 KECCAK256 DUP2 SWAP1 SSTORE POP POP JUMPDEST PUSH1 0x7 PUSH1 0x0 DUP5 DUP2 MSTORE PUSH1 0x20 ADD SWAP1 DUP2 MSTORE PUSH1 0x20 ADD PUSH1 0x0 KECCAK256 PUSH1 0x0 SWAP1 SSTORE PUSH1 0x6 PUSH1 0x0 DUP6 PUSH20 0xFFFFFFFFFFFFFFFFFFFFFFFFFFFFFFFFFFFFFFFF AND PUSH20 0xFFFFFFFFFFFFFFFFFFFFFFFFFFFFFFFFFFFFFFFF AND DUP2 MSTORE PUSH1 0x20 ADD SWAP1 DUP2 MSTORE PUSH1 0x20 ADD PUSH1 0x0 KECCAK256 PUSH1 0x0 DUP4 DUP2 MSTORE PUSH1 0x20 ADD SWAP1 DUP2 MSTORE PUSH1 0x20 ADD PUSH1 0x0 KECCAK256 PUSH1 0x0 SWAP1 SSTORE POP POP POP POP JUMP JUMPDEST PUSH1 0x0 PUSH1 0x1 PUSH1 0x8 DUP1 SLOAD SWAP1 POP PUSH2 0x36D3 SWAP2 SWAP1 PUSH2 0x490D JUMP JUMPDEST SWAP1 POP PUSH1 0x0 PUSH1 0x9 PUSH1 0x0 DUP5 DUP2 MSTORE PUSH1 0x20 ADD SWAP1 DUP2 MSTORE PUSH1 0x20 ADD PUSH1 0x0 KECCAK256 SLOAD SWAP1 POP PUSH1 0x0 PUSH1 0x8 DUP4 DUP2 SLOAD DUP2 LT PUSH2 0x3729 JUMPI PUSH32 0x4E487B7100000000000000000000000000000000000000000000000000000000 PUSH1 0x0 MSTORE PUSH1 0x32 PUSH1 0x4 MSTORE PUSH1 0x24 PUSH1 0x0 REVERT JUMPDEST SWAP1 PUSH1 0x0 MSTORE PUSH1 0x20 PUSH1 0x0 KECCAK256 ADD SLOAD SWAP1 POP DUP1 PUSH1 0x8 DUP4 DUP2 SLOAD DUP2 LT PUSH2 0x3771 JUMPI PUSH32 0x4E487B7100000000000000000000000000000000000000000000000000000000 PUSH1 0x0 MSTORE PUSH1 0x32 PUSH1 0x4 MSTORE PUSH1 0x24 PUSH1 0x0 REVERT JUMPDEST SWAP1 PUSH1 0x0 MSTORE PUSH1 0x20 PUSH1 0x0 KECCAK256 ADD DUP2 SWAP1 SSTORE POP DUP2 PUSH1 0x9 PUSH1 0x0 DUP4 DUP2 MSTORE PUSH1 0x20 ADD SWAP1 DUP2 MSTORE PUSH1 0x20 ADD PUSH1 0x0 KECCAK256 DUP2 SWAP1 SSTORE POP PUSH1 0x9 PUSH1 0x0 DUP6 DUP2 MSTORE PUSH1 0x20 ADD SWAP1 DUP2 MSTORE PUSH1 0x20 ADD PUSH1 0x0 KECCAK256 PUSH1 0x0 SWAP1 SSTORE PUSH1 0x8 DUP1 SLOAD DUP1 PUSH2 0x37E6 JUMPI PUSH32 0x4E487B7100000000000000000000000000000000000000000000000000000000 PUSH1 0x0 MSTORE PUSH1 0x31 PUSH1 0x4 MSTORE PUSH1 0x24 PUSH1 0x0 REVERT JUMPDEST PUSH1 0x1 SWAP1 SUB DUP2 DUP2 SWAP1 PUSH1 0x0 MSTORE PUSH1 0x20 PUSH1 0x0 KECCAK256 ADD PUSH1 0x0 SWAP1 SSTORE SWAP1 SSTORE POP POP POP POP JUMP JUMPDEST PUSH1 0x0 PUSH2 0x380D DUP4 PUSH2 0x18C0 JUMP JUMPDEST SWAP1 POP DUP2 PUSH1 0x6 PUSH1 0x0 DUP6 PUSH20 0xFFFFFFFFFFFFFFFFFFFFFFFFFFFFFFFFFFFFFFFF AND PUSH20 0xFFFFFFFFFFFFFFFFFFFFFFFFFFFFFFFFFFFFFFFF AND DUP2 MSTORE PUSH1 0x20 ADD SWAP1 DUP2 MSTORE PUSH1 0x20 ADD PUSH1 0x0 KECCAK256 PUSH1 0x0 DUP4 DUP2 MSTORE PUSH1 0x20 ADD SWAP1 DUP2 MSTORE PUSH1 0x20 ADD PUSH1 0x0 KECCAK256 DUP2 SWAP1 SSTORE POP DUP1 PUSH1 0x7 PUSH1 0x0 DUP5 DUP2 MSTORE PUSH1 0x20 ADD SWAP1 DUP2 MSTORE PUSH1 0x20 ADD PUSH1 0x0 KECCAK256 DUP2 SWAP1 SSTORE POP POP POP POP JUMP JUMPDEST PUSH1 0x0 DUP1 DUP3 PUSH20 0xFFFFFFFFFFFFFFFFFFFFFFFFFFFFFFFFFFFFFFFF AND EXTCODESIZE GT SWAP1 POP SWAP2 SWAP1 POP JUMP JUMPDEST DUP3 DUP1 SLOAD PUSH2 0x38B0 SWAP1 PUSH2 0x49F7 JUMP JUMPDEST SWAP1 PUSH1 0x0 MSTORE PUSH1 0x20 PUSH1 0x0 KECCAK256 SWAP1 PUSH1 0x1F ADD PUSH1 0x20 SWAP1 DIV DUP2 ADD SWAP3 DUP3 PUSH2 0x38D2 JUMPI PUSH1 0x0 DUP6 SSTORE PUSH2 0x3919 JUMP JUMPDEST DUP3 PUSH1 0x1F LT PUSH2 0x38EB JUMPI DUP1 MLOAD PUSH1 0xFF NOT AND DUP4 DUP1 ADD OR DUP6 SSTORE PUSH2 0x3919 JUMP JUMPDEST DUP3 DUP1 ADD PUSH1 0x1 ADD DUP6 SSTORE DUP3 ISZERO PUSH2 0x3919 JUMPI SWAP2 DUP3 ADD JUMPDEST DUP3 DUP2 GT ISZERO PUSH2 0x3918 JUMPI DUP3 MLOAD DUP3 SSTORE SWAP2 PUSH1 0x20 ADD SWAP2 SWAP1 PUSH1 0x1 ADD SWAP1 PUSH2 0x38FD JUMP JUMPDEST JUMPDEST POP SWAP1 POP PUSH2 0x3926 SWAP2 SWAP1 PUSH2 0x392A JUMP JUMPDEST POP SWAP1 JUMP JUMPDEST JUMPDEST DUP1 DUP3 GT ISZERO PUSH2 0x3943 JUMPI PUSH1 0x0 DUP2 PUSH1 0x0 SWAP1 SSTORE POP PUSH1 0x1 ADD PUSH2 0x392B JUMP JUMPDEST POP SWAP1 JUMP JUMPDEST PUSH1 0x0 PUSH2 0x395A PUSH2 0x3955 DUP5 PUSH2 0x4702 JUMP JUMPDEST PUSH2 0x46DD JUMP JUMPDEST SWAP1 POP DUP1 DUP4 DUP3 MSTORE PUSH1 0x20 DUP3 ADD SWAP1 POP DUP3 DUP6 PUSH1 0x20 DUP7 MUL DUP3 ADD GT ISZERO PUSH2 0x3979 JUMPI PUSH1 0x0 DUP1 REVERT JUMPDEST PUSH1 0x0 JUMPDEST DUP6 DUP2 LT ISZERO PUSH2 0x39A9 JUMPI DUP2 PUSH2 0x398F DUP9 DUP3 PUSH2 0x3A2F JUMP JUMPDEST DUP5 MSTORE PUSH1 0x20 DUP5 ADD SWAP4 POP PUSH1 0x20 DUP4 ADD SWAP3 POP POP PUSH1 0x1 DUP2 ADD SWAP1 POP PUSH2 0x397C JUMP JUMPDEST POP POP POP SWAP4 SWAP3 POP POP POP JUMP JUMPDEST PUSH1 0x0 PUSH2 0x39C6 PUSH2 0x39C1 DUP5 PUSH2 0x472E JUMP JUMPDEST PUSH2 0x46DD JUMP JUMPDEST SWAP1 POP DUP3 DUP2 MSTORE PUSH1 0x20 DUP2 ADD DUP5 DUP5 DUP5 ADD GT ISZERO PUSH2 0x39DE JUMPI PUSH1 0x0 DUP1 REVERT JUMPDEST PUSH2 0x39E9 DUP5 DUP3 DUP6 PUSH2 0x49B5 JUMP JUMPDEST POP SWAP4 SWAP3 POP POP POP JUMP JUMPDEST PUSH1 0x0 PUSH2 0x3A04 PUSH2 0x39FF DUP5 PUSH2 0x475F JUMP JUMPDEST PUSH2 0x46DD JUMP JUMPDEST SWAP1 POP DUP3 DUP2 MSTORE PUSH1 0x20 DUP2 ADD DUP5 DUP5 DUP5 ADD GT ISZERO PUSH2 0x3A1C JUMPI PUSH1 0x0 DUP1 REVERT JUMPDEST PUSH2 0x3A27 DUP5 DUP3 DUP6 PUSH2 0x49B5 JUMP JUMPDEST POP SWAP4 SWAP3 POP POP POP JUMP JUMPDEST PUSH1 0x0 DUP2 CALLDATALOAD SWAP1 POP PUSH2 0x3A3E DUP2 PUSH2 0x51B3 JUMP JUMPDEST SWAP3 SWAP2 POP POP JUMP JUMPDEST PUSH1 0x0 DUP3 PUSH1 0x1F DUP4 ADD SLT PUSH2 0x3A55 JUMPI PUSH1 0x0 DUP1 REVERT JUMPDEST DUP2 CALLDATALOAD PUSH2 0x3A65 DUP5 DUP3 PUSH1 0x20 DUP7 ADD PUSH2 0x3947 JUMP JUMPDEST SWAP2 POP POP SWAP3 SWAP2 POP POP JUMP JUMPDEST PUSH1 0x0 DUP2 CALLDATALOAD SWAP1 POP PUSH2 0x3A7D DUP2 PUSH2 0x51CA JUMP JUMPDEST SWAP3 SWAP2 POP POP JUMP JUMPDEST PUSH1 0x0 DUP2 CALLDATALOAD SWAP1 POP PUSH2 0x3A92 DUP2 PUSH2 0x51E1 JUMP JUMPDEST SWAP3 SWAP2 POP POP JUMP JUMPDEST PUSH1 0x0 DUP2 MLOAD SWAP1 POP PUSH2 0x3AA7 DUP2 PUSH2 0x51E1 JUMP JUMPDEST SWAP3 SWAP2 POP POP JUMP JUMPDEST PUSH1 0x0 DUP3 PUSH1 0x1F DUP4 ADD SLT PUSH2 0x3ABE JUMPI PUSH1 0x0 DUP1 REVERT JUMPDEST DUP2 CALLDATALOAD PUSH2 0x3ACE DUP5 DUP3 PUSH1 0x20 DUP7 ADD PUSH2 0x39B3 JUMP JUMPDEST SWAP2 POP POP SWAP3 SWAP2 POP POP JUMP JUMPDEST PUSH1 0x0 DUP3 PUSH1 0x1F DUP4 ADD SLT PUSH2 0x3AE8 JUMPI PUSH1 0x0 DUP1 REVERT JUMPDEST DUP2 CALLDATALOAD PUSH2 0x3AF8 DUP5 DUP3 PUSH1 0x20 DUP7 ADD PUSH2 0x39F1 JUMP JUMPDEST SWAP2 POP POP SWAP3 SWAP2 POP POP JUMP JUMPDEST PUSH1 0x0 DUP2 CALLDATALOAD SWAP1 POP PUSH2 0x3B10 DUP2 PUSH2 0x51F8 JUMP JUMPDEST SWAP3 SWAP2 POP POP JUMP JUMPDEST PUSH1 0x0 PUSH1 0x20 DUP3 DUP5 SUB SLT ISZERO PUSH2 0x3B28 JUMPI PUSH1 0x0 DUP1 REVERT JUMPDEST PUSH1 0x0 PUSH2 0x3B36 DUP5 DUP3 DUP6 ADD PUSH2 0x3A2F JUMP JUMPDEST SWAP2 POP POP SWAP3 SWAP2 POP POP JUMP JUMPDEST PUSH1 0x0 DUP1 PUSH1 0x40 DUP4 DUP6 SUB SLT ISZERO PUSH2 0x3B52 JUMPI PUSH1 0x0 DUP1 REVERT JUMPDEST PUSH1 0x0 PUSH2 0x3B60 DUP6 DUP3 DUP7 ADD PUSH2 0x3A2F JUMP JUMPDEST SWAP3 POP POP PUSH1 0x20 PUSH2 0x3B71 DUP6 DUP3 DUP7 ADD PUSH2 0x3A2F JUMP JUMPDEST SWAP2 POP POP SWAP3 POP SWAP3 SWAP1 POP JUMP JUMPDEST PUSH1 0x0 DUP1 PUSH1 0x0 PUSH1 0x60 DUP5 DUP7 SUB SLT ISZERO PUSH2 0x3B90 JUMPI PUSH1 0x0 DUP1 REVERT JUMPDEST PUSH1 0x0 PUSH2 0x3B9E DUP7 DUP3 DUP8 ADD PUSH2 0x3A2F JUMP JUMPDEST SWAP4 POP POP PUSH1 0x20 PUSH2 0x3BAF DUP7 DUP3 DUP8 ADD PUSH2 0x3A2F JUMP JUMPDEST SWAP3 POP POP PUSH1 0x40 PUSH2 0x3BC0 DUP7 DUP3 DUP8 ADD PUSH2 0x3B01 JUMP JUMPDEST SWAP2 POP POP SWAP3 POP SWAP3 POP SWAP3 JUMP JUMPDEST PUSH1 0x0 DUP1 PUSH1 0x0 DUP1 PUSH1 0x80 DUP6 DUP8 SUB SLT ISZERO PUSH2 0x3BE0 JUMPI PUSH1 0x0 DUP1 REVERT JUMPDEST PUSH1 0x0 PUSH2 0x3BEE DUP8 DUP3 DUP9 ADD PUSH2 0x3A2F JUMP JUMPDEST SWAP5 POP POP PUSH1 0x20 PUSH2 0x3BFF DUP8 DUP3 DUP9 ADD PUSH2 0x3A2F JUMP JUMPDEST SWAP4 POP POP PUSH1 0x40 PUSH2 0x3C10 DUP8 DUP3 DUP9 ADD PUSH2 0x3B01 JUMP JUMPDEST SWAP3 POP POP PUSH1 0x60 DUP6 ADD CALLDATALOAD PUSH8 0xFFFFFFFFFFFFFFFF DUP2 GT ISZERO PUSH2 0x3C2D JUMPI PUSH1 0x0 DUP1 REVERT JUMPDEST PUSH2 0x3C39 DUP8 DUP3 DUP9 ADD PUSH2 0x3AAD JUMP JUMPDEST SWAP2 POP POP SWAP3 SWAP6 SWAP2 SWAP5 POP SWAP3 POP JUMP JUMPDEST PUSH1 0x0 DUP1 PUSH1 0x40 DUP4 DUP6 SUB SLT ISZERO PUSH2 0x3C58 JUMPI PUSH1 0x0 DUP1 REVERT JUMPDEST PUSH1 0x0 PUSH2 0x3C66 DUP6 DUP3 DUP7 ADD PUSH2 0x3A2F JUMP JUMPDEST SWAP3 POP POP PUSH1 0x20 PUSH2 0x3C77 DUP6 DUP3 DUP7 ADD PUSH2 0x3A6E JUMP JUMPDEST SWAP2 POP POP SWAP3 POP SWAP3 SWAP1 POP JUMP JUMPDEST PUSH1 0x0 DUP1 PUSH1 0x40 DUP4 DUP6 SUB SLT ISZERO PUSH2 0x3C94 JUMPI PUSH1 0x0 DUP1 REVERT JUMPDEST PUSH1 0x0 PUSH2 0x3CA2 DUP6 DUP3 DUP7 ADD PUSH2 0x3A2F JUMP JUMPDEST SWAP3 POP POP PUSH1 0x20 PUSH2 0x3CB3 DUP6 DUP3 DUP7 ADD PUSH2 0x3B01 JUMP JUMPDEST SWAP2 POP POP SWAP3 POP SWAP3 SWAP1 POP JUMP JUMPDEST PUSH1 0x0 PUSH1 0x20 DUP3 DUP5 SUB SLT ISZERO PUSH2 0x3CCF JUMPI PUSH1 0x0 DUP1 REVERT JUMPDEST PUSH1 0x0 DUP3 ADD CALLDATALOAD PUSH8 0xFFFFFFFFFFFFFFFF DUP2 GT ISZERO PUSH2 0x3CE9 JUMPI PUSH1 0x0 DUP1 REVERT JUMPDEST PUSH2 0x3CF5 DUP5 DUP3 DUP6 ADD PUSH2 0x3A44 JUMP JUMPDEST SWAP2 POP POP SWAP3 SWAP2 POP POP JUMP JUMPDEST PUSH1 0x0 PUSH1 0x20 DUP3 DUP5 SUB SLT ISZERO PUSH2 0x3D10 JUMPI PUSH1 0x0 DUP1 REVERT JUMPDEST PUSH1 0x0 PUSH2 0x3D1E DUP5 DUP3 DUP6 ADD PUSH2 0x3A83 JUMP JUMPDEST SWAP2 POP POP SWAP3 SWAP2 POP POP JUMP JUMPDEST PUSH1 0x0 PUSH1 0x20 DUP3 DUP5 SUB SLT ISZERO PUSH2 0x3D39 JUMPI PUSH1 0x0 DUP1 REVERT JUMPDEST PUSH1 0x0 PUSH2 0x3D47 DUP5 DUP3 DUP6 ADD PUSH2 0x3A98 JUMP JUMPDEST SWAP2 POP POP SWAP3 SWAP2 POP POP JUMP JUMPDEST PUSH1 0x0 PUSH1 0x20 DUP3 DUP5 SUB SLT ISZERO PUSH2 0x3D62 JUMPI PUSH1 0x0 DUP1 REVERT JUMPDEST PUSH1 0x0 DUP3 ADD CALLDATALOAD PUSH8 0xFFFFFFFFFFFFFFFF DUP2 GT ISZERO PUSH2 0x3D7C JUMPI PUSH1 0x0 DUP1 REVERT JUMPDEST PUSH2 0x3D88 DUP5 DUP3 DUP6 ADD PUSH2 0x3AD7 JUMP JUMPDEST SWAP2 POP POP SWAP3 SWAP2 POP POP JUMP JUMPDEST PUSH1 0x0 PUSH1 0x20 DUP3 DUP5 SUB SLT ISZERO PUSH2 0x3DA3 JUMPI PUSH1 0x0 DUP1 REVERT JUMPDEST PUSH1 0x0 PUSH2 0x3DB1 DUP5 DUP3 DUP6 ADD PUSH2 0x3B01 JUMP JUMPDEST SWAP2 POP POP SWAP3 SWAP2 POP POP JUMP JUMPDEST PUSH1 0x0 PUSH2 0x3DC6 DUP4 DUP4 PUSH2 0x42B8 JUMP JUMPDEST PUSH1 0x20 DUP4 ADD SWAP1 POP SWAP3 SWAP2 POP POP JUMP JUMPDEST PUSH2 0x3DDB DUP2 PUSH2 0x4941 JUMP JUMPDEST DUP3 MSTORE POP POP JUMP JUMPDEST PUSH1 0x0 PUSH2 0x3DEC DUP3 PUSH2 0x47B5 JUMP JUMPDEST PUSH2 0x3DF6 DUP2 DUP6 PUSH2 0x47E3 JUMP JUMPDEST SWAP4 POP PUSH2 0x3E01 DUP4 PUSH2 0x4790 JUMP JUMPDEST DUP1 PUSH1 0x0 JUMPDEST DUP4 DUP2 LT ISZERO PUSH2 0x3E32 JUMPI DUP2 MLOAD PUSH2 0x3E19 DUP9 DUP3 PUSH2 0x3DBA JUMP JUMPDEST SWAP8 POP PUSH2 0x3E24 DUP4 PUSH2 0x47D6 JUMP JUMPDEST SWAP3 POP POP PUSH1 0x1 DUP2 ADD SWAP1 POP PUSH2 0x3E05 JUMP JUMPDEST POP DUP6 SWAP4 POP POP POP POP SWAP3 SWAP2 POP POP JUMP JUMPDEST PUSH2 0x3E48 DUP2 PUSH2 0x4953 JUMP JUMPDEST DUP3 MSTORE POP POP JUMP JUMPDEST PUSH1 0x0 PUSH2 0x3E59 DUP3 PUSH2 0x47C0 JUMP JUMPDEST PUSH2 0x3E63 DUP2 DUP6 PUSH2 0x47F4 JUMP JUMPDEST SWAP4 POP PUSH2 0x3E73 DUP2 DUP6 PUSH1 0x20 DUP7 ADD PUSH2 0x49C4 JUMP JUMPDEST PUSH2 0x3E7C DUP2 PUSH2 0x4B90 JUMP JUMPDEST DUP5 ADD SWAP2 POP POP SWAP3 SWAP2 POP POP JUMP JUMPDEST PUSH1 0x0 PUSH2 0x3E92 DUP3 PUSH2 0x47CB JUMP JUMPDEST PUSH2 0x3E9C DUP2 DUP6 PUSH2 0x4810 JUMP JUMPDEST SWAP4 POP PUSH2 0x3EAC DUP2 DUP6 PUSH1 0x20 DUP7 ADD PUSH2 0x49C4 JUMP JUMPDEST PUSH2 0x3EB5 DUP2 PUSH2 0x4B90 JUMP JUMPDEST DUP5 ADD SWAP2 POP POP SWAP3 SWAP2 POP POP JUMP JUMPDEST PUSH1 0x0 PUSH2 0x3ECB DUP3 PUSH2 0x47CB JUMP JUMPDEST PUSH2 0x3ED5 DUP2 DUP6 PUSH2 0x4821 JUMP JUMPDEST SWAP4 POP PUSH2 0x3EE5 DUP2 DUP6 PUSH1 0x20 DUP7 ADD PUSH2 0x49C4 JUMP JUMPDEST DUP1 DUP5 ADD SWAP2 POP POP SWAP3 SWAP2 POP POP JUMP JUMPDEST PUSH1 0x0 DUP2 SLOAD PUSH2 0x3EFE DUP2 PUSH2 0x49F7 JUMP JUMPDEST PUSH2 0x3F08 DUP2 DUP7 PUSH2 0x4821 JUMP JUMPDEST SWAP5 POP PUSH1 0x1 DUP3 AND PUSH1 0x0 DUP2 EQ PUSH2 0x3F23 JUMPI PUSH1 0x1 DUP2 EQ PUSH2 0x3F34 JUMPI PUSH2 0x3F67 JUMP JUMPDEST PUSH1 0xFF NOT DUP4 AND DUP7 MSTORE DUP2 DUP7 ADD SWAP4 POP PUSH2 0x3F67 JUMP JUMPDEST PUSH2 0x3F3D DUP6 PUSH2 0x47A0 JUMP JUMPDEST PUSH1 0x0 JUMPDEST DUP4 DUP2 LT ISZERO PUSH2 0x3F5F JUMPI DUP2 SLOAD DUP2 DUP10 ADD MSTORE PUSH1 0x1 DUP3 ADD SWAP2 POP PUSH1 0x20 DUP2 ADD SWAP1 POP PUSH2 0x3F40 JUMP JUMPDEST DUP4 DUP9 ADD SWAP6 POP POP POP JUMPDEST POP POP POP SWAP3 SWAP2 POP POP JUMP JUMPDEST PUSH1 0x0 PUSH2 0x3F7D PUSH1 0x2B DUP4 PUSH2 0x4810 JUMP JUMPDEST SWAP2 POP PUSH2 0x3F88 DUP3 PUSH2 0x4BA1 JUMP JUMPDEST PUSH1 0x40 DUP3 ADD SWAP1 POP SWAP2 SWAP1 POP JUMP JUMPDEST PUSH1 0x0 PUSH2 0x3FA0 PUSH1 0x32 DUP4 PUSH2 0x4810 JUMP JUMPDEST SWAP2 POP PUSH2 0x3FAB DUP3 PUSH2 0x4BF0 JUMP JUMPDEST PUSH1 0x40 DUP3 ADD SWAP1 POP SWAP2 SWAP1 POP JUMP JUMPDEST PUSH1 0x0 PUSH2 0x3FC3 PUSH1 0x26 DUP4 PUSH2 0x4810 JUMP JUMPDEST SWAP2 POP PUSH2 0x3FCE DUP3 PUSH2 0x4C3F JUMP JUMPDEST PUSH1 0x40 DUP3 ADD SWAP1 POP SWAP2 SWAP1 POP JUMP JUMPDEST PUSH1 0x0 PUSH2 0x3FE6 PUSH1 0x15 DUP4 PUSH2 0x4810 JUMP JUMPDEST SWAP2 POP PUSH2 0x3FF1 DUP3 PUSH2 0x4C8E JUMP JUMPDEST PUSH1 0x20 DUP3 ADD SWAP1 POP SWAP2 SWAP1 POP JUMP JUMPDEST PUSH1 0x0 PUSH2 0x4009 PUSH1 0x25 DUP4 PUSH2 0x4810 JUMP JUMPDEST SWAP2 POP PUSH2 0x4014 DUP3 PUSH2 0x4CB7 JUMP JUMPDEST PUSH1 0x40 DUP3 ADD SWAP1 POP SWAP2 SWAP1 POP JUMP JUMPDEST PUSH1 0x0 PUSH2 0x402C PUSH1 0x1C DUP4 PUSH2 0x4810 JUMP JUMPDEST SWAP2 POP PUSH2 0x4037 DUP3 PUSH2 0x4D06 JUMP JUMPDEST PUSH1 0x20 DUP3 ADD SWAP1 POP SWAP2 SWAP1 POP JUMP JUMPDEST PUSH1 0x0 PUSH2 0x404F PUSH1 0x21 DUP4 PUSH2 0x4810 JUMP JUMPDEST SWAP2 POP PUSH2 0x405A DUP3 PUSH2 0x4D2F JUMP JUMPDEST PUSH1 0x40 DUP3 ADD SWAP1 POP SWAP2 SWAP1 POP JUMP JUMPDEST PUSH1 0x0 PUSH2 0x4072 PUSH1 0x24 DUP4 PUSH2 0x4810 JUMP JUMPDEST SWAP2 POP PUSH2 0x407D DUP3 PUSH2 0x4D7E JUMP JUMPDEST PUSH1 0x40 DUP3 ADD SWAP1 POP SWAP2 SWAP1 POP JUMP JUMPDEST PUSH1 0x0 PUSH2 0x4095 PUSH1 0x19 DUP4 PUSH2 0x4810 JUMP JUMPDEST SWAP2 POP PUSH2 0x40A0 DUP3 PUSH2 0x4DCD JUMP JUMPDEST PUSH1 0x20 DUP3 ADD SWAP1 POP SWAP2 SWAP1 POP JUMP JUMPDEST PUSH1 0x0 PUSH2 0x40B8 PUSH1 0x22 DUP4 PUSH2 0x4810 JUMP JUMPDEST SWAP2 POP PUSH2 0x40C3 DUP3 PUSH2 0x4DF6 JUMP JUMPDEST PUSH1 0x40 DUP3 ADD SWAP1 POP SWAP2 SWAP1 POP JUMP JUMPDEST PUSH1 0x0 PUSH2 0x40DB PUSH1 0x2C DUP4 PUSH2 0x4810 JUMP JUMPDEST SWAP2 POP PUSH2 0x40E6 DUP3 PUSH2 0x4E45 JUMP JUMPDEST PUSH1 0x40 DUP3 ADD SWAP1 POP SWAP2 SWAP1 POP JUMP JUMPDEST PUSH1 0x0 PUSH2 0x40FE PUSH1 0x38 DUP4 PUSH2 0x4810 JUMP JUMPDEST SWAP2 POP PUSH2 0x4109 DUP3 PUSH2 0x4E94 JUMP JUMPDEST PUSH1 0x40 DUP3 ADD SWAP1 POP SWAP2 SWAP1 POP JUMP JUMPDEST PUSH1 0x0 PUSH2 0x4121 PUSH1 0x2A DUP4 PUSH2 0x4810 JUMP JUMPDEST SWAP2 POP PUSH2 0x412C DUP3 PUSH2 0x4EE3 JUMP JUMPDEST PUSH1 0x40 DUP3 ADD SWAP1 POP SWAP2 SWAP1 POP JUMP JUMPDEST PUSH1 0x0 PUSH2 0x4144 PUSH1 0x29 DUP4 PUSH2 0x4810 JUMP JUMPDEST SWAP2 POP PUSH2 0x414F DUP3 PUSH2 0x4F32 JUMP JUMPDEST PUSH1 0x40 DUP3 ADD SWAP1 POP SWAP2 SWAP1 POP JUMP JUMPDEST PUSH1 0x0 PUSH2 0x4167 PUSH1 0x20 DUP4 PUSH2 0x4810 JUMP JUMPDEST SWAP2 POP PUSH2 0x4172 DUP3 PUSH2 0x4F81 JUMP JUMPDEST PUSH1 0x20 DUP3 ADD SWAP1 POP SWAP2 SWAP1 POP JUMP JUMPDEST PUSH1 0x0 PUSH2 0x418A PUSH1 0x20 DUP4 PUSH2 0x4810 JUMP JUMPDEST SWAP2 POP PUSH2 0x4195 DUP3 PUSH2 0x4FAA JUMP JUMPDEST PUSH1 0x20 DUP3 ADD SWAP1 POP SWAP2 SWAP1 POP JUMP JUMPDEST PUSH1 0x0 PUSH2 0x41AD PUSH1 0x2C DUP4 PUSH2 0x4810 JUMP JUMPDEST SWAP2 POP PUSH2 0x41B8 DUP3 PUSH2 0x4FD3 JUMP JUMPDEST PUSH1 0x40 DUP3 ADD SWAP1 POP SWAP2 SWAP1 POP JUMP JUMPDEST PUSH1 0x0 PUSH2 0x41D0 PUSH1 0x20 DUP4 PUSH2 0x4810 JUMP JUMPDEST SWAP2 POP PUSH2 0x41DB DUP3 PUSH2 0x5022 JUMP JUMPDEST PUSH1 0x20 DUP3 ADD SWAP1 POP SWAP2 SWAP1 POP JUMP JUMPDEST PUSH1 0x0 PUSH2 0x41F3 PUSH1 0x2F DUP4 PUSH2 0x4810 JUMP JUMPDEST SWAP2 POP PUSH2 0x41FE DUP3 PUSH2 0x504B JUMP JUMPDEST PUSH1 0x40 DUP3 ADD SWAP1 POP SWAP2 SWAP1 POP JUMP JUMPDEST PUSH1 0x0 PUSH2 0x4216 PUSH1 0x21 DUP4 PUSH2 0x4810 JUMP JUMPDEST SWAP2 POP PUSH2 0x4221 DUP3 PUSH2 0x509A JUMP JUMPDEST PUSH1 0x40 DUP3 ADD SWAP1 POP SWAP2 SWAP1 POP JUMP JUMPDEST PUSH1 0x0 PUSH2 0x4239 PUSH1 0x0 DUP4 PUSH2 0x4805 JUMP JUMPDEST SWAP2 POP PUSH2 0x4244 DUP3 PUSH2 0x50E9 JUMP JUMPDEST PUSH1 0x0 DUP3 ADD SWAP1 POP SWAP2 SWAP1 POP JUMP JUMPDEST PUSH1 0x0 PUSH2 0x425C PUSH1 0x31 DUP4 PUSH2 0x4810 JUMP JUMPDEST SWAP2 POP PUSH2 0x4267 DUP3 PUSH2 0x50EC JUMP JUMPDEST PUSH1 0x40 DUP3 ADD SWAP1 POP SWAP2 SWAP1 POP JUMP JUMPDEST PUSH1 0x0 PUSH2 0x427F PUSH1 0x2C DUP4 PUSH2 0x4810 JUMP JUMPDEST SWAP2 POP PUSH2 0x428A DUP3 PUSH2 0x513B JUMP JUMPDEST PUSH1 0x40 DUP3 ADD SWAP1 POP SWAP2 SWAP1 POP JUMP JUMPDEST PUSH1 0x0 PUSH2 0x42A2 PUSH1 0x15 DUP4 PUSH2 0x4810 JUMP JUMPDEST SWAP2 POP PUSH2 0x42AD DUP3 PUSH2 0x518A JUMP JUMPDEST PUSH1 0x20 DUP3 ADD SWAP1 POP SWAP2 SWAP1 POP JUMP JUMPDEST PUSH2 0x42C1 DUP2 PUSH2 0x49AB JUMP JUMPDEST DUP3 MSTORE POP POP JUMP JUMPDEST PUSH2 0x42D0 DUP2 PUSH2 0x49AB JUMP JUMPDEST DUP3 MSTORE POP POP JUMP JUMPDEST PUSH1 0x0 PUSH2 0x42E2 DUP3 DUP7 PUSH2 0x3EC0 JUMP JUMPDEST SWAP2 POP PUSH2 0x42EE DUP3 DUP6 PUSH2 0x3EC0 JUMP JUMPDEST SWAP2 POP PUSH2 0x42FA DUP3 DUP5 PUSH2 0x3EF1 JUMP JUMPDEST SWAP2 POP DUP2 SWAP1 POP SWAP5 SWAP4 POP POP POP POP JUMP JUMPDEST PUSH1 0x0 PUSH2 0x4312 DUP3 PUSH2 0x422C JUMP JUMPDEST SWAP2 POP DUP2 SWAP1 POP SWAP2 SWAP1 POP JUMP JUMPDEST PUSH1 0x0 PUSH1 0x20 DUP3 ADD SWAP1 POP PUSH2 0x4331 PUSH1 0x0 DUP4 ADD DUP5 PUSH2 0x3DD2 JUMP JUMPDEST SWAP3 SWAP2 POP POP JUMP JUMPDEST PUSH1 0x0 PUSH1 0x80 DUP3 ADD SWAP1 POP PUSH2 0x434C PUSH1 0x0 DUP4 ADD DUP8 PUSH2 0x3DD2 JUMP JUMPDEST PUSH2 0x4359 PUSH1 0x20 DUP4 ADD DUP7 PUSH2 0x3DD2 JUMP JUMPDEST PUSH2 0x4366 PUSH1 0x40 DUP4 ADD DUP6 PUSH2 0x42C7 JUMP JUMPDEST DUP2 DUP2 SUB PUSH1 0x60 DUP4 ADD MSTORE PUSH2 0x4378 DUP2 DUP5 PUSH2 0x3E4E JUMP JUMPDEST SWAP1 POP SWAP6 SWAP5 POP POP POP POP POP JUMP JUMPDEST PUSH1 0x0 PUSH1 0x20 DUP3 ADD SWAP1 POP DUP2 DUP2 SUB PUSH1 0x0 DUP4 ADD MSTORE PUSH2 0x439D DUP2 DUP5 PUSH2 0x3DE1 JUMP JUMPDEST SWAP1 POP SWAP3 SWAP2 POP POP JUMP JUMPDEST PUSH1 0x0 PUSH1 0x20 DUP3 ADD SWAP1 POP PUSH2 0x43BA PUSH1 0x0 DUP4 ADD DUP5 PUSH2 0x3E3F JUMP JUMPDEST SWAP3 SWAP2 POP POP JUMP JUMPDEST PUSH1 0x0 PUSH1 0x20 DUP3 ADD SWAP1 POP DUP2 DUP2 SUB PUSH1 0x0 DUP4 ADD MSTORE PUSH2 0x43DA DUP2 DUP5 PUSH2 0x3E87 JUMP JUMPDEST SWAP1 POP SWAP3 SWAP2 POP POP JUMP JUMPDEST PUSH1 0x0 PUSH1 0x20 DUP3 ADD SWAP1 POP DUP2 DUP2 SUB PUSH1 0x0 DUP4 ADD MSTORE PUSH2 0x43FB DUP2 PUSH2 0x3F70 JUMP JUMPDEST SWAP1 POP SWAP2 SWAP1 POP JUMP JUMPDEST PUSH1 0x0 PUSH1 0x20 DUP3 ADD SWAP1 POP DUP2 DUP2 SUB PUSH1 0x0 DUP4 ADD MSTORE PUSH2 0x441B DUP2 PUSH2 0x3F93 JUMP JUMPDEST SWAP1 POP SWAP2 SWAP1 POP JUMP JUMPDEST PUSH1 0x0 PUSH1 0x20 DUP3 ADD SWAP1 POP DUP2 DUP2 SUB PUSH1 0x0 DUP4 ADD MSTORE PUSH2 0x443B DUP2 PUSH2 0x3FB6 JUMP JUMPDEST SWAP1 POP SWAP2 SWAP1 POP JUMP JUMPDEST PUSH1 0x0 PUSH1 0x20 DUP3 ADD SWAP1 POP DUP2 DUP2 SUB PUSH1 0x0 DUP4 ADD MSTORE PUSH2 0x445B DUP2 PUSH2 0x3FD9 JUMP JUMPDEST SWAP1 POP SWAP2 SWAP1 POP JUMP JUMPDEST PUSH1 0x0 PUSH1 0x20 DUP3 ADD SWAP1 POP DUP2 DUP2 SUB PUSH1 0x0 DUP4 ADD MSTORE PUSH2 0x447B DUP2 PUSH2 0x3FFC JUMP JUMPDEST SWAP1 POP SWAP2 SWAP1 POP JUMP JUMPDEST PUSH1 0x0 PUSH1 0x20 DUP3 ADD SWAP1 POP DUP2 DUP2 SUB PUSH1 0x0 DUP4 ADD MSTORE PUSH2 0x449B DUP2 PUSH2 0x401F JUMP JUMPDEST SWAP1 POP SWAP2 SWAP1 POP JUMP JUMPDEST PUSH1 0x0 PUSH1 0x20 DUP3 ADD SWAP1 POP DUP2 DUP2 SUB PUSH1 0x0 DUP4 ADD MSTORE PUSH2 0x44BB DUP2 PUSH2 0x4042 JUMP JUMPDEST SWAP1 POP SWAP2 SWAP1 POP JUMP JUMPDEST PUSH1 0x0 PUSH1 0x20 DUP3 ADD SWAP1 POP DUP2 DUP2 SUB PUSH1 0x0 DUP4 ADD MSTORE PUSH2 0x44DB DUP2 PUSH2 0x4065 JUMP JUMPDEST SWAP1 POP SWAP2 SWAP1 POP JUMP JUMPDEST PUSH1 0x0 PUSH1 0x20 DUP3 ADD SWAP1 POP DUP2 DUP2 SUB PUSH1 0x0 DUP4 ADD MSTORE PUSH2 0x44FB DUP2 PUSH2 0x4088 JUMP JUMPDEST SWAP1 POP SWAP2 SWAP1 POP JUMP JUMPDEST PUSH1 0x0 PUSH1 0x20 DUP3 ADD SWAP1 POP DUP2 DUP2 SUB PUSH1 0x0 DUP4 ADD MSTORE PUSH2 0x451B DUP2 PUSH2 0x40AB JUMP JUMPDEST SWAP1 POP SWAP2 SWAP1 POP JUMP JUMPDEST PUSH1 0x0 PUSH1 0x20 DUP3 ADD SWAP1 POP DUP2 DUP2 SUB PUSH1 0x0 DUP4 ADD MSTORE PUSH2 0x453B DUP2 PUSH2 0x40CE JUMP JUMPDEST SWAP1 POP SWAP2 SWAP1 POP JUMP JUMPDEST PUSH1 0x0 PUSH1 0x20 DUP3 ADD SWAP1 POP DUP2 DUP2 SUB PUSH1 0x0 DUP4 ADD MSTORE PUSH2 0x455B DUP2 PUSH2 0x40F1 JUMP JUMPDEST SWAP1 POP SWAP2 SWAP1 POP JUMP JUMPDEST PUSH1 0x0 PUSH1 0x20 DUP3 ADD SWAP1 POP DUP2 DUP2 SUB PUSH1 0x0 DUP4 ADD MSTORE PUSH2 0x457B DUP2 PUSH2 0x4114 JUMP JUMPDEST SWAP1 POP SWAP2 SWAP1 POP JUMP JUMPDEST PUSH1 0x0 PUSH1 0x20 DUP3 ADD SWAP1 POP DUP2 DUP2 SUB PUSH1 0x0 DUP4 ADD MSTORE PUSH2 0x459B DUP2 PUSH2 0x4137 JUMP JUMPDEST SWAP1 POP SWAP2 SWAP1 POP JUMP JUMPDEST PUSH1 0x0 PUSH1 0x20 DUP3 ADD SWAP1 POP DUP2 DUP2 SUB PUSH1 0x0 DUP4 ADD MSTORE PUSH2 0x45BB DUP2 PUSH2 0x415A JUMP JUMPDEST SWAP1 POP SWAP2 SWAP1 POP JUMP JUMPDEST PUSH1 0x0 PUSH1 0x20 DUP3 ADD SWAP1 POP DUP2 DUP2 SUB PUSH1 0x0 DUP4 ADD MSTORE PUSH2 0x45DB DUP2 PUSH2 0x417D JUMP JUMPDEST SWAP1 POP SWAP2 SWAP1 POP JUMP JUMPDEST PUSH1 0x0 PUSH1 0x20 DUP3 ADD SWAP1 POP DUP2 DUP2 SUB PUSH1 0x0 DUP4 ADD MSTORE PUSH2 0x45FB DUP2 PUSH2 0x41A0 JUMP JUMPDEST SWAP1 POP SWAP2 SWAP1 POP JUMP JUMPDEST PUSH1 0x0 PUSH1 0x20 DUP3 ADD SWAP1 POP DUP2 DUP2 SUB PUSH1 0x0 DUP4 ADD MSTORE PUSH2 0x461B DUP2 PUSH2 0x41C3 JUMP JUMPDEST SWAP1 POP SWAP2 SWAP1 POP JUMP JUMPDEST PUSH1 0x0 PUSH1 0x20 DUP3 ADD SWAP1 POP DUP2 DUP2 SUB PUSH1 0x0 DUP4 ADD MSTORE PUSH2 0x463B DUP2 PUSH2 0x41E6 JUMP JUMPDEST SWAP1 POP SWAP2 SWAP1 POP JUMP JUMPDEST PUSH1 0x0 PUSH1 0x20 DUP3 ADD SWAP1 POP DUP2 DUP2 SUB PUSH1 0x0 DUP4 ADD MSTORE PUSH2 0x465B DUP2 PUSH2 0x4209 JUMP JUMPDEST SWAP1 POP SWAP2 SWAP1 POP JUMP JUMPDEST PUSH1 0x0 PUSH1 0x20 DUP3 ADD SWAP1 POP DUP2 DUP2 SUB PUSH1 0x0 DUP4 ADD MSTORE PUSH2 0x467B DUP2 PUSH2 0x424F JUMP JUMPDEST SWAP1 POP SWAP2 SWAP1 POP JUMP JUMPDEST PUSH1 0x0 PUSH1 0x20 DUP3 ADD SWAP1 POP DUP2 DUP2 SUB PUSH1 0x0 DUP4 ADD MSTORE PUSH2 0x469B DUP2 PUSH2 0x4272 JUMP JUMPDEST SWAP1 POP SWAP2 SWAP1 POP JUMP JUMPDEST PUSH1 0x0 PUSH1 0x20 DUP3 ADD SWAP1 POP DUP2 DUP2 SUB PUSH1 0x0 DUP4 ADD MSTORE PUSH2 0x46BB DUP2 PUSH2 0x4295 JUMP JUMPDEST SWAP1 POP SWAP2 SWAP1 POP JUMP JUMPDEST PUSH1 0x0 PUSH1 0x20 DUP3 ADD SWAP1 POP PUSH2 0x46D7 PUSH1 0x0 DUP4 ADD DUP5 PUSH2 0x42C7 JUMP JUMPDEST SWAP3 SWAP2 POP POP JUMP JUMPDEST PUSH1 0x0 PUSH2 0x46E7 PUSH2 0x46F8 JUMP JUMPDEST SWAP1 POP PUSH2 0x46F3 DUP3 DUP3 PUSH2 0x4A29 JUMP JUMPDEST SWAP2 SWAP1 POP JUMP JUMPDEST PUSH1 0x0 PUSH1 0x40 MLOAD SWAP1 POP SWAP1 JUMP JUMPDEST PUSH1 0x0 PUSH8 0xFFFFFFFFFFFFFFFF DUP3 GT ISZERO PUSH2 0x471D JUMPI PUSH2 0x471C PUSH2 0x4B61 JUMP JUMPDEST JUMPDEST PUSH1 0x20 DUP3 MUL SWAP1 POP PUSH1 0x20 DUP2 ADD SWAP1 POP SWAP2 SWAP1 POP JUMP JUMPDEST PUSH1 0x0 PUSH8 0xFFFFFFFFFFFFFFFF DUP3 GT ISZERO PUSH2 0x4749 JUMPI PUSH2 0x4748 PUSH2 0x4B61 JUMP JUMPDEST JUMPDEST PUSH2 0x4752 DUP3 PUSH2 0x4B90 JUMP JUMPDEST SWAP1 POP PUSH1 0x20 DUP2 ADD SWAP1 POP SWAP2 SWAP1 POP JUMP JUMPDEST PUSH1 0x0 PUSH8 0xFFFFFFFFFFFFFFFF DUP3 GT ISZERO PUSH2 0x477A JUMPI PUSH2 0x4779 PUSH2 0x4B61 JUMP JUMPDEST JUMPDEST PUSH2 0x4783 DUP3 PUSH2 0x4B90 JUMP JUMPDEST SWAP1 POP PUSH1 0x20 DUP2 ADD SWAP1 POP SWAP2 SWAP1 POP JUMP JUMPDEST PUSH1 0x0 DUP2 SWAP1 POP PUSH1 0x20 DUP3 ADD SWAP1 POP SWAP2 SWAP1 POP JUMP JUMPDEST PUSH1 0x0 DUP2 SWAP1 POP DUP2 PUSH1 0x0 MSTORE PUSH1 0x20 PUSH1 0x0 KECCAK256 SWAP1 POP SWAP2 SWAP1 POP JUMP JUMPDEST PUSH1 0x0 DUP2 MLOAD SWAP1 POP SWAP2 SWAP1 POP JUMP JUMPDEST PUSH1 0x0 DUP2 MLOAD SWAP1 POP SWAP2 SWAP1 POP JUMP JUMPDEST PUSH1 0x0 DUP2 MLOAD SWAP1 POP SWAP2 SWAP1 POP JUMP JUMPDEST PUSH1 0x0 PUSH1 0x20 DUP3 ADD SWAP1 POP SWAP2 SWAP1 POP JUMP JUMPDEST PUSH1 0x0 DUP3 DUP3 MSTORE PUSH1 0x20 DUP3 ADD SWAP1 POP SWAP3 SWAP2 POP POP JUMP JUMPDEST PUSH1 0x0 DUP3 DUP3 MSTORE PUSH1 0x20 DUP3 ADD SWAP1 POP SWAP3 SWAP2 POP POP JUMP JUMPDEST PUSH1 0x0 DUP2 SWAP1 POP SWAP3 SWAP2 POP POP JUMP JUMPDEST PUSH1 0x0 DUP3 DUP3 MSTORE PUSH1 0x20 DUP3 ADD SWAP1 POP SWAP3 SWAP2 POP POP JUMP JUMPDEST PUSH1 0x0 DUP2 SWAP1 POP SWAP3 SWAP2 POP POP JUMP JUMPDEST PUSH1 0x0 PUSH2 0x4837 DUP3 PUSH2 0x49AB JUMP JUMPDEST SWAP2 POP PUSH2 0x4842 DUP4 PUSH2 0x49AB JUMP JUMPDEST SWAP3 POP DUP3 PUSH32 0xFFFFFFFFFFFFFFFFFFFFFFFFFFFFFFFFFFFFFFFFFFFFFFFFFFFFFFFFFFFFFFFF SUB DUP3 GT ISZERO PUSH2 0x4877 JUMPI PUSH2 0x4876 PUSH2 0x4AD4 JUMP JUMPDEST JUMPDEST DUP3 DUP3 ADD SWAP1 POP SWAP3 SWAP2 POP POP JUMP JUMPDEST PUSH1 0x0 PUSH2 0x488D DUP3 PUSH2 0x49AB JUMP JUMPDEST SWAP2 POP PUSH2 0x4898 DUP4 PUSH2 0x49AB JUMP JUMPDEST SWAP3 POP DUP3 PUSH2 0x48A8 JUMPI PUSH2 0x48A7 PUSH2 0x4B03 JUMP JUMPDEST JUMPDEST DUP3 DUP3 DIV SWAP1 POP SWAP3 SWAP2 POP POP JUMP JUMPDEST PUSH1 0x0 PUSH2 0x48BE DUP3 PUSH2 0x49AB JUMP JUMPDEST SWAP2 POP PUSH2 0x48C9 DUP4 PUSH2 0x49AB JUMP JUMPDEST SWAP3 POP DUP2 PUSH32 0xFFFFFFFFFFFFFFFFFFFFFFFFFFFFFFFFFFFFFFFFFFFFFFFFFFFFFFFFFFFFFFFF DIV DUP4 GT DUP3 ISZERO ISZERO AND ISZERO PUSH2 0x4902 JUMPI PUSH2 0x4901 PUSH2 0x4AD4 JUMP JUMPDEST JUMPDEST DUP3 DUP3 MUL SWAP1 POP SWAP3 SWAP2 POP POP JUMP JUMPDEST PUSH1 0x0 PUSH2 0x4918 DUP3 PUSH2 0x49AB JUMP JUMPDEST SWAP2 POP PUSH2 0x4923 DUP4 PUSH2 0x49AB JUMP JUMPDEST SWAP3 POP DUP3 DUP3 LT ISZERO PUSH2 0x4936 JUMPI PUSH2 0x4935 PUSH2 0x4AD4 JUMP JUMPDEST JUMPDEST DUP3 DUP3 SUB SWAP1 POP SWAP3 SWAP2 POP POP JUMP JUMPDEST PUSH1 0x0 PUSH2 0x494C DUP3 PUSH2 0x498B JUMP JUMPDEST SWAP1 POP SWAP2 SWAP1 POP JUMP JUMPDEST PUSH1 0x0 DUP2 ISZERO ISZERO SWAP1 POP SWAP2 SWAP1 POP JUMP JUMPDEST PUSH1 0x0 PUSH32 0xFFFFFFFF00000000000000000000000000000000000000000000000000000000 DUP3 AND SWAP1 POP SWAP2 SWAP1 POP JUMP JUMPDEST PUSH1 0x0 PUSH20 0xFFFFFFFFFFFFFFFFFFFFFFFFFFFFFFFFFFFFFFFF DUP3 AND SWAP1 POP SWAP2 SWAP1 POP JUMP JUMPDEST PUSH1 0x0 DUP2 SWAP1 POP SWAP2 SWAP1 POP JUMP JUMPDEST DUP3 DUP2 DUP4 CALLDATACOPY PUSH1 0x0 DUP4 DUP4 ADD MSTORE POP POP POP JUMP JUMPDEST PUSH1 0x0 JUMPDEST DUP4 DUP2 LT ISZERO PUSH2 0x49E2 JUMPI DUP1 DUP3 ADD MLOAD DUP2 DUP5 ADD MSTORE PUSH1 0x20 DUP2 ADD SWAP1 POP PUSH2 0x49C7 JUMP JUMPDEST DUP4 DUP2 GT ISZERO PUSH2 0x49F1 JUMPI PUSH1 0x0 DUP5 DUP5 ADD MSTORE JUMPDEST POP POP POP POP JUMP JUMPDEST PUSH1 0x0 PUSH1 0x2 DUP3 DIV SWAP1 POP PUSH1 0x1 DUP3 AND DUP1 PUSH2 0x4A0F JUMPI PUSH1 0x7F DUP3 AND SWAP2 POP JUMPDEST PUSH1 0x20 DUP3 LT DUP2 EQ ISZERO PUSH2 0x4A23 JUMPI PUSH2 0x4A22 PUSH2 0x4B32 JUMP JUMPDEST JUMPDEST POP SWAP2 SWAP1 POP JUMP JUMPDEST PUSH2 0x4A32 DUP3 PUSH2 0x4B90 JUMP JUMPDEST DUP2 ADD DUP2 DUP2 LT PUSH8 0xFFFFFFFFFFFFFFFF DUP3 GT OR ISZERO PUSH2 0x4A51 JUMPI PUSH2 0x4A50 PUSH2 0x4B61 JUMP JUMPDEST JUMPDEST DUP1 PUSH1 0x40 MSTORE POP POP POP JUMP JUMPDEST PUSH1 0x0 PUSH2 0x4A65 DUP3 PUSH2 0x49AB JUMP JUMPDEST SWAP2 POP PUSH32 0xFFFFFFFFFFFFFFFFFFFFFFFFFFFFFFFFFFFFFFFFFFFFFFFFFFFFFFFFFFFFFFFF DUP3 EQ ISZERO PUSH2 0x4A98 JUMPI PUSH2 0x4A97 PUSH2 0x4AD4 JUMP JUMPDEST JUMPDEST PUSH1 0x1 DUP3 ADD SWAP1 POP SWAP2 SWAP1 POP JUMP JUMPDEST PUSH1 0x0 PUSH2 0x4AAE DUP3 PUSH2 0x49AB JUMP JUMPDEST SWAP2 POP PUSH2 0x4AB9 DUP4 PUSH2 0x49AB JUMP JUMPDEST SWAP3 POP DUP3 PUSH2 0x4AC9 JUMPI PUSH2 0x4AC8 PUSH2 0x4B03 JUMP JUMPDEST JUMPDEST DUP3 DUP3 MOD SWAP1 POP SWAP3 SWAP2 POP POP JUMP JUMPDEST PUSH32 0x4E487B7100000000000000000000000000000000000000000000000000000000 PUSH1 0x0 MSTORE PUSH1 0x11 PUSH1 0x4 MSTORE PUSH1 0x24 PUSH1 0x0 REVERT JUMPDEST PUSH32 0x4E487B7100000000000000000000000000000000000000000000000000000000 PUSH1 0x0 MSTORE PUSH1 0x12 PUSH1 0x4 MSTORE PUSH1 0x24 PUSH1 0x0 REVERT JUMPDEST PUSH32 0x4E487B7100000000000000000000000000000000000000000000000000000000 PUSH1 0x0 MSTORE PUSH1 0x22 PUSH1 0x4 MSTORE PUSH1 0x24 PUSH1 0x0 REVERT JUMPDEST PUSH32 0x4E487B7100000000000000000000000000000000000000000000000000000000 PUSH1 0x0 MSTORE PUSH1 0x41 PUSH1 0x4 MSTORE PUSH1 0x24 PUSH1 0x0 REVERT JUMPDEST PUSH1 0x0 PUSH1 0x1F NOT PUSH1 0x1F DUP4 ADD AND SWAP1 POP SWAP2 SWAP1 POP JUMP JUMPDEST PUSH32 0x455243373231456E756D657261626C653A206F776E657220696E646578206F75 PUSH1 0x0 DUP3 ADD MSTORE PUSH32 0x74206F6620626F756E6473000000000000000000000000000000000000000000 PUSH1 0x20 DUP3 ADD MSTORE POP JUMP JUMPDEST PUSH32 0x4552433732313A207472616E7366657220746F206E6F6E204552433732315265 PUSH1 0x0 DUP3 ADD MSTORE PUSH32 0x63656976657220696D706C656D656E7465720000000000000000000000000000 PUSH1 0x20 DUP3 ADD MSTORE POP JUMP JUMPDEST PUSH32 0x4F776E61626C653A206E6577206F776E657220697320746865207A65726F2061 PUSH1 0x0 DUP3 ADD MSTORE PUSH32 0x6464726573730000000000000000000000000000000000000000000000000000 PUSH1 0x20 DUP3 ADD MSTORE POP JUMP JUMPDEST PUSH32 0x42616C616E63652065786365656473206C696D69740000000000000000000000 PUSH1 0x0 DUP3 ADD MSTORE POP JUMP JUMPDEST PUSH32 0x4552433732313A207472616E736665722066726F6D20696E636F727265637420 PUSH1 0x0 DUP3 ADD MSTORE PUSH32 0x6F776E6572000000000000000000000000000000000000000000000000000000 PUSH1 0x20 DUP3 ADD MSTORE POP JUMP JUMPDEST PUSH32 0x4552433732313A20746F6B656E20616C7265616479206D696E74656400000000 PUSH1 0x0 DUP3 ADD MSTORE POP JUMP JUMPDEST PUSH32 0x53616C65206D7573742062652061637469766520746F206D696E7420546F6B65 PUSH1 0x0 DUP3 ADD MSTORE PUSH32 0x6E00000000000000000000000000000000000000000000000000000000000000 PUSH1 0x20 DUP3 ADD MSTORE POP JUMP JUMPDEST PUSH32 0x4552433732313A207472616E7366657220746F20746865207A65726F20616464 PUSH1 0x0 DUP3 ADD MSTORE PUSH32 0x7265737300000000000000000000000000000000000000000000000000000000 PUSH1 0x20 DUP3 ADD MSTORE POP JUMP JUMPDEST PUSH32 0x4552433732313A20617070726F766520746F2063616C6C657200000000000000 PUSH1 0x0 DUP3 ADD MSTORE POP JUMP JUMPDEST PUSH32 0x43616E206F6E6C79206D696E742074776F20746F6B656E732061742061207469 PUSH1 0x0 DUP3 ADD MSTORE PUSH32 0x6D65000000000000000000000000000000000000000000000000000000000000 PUSH1 0x20 DUP3 ADD MSTORE POP JUMP JUMPDEST PUSH32 0x4552433732313A206F70657261746F7220717565727920666F72206E6F6E6578 PUSH1 0x0 DUP3 ADD MSTORE PUSH32 0x697374656E7420746F6B656E0000000000000000000000000000000000000000 PUSH1 0x20 DUP3 ADD MSTORE POP JUMP JUMPDEST PUSH32 0x4552433732313A20617070726F76652063616C6C6572206973206E6F74206F77 PUSH1 0x0 DUP3 ADD MSTORE PUSH32 0x6E6572206E6F7220617070726F76656420666F7220616C6C0000000000000000 PUSH1 0x20 DUP3 ADD MSTORE POP JUMP JUMPDEST PUSH32 0x4552433732313A2062616C616E636520717565727920666F7220746865207A65 PUSH1 0x0 DUP3 ADD MSTORE PUSH32 0x726F206164647265737300000000000000000000000000000000000000000000 PUSH1 0x20 DUP3 ADD MSTORE POP JUMP JUMPDEST PUSH32 0x4552433732313A206F776E657220717565727920666F72206E6F6E6578697374 PUSH1 0x0 DUP3 ADD MSTORE PUSH32 0x656E7420746F6B656E0000000000000000000000000000000000000000000000 PUSH1 0x20 DUP3 ADD MSTORE POP JUMP JUMPDEST PUSH32 0x507572636861736520776F756C6420657863656564206D617820737570706C79 PUSH1 0x0 DUP3 ADD MSTORE POP JUMP JUMPDEST PUSH32 0x4552433732313A206D696E7420746F20746865207A65726F2061646472657373 PUSH1 0x0 DUP3 ADD MSTORE POP JUMP JUMPDEST PUSH32 0x4552433732313A20617070726F76656420717565727920666F72206E6F6E6578 PUSH1 0x0 DUP3 ADD MSTORE PUSH32 0x697374656E7420746F6B656E0000000000000000000000000000000000000000 PUSH1 0x20 DUP3 ADD MSTORE POP JUMP JUMPDEST PUSH32 0x4F776E61626C653A2063616C6C6572206973206E6F7420746865206F776E6572 PUSH1 0x0 DUP3 ADD MSTORE POP JUMP JUMPDEST PUSH32 0x4552433732314D657461646174613A2055524920717565727920666F72206E6F PUSH1 0x0 DUP3 ADD MSTORE PUSH32 0x6E6578697374656E7420746F6B656E0000000000000000000000000000000000 PUSH1 0x20 DUP3 ADD MSTORE POP JUMP JUMPDEST PUSH32 0x4552433732313A20617070726F76616C20746F2063757272656E74206F776E65 PUSH1 0x0 DUP3 ADD MSTORE PUSH32 0x7200000000000000000000000000000000000000000000000000000000000000 PUSH1 0x20 DUP3 ADD MSTORE POP JUMP JUMPDEST POP JUMP JUMPDEST PUSH32 0x4552433732313A207472616E736665722063616C6C6572206973206E6F74206F PUSH1 0x0 DUP3 ADD MSTORE PUSH32 0x776E6572206E6F7220617070726F766564000000000000000000000000000000 PUSH1 0x20 DUP3 ADD MSTORE POP JUMP JUMPDEST PUSH32 0x455243373231456E756D657261626C653A20676C6F62616C20696E646578206F PUSH1 0x0 DUP3 ADD MSTORE PUSH32 0x7574206F6620626F756E64730000000000000000000000000000000000000000 PUSH1 0x20 DUP3 ADD MSTORE POP JUMP JUMPDEST PUSH32 0x4E6F7420656E6F7567682065746865722073656E740000000000000000000000 PUSH1 0x0 DUP3 ADD MSTORE POP JUMP JUMPDEST PUSH2 0x51BC DUP2 PUSH2 0x4941 JUMP JUMPDEST DUP2 EQ PUSH2 0x51C7 JUMPI PUSH1 0x0 DUP1 REVERT JUMPDEST POP JUMP JUMPDEST PUSH2 0x51D3 DUP2 PUSH2 0x4953 JUMP JUMPDEST DUP2 EQ PUSH2 0x51DE JUMPI PUSH1 0x0 DUP1 REVERT JUMPDEST POP JUMP JUMPDEST PUSH2 0x51EA DUP2 PUSH2 0x495F JUMP JUMPDEST DUP2 EQ PUSH2 0x51F5 JUMPI PUSH1 0x0 DUP1 REVERT JUMPDEST POP JUMP JUMPDEST PUSH2 0x5201 DUP2 PUSH2 0x49AB JUMP JUMPDEST DUP2 EQ PUSH2 0x520C JUMPI PUSH1 0x0 DUP1 REVERT JUMPDEST POP JUMP INVALID LOG2 PUSH5 0x6970667358 0x22 SLT KECCAK256 PUSH6 0x78990F7E3E4E CODECOPY 0xDC DUP11 DUP6 CALLCODE GASPRICE SWAP16 0xDD CODESIZE 0x4B 0x1F GASLIMIT PUSH27 0x7B688BCE6F58C6DD57034EFE64736F6C6343000804003300000000 "
        },
        "methodIdentifiers": {
          "_revealed()": "6ebeac85",
          "addPresaleUsers(address[])": "8ae28a40",
          "approve(address,uint256)": "095ea7b3",
          "balanceOf(address)": "70a08231",
          "baseExtension()": "c6682862",
          "baseURI()": "6c0360eb",
          "flipRevealState()": "2714ce92",
          "flipSaleState()": "34918dfd",
          "getApproved(uint256)": "081812fc",
          "isApprovedForAll(address,address)": "e985e9c5",
          "maxBalance()": "73ad468a",
          "maxMintAmount()": "239c70ae",
          "maxSupply()": "d5abeb01",
          "mintNft(uint256)": "0d730acc",
          "name()": "06fdde03",
          "notRevealedUri()": "081c8c44",
          "owner()": "8da5cb5b",
          "ownerOf(uint256)": "6352211e",
          "presalePrice()": "000e7fa8",
          "presaleWallets(address)": "30b2264e",
          "publicPrice()": "a945bf80",
          "removePresaleUser(address)": "ed931e17",
          "removeWhitelistUser(address)": "30cc7ae0",
          "renounceOwnership()": "715018a6",
          "safeTransferFrom(address,address,uint256)": "42842e0e",
          "safeTransferFrom(address,address,uint256,bytes)": "b88d4fde",
          "saleIsActive()": "eb8d2444",
          "setApprovalForAll(address,bool)": "a22cb465",
          "setBaseExtension(string)": "da3ef23f",
          "setBaseURI(string)": "55f804b3",
          "setMaxBalance(uint256)": "9d51d9b7",
          "setNotRevealedURI(string)": "f2c4ce1e",
          "setmaxMintAmount(uint256)": "7f00c7a6",
          "setpresalePrice(uint256)": "c3c1a138",
          "setpublicPrice(uint256)": "f90296d8",
          "supportsInterface(bytes4)": "01ffc9a7",
          "symbol()": "95d89b41",
          "tokenByIndex(uint256)": "4f6ccce7",
          "tokenOfOwnerByIndex(address,uint256)": "2f745c59",
          "tokenURI(uint256)": "c87b56dd",
          "totalSupply()": "18160ddd",
          "transferFrom(address,address,uint256)": "23b872dd",
          "transferOwnership(address)": "f2fde38b",
          "walletOfOwner(address)": "438b6300",
          "whitelistUser(address[])": "9b6fbf8a",
          "whitelisted(address)": "d936547e",
          "withdraw()": "3ccfd60b"
        }
      }
    }
  }
}