{
  "_format": "hh-sol-artifact-1",
  "contractName": "EmojiNft1",
  "sourceName": "contracts/EmojiNft.sol",
  "abi": [
    {
      "inputs": [],
      "stateMutability": "payable",
      "type": "constructor"
    },
    {
      "anonymous": false,
      "inputs": [
        {
          "indexed": true,
          "internalType": "address",
          "name": "owner",
          "type": "address"
        },
        {
          "indexed": true,
          "internalType": "address",
          "name": "approved",
          "type": "address"
        },
        {
          "indexed": true,
          "internalType": "uint256",
          "name": "tokenId",
          "type": "uint256"
        }
      ],
      "name": "Approval",
      "type": "event"
    },
    {
      "anonymous": false,
      "inputs": [
        {
          "indexed": true,
          "internalType": "address",
          "name": "owner",
          "type": "address"
        },
        {
          "indexed": true,
          "internalType": "address",
          "name": "operator",
          "type": "address"
        },
        {
          "indexed": false,
          "internalType": "bool",
          "name": "approved",
          "type": "bool"
        }
      ],
      "name": "ApprovalForAll",
      "type": "event"
    },
    {
      "anonymous": false,
      "inputs": [
        {
          "indexed": true,
          "internalType": "address",
          "name": "previousOwner",
          "type": "address"
        },
        {
          "indexed": true,
          "internalType": "address",
          "name": "newOwner",
          "type": "address"
        }
      ],
      "name": "OwnershipTransferred",
      "type": "event"
    },
    {
      "anonymous": false,
      "inputs": [
        {
          "indexed": true,
          "internalType": "address",
          "name": "from",
          "type": "address"
        },
        {
          "indexed": true,
          "internalType": "address",
          "name": "to",
          "type": "address"
        },
        {
          "indexed": true,
          "internalType": "uint256",
          "name": "tokenId",
          "type": "uint256"
        }
      ],
      "name": "Transfer",
      "type": "event"
    },
    {
      "inputs": [],
      "name": "_revealed",
      "outputs": [
        {
          "internalType": "bool",
          "name": "",
          "type": "bool"
        }
      ],
      "stateMutability": "view",
      "type": "function"
    },
    {
      "inputs": [
        {
          "internalType": "address[]",
          "name": "_users",
          "type": "address[]"
        }
      ],
      "name": "addPresaleUsers",
      "outputs": [],
      "stateMutability": "nonpayable",
      "type": "function"
    },
    {
      "inputs": [
        {
          "internalType": "address",
          "name": "to",
          "type": "address"
        },
        {
          "internalType": "uint256",
          "name": "tokenId",
          "type": "uint256"
        }
      ],
      "name": "approve",
      "outputs": [],
      "stateMutability": "nonpayable",
      "type": "function"
    },
    {
      "inputs": [
        {
          "internalType": "address",
          "name": "owner",
          "type": "address"
        }
      ],
      "name": "balanceOf",
      "outputs": [
        {
          "internalType": "uint256",
          "name": "",
          "type": "uint256"
        }
      ],
      "stateMutability": "view",
      "type": "function"
    },
    {
      "inputs": [],
      "name": "baseExtension",
      "outputs": [
        {
          "internalType": "string",
          "name": "",
          "type": "string"
        }
      ],
      "stateMutability": "view",
      "type": "function"
    },
    {
      "inputs": [],
      "name": "baseURI",
      "outputs": [
        {
          "internalType": "string",
          "name": "",
          "type": "string"
        }
      ],
      "stateMutability": "view",
      "type": "function"
    },
    {
      "inputs": [],
      "name": "flipRevealState",
      "outputs": [],
      "stateMutability": "nonpayable",
      "type": "function"
    },
    {
      "inputs": [],
      "name": "flipSaleState",
      "outputs": [],
      "stateMutability": "nonpayable",
      "type": "function"
    },
    {
      "inputs": [
        {
          "internalType": "uint256",
          "name": "tokenId",
          "type": "uint256"
        }
      ],
      "name": "getApproved",
      "outputs": [
        {
          "internalType": "address",
          "name": "",
          "type": "address"
        }
      ],
      "stateMutability": "view",
      "type": "function"
    },
    {
      "inputs": [
        {
          "internalType": "address",
          "name": "owner",
          "type": "address"
        },
        {
          "internalType": "address",
          "name": "operator",
          "type": "address"
        }
      ],
      "name": "isApprovedForAll",
      "outputs": [
        {
          "internalType": "bool",
          "name": "",
          "type": "bool"
        }
      ],
      "stateMutability": "view",
      "type": "function"
    },
    {
      "inputs": [],
      "name": "maxBalance",
      "outputs": [
        {
          "internalType": "uint256",
          "name": "",
          "type": "uint256"
        }
      ],
      "stateMutability": "view",
      "type": "function"
    },
    {
      "inputs": [],
      "name": "maxMintAmount",
      "outputs": [
        {
          "internalType": "uint256",
          "name": "",
          "type": "uint256"
        }
      ],
      "stateMutability": "view",
      "type": "function"
    },
    {
      "inputs": [],
      "name": "maxSupply",
      "outputs": [
        {
          "internalType": "uint256",
          "name": "",
          "type": "uint256"
        }
      ],
      "stateMutability": "view",
      "type": "function"
    },
    {
      "inputs": [
        {
          "internalType": "uint256",
          "name": "_mintAmount",
          "type": "uint256"
        }
      ],
      "name": "mintNft",
      "outputs": [],
      "stateMutability": "payable",
      "type": "function"
    },
    {
      "inputs": [],
      "name": "name",
      "outputs": [
        {
          "internalType": "string",
          "name": "",
          "type": "string"
        }
      ],
      "stateMutability": "view",
      "type": "function"
    },
    {
      "inputs": [],
      "name": "notRevealedUri",
      "outputs": [
        {
          "internalType": "string",
          "name": "",
          "type": "string"
        }
      ],
      "stateMutability": "view",
      "type": "function"
    },
    {
      "inputs": [],
      "name": "owner",
      "outputs": [
        {
          "internalType": "address",
          "name": "",
          "type": "address"
        }
      ],
      "stateMutability": "view",
      "type": "function"
    },
    {
      "inputs": [
        {
          "internalType": "uint256",
          "name": "tokenId",
          "type": "uint256"
        }
      ],
      "name": "ownerOf",
      "outputs": [
        {
          "internalType": "address",
          "name": "",
          "type": "address"
        }
      ],
      "stateMutability": "view",
      "type": "function"
    },
    {
      "inputs": [],
      "name": "presalePrice",
      "outputs": [
        {
          "internalType": "uint256",
          "name": "",
          "type": "uint256"
        }
      ],
      "stateMutability": "view",
      "type": "function"
    },
    {
      "inputs": [
        {
          "internalType": "address",
          "name": "",
          "type": "address"
        }
      ],
      "name": "presaleWallets",
      "outputs": [
        {
          "internalType": "bool",
          "name": "",
          "type": "bool"
        }
      ],
      "stateMutability": "view",
      "type": "function"
    },
    {
      "inputs": [],
      "name": "publicPrice",
      "outputs": [
        {
          "internalType": "uint256",
          "name": "",
          "type": "uint256"
        }
      ],
      "stateMutability": "view",
      "type": "function"
    },
    {
      "inputs": [
        {
          "internalType": "address",
          "name": "_user",
          "type": "address"
        }
      ],
      "name": "removePresaleUser",
      "outputs": [],
      "stateMutability": "nonpayable",
      "type": "function"
    },
    {
      "inputs": [
        {
          "internalType": "address",
          "name": "_user",
          "type": "address"
        }
      ],
      "name": "removeWhitelistUser",
      "outputs": [],
      "stateMutability": "nonpayable",
      "type": "function"
    },
    {
      "inputs": [],
      "name": "renounceOwnership",
      "outputs": [],
      "stateMutability": "nonpayable",
      "type": "function"
    },
    {
      "inputs": [
        {
          "internalType": "address",
          "name": "from",
          "type": "address"
        },
        {
          "internalType": "address",
          "name": "to",
          "type": "address"
        },
        {
          "internalType": "uint256",
          "name": "tokenId",
          "type": "uint256"
        }
      ],
      "name": "safeTransferFrom",
      "outputs": [],
      "stateMutability": "nonpayable",
      "type": "function"
    },
    {
      "inputs": [
        {
          "internalType": "address",
          "name": "from",
          "type": "address"
        },
        {
          "internalType": "address",
          "name": "to",
          "type": "address"
        },
        {
          "internalType": "uint256",
          "name": "tokenId",
          "type": "uint256"
        },
        {
          "internalType": "bytes",
          "name": "_data",
          "type": "bytes"
        }
      ],
      "name": "safeTransferFrom",
      "outputs": [],
      "stateMutability": "nonpayable",
      "type": "function"
    },
    {
      "inputs": [],
      "name": "saleIsActive",
      "outputs": [
        {
          "internalType": "bool",
          "name": "",
          "type": "bool"
        }
      ],
      "stateMutability": "view",
      "type": "function"
    },
    {
      "inputs": [
        {
          "internalType": "address",
          "name": "operator",
          "type": "address"
        },
        {
          "internalType": "bool",
          "name": "approved",
          "type": "bool"
        }
      ],
      "name": "setApprovalForAll",
      "outputs": [],
      "stateMutability": "nonpayable",
      "type": "function"
    },
    {
      "inputs": [
        {
          "internalType": "string",
          "name": "_newBaseExtension",
          "type": "string"
        }
      ],
      "name": "setBaseExtension",
      "outputs": [],
      "stateMutability": "nonpayable",
      "type": "function"
    },
    {
      "inputs": [
        {
          "internalType": "string",
          "name": "_newBaseURI",
          "type": "string"
        }
      ],
      "name": "setBaseURI",
      "outputs": [],
      "stateMutability": "nonpayable",
      "type": "function"
    },
    {
      "inputs": [
        {
          "internalType": "uint256",
          "name": "_maxBalance",
          "type": "uint256"
        }
      ],
      "name": "setMaxBalance",
      "outputs": [],
      "stateMutability": "nonpayable",
      "type": "function"
    },
    {
      "inputs": [
        {
          "internalType": "string",
          "name": "_notRevealedURI",
          "type": "string"
        }
      ],
      "name": "setNotRevealedURI",
      "outputs": [],
      "stateMutability": "nonpayable",
      "type": "function"
    },
    {
      "inputs": [
        {
          "internalType": "uint256",
          "name": "_newmaxMintAmount",
          "type": "uint256"
        }
      ],
      "name": "setmaxMintAmount",
      "outputs": [],
      "stateMutability": "nonpayable",
      "type": "function"
    },
    {
      "inputs": [
        {
          "internalType": "uint256",
          "name": "_newpublicPrice",
          "type": "uint256"
        }
      ],
      "name": "setpresalePrice",
      "outputs": [],
      "stateMutability": "nonpayable",
      "type": "function"
    },
    {
      "inputs": [
        {
          "internalType": "uint256",
          "name": "_newpublicPrice",
          "type": "uint256"
        }
      ],
      "name": "setpublicPrice",
      "outputs": [],
      "stateMutability": "nonpayable",
      "type": "function"
    },
    {
      "inputs": [
        {
          "internalType": "bytes4",
          "name": "interfaceId",
          "type": "bytes4"
        }
      ],
      "name": "supportsInterface",
      "outputs": [
        {
          "internalType": "bool",
          "name": "",
          "type": "bool"
        }
      ],
      "stateMutability": "view",
      "type": "function"
    },
    {
      "inputs": [],
      "name": "symbol",
      "outputs": [
        {
          "internalType": "string",
          "name": "",
          "type": "string"
        }
      ],
      "stateMutability": "view",
      "type": "function"
    },
    {
      "inputs": [
        {
          "internalType": "uint256",
          "name": "index",
          "type": "uint256"
        }
      ],
      "name": "tokenByIndex",
      "outputs": [
        {
          "internalType": "uint256",
          "name": "",
          "type": "uint256"
        }
      ],
      "stateMutability": "view",
      "type": "function"
    },
    {
      "inputs": [
        {
          "internalType": "address",
          "name": "owner",
          "type": "address"
        },
        {
          "internalType": "uint256",
          "name": "index",
          "type": "uint256"
        }
      ],
      "name": "tokenOfOwnerByIndex",
      "outputs": [
        {
          "internalType": "uint256",
          "name": "",
          "type": "uint256"
        }
      ],
      "stateMutability": "view",
      "type": "function"
    },
    {
      "inputs": [
        {
          "internalType": "uint256",
          "name": "tokenId",
          "type": "uint256"
        }
      ],
      "name": "tokenURI",
      "outputs": [
        {
          "internalType": "string",
          "name": "",
          "type": "string"
        }
      ],
      "stateMutability": "view",
      "type": "function"
    },
    {
      "inputs": [],
      "name": "totalSupply",
      "outputs": [
        {
          "internalType": "uint256",
          "name": "",
          "type": "uint256"
        }
      ],
      "stateMutability": "view",
      "type": "function"
    },
    {
      "inputs": [
        {
          "internalType": "address",
          "name": "from",
          "type": "address"
        },
        {
          "internalType": "address",
          "name": "to",
          "type": "address"
        },
        {
          "internalType": "uint256",
          "name": "tokenId",
          "type": "uint256"
        }
      ],
      "name": "transferFrom",
      "outputs": [],
      "stateMutability": "nonpayable",
      "type": "function"
    },
    {
      "inputs": [
        {
          "internalType": "address",
          "name": "newOwner",
          "type": "address"
        }
      ],
      "name": "transferOwnership",
      "outputs": [],
      "stateMutability": "nonpayable",
      "type": "function"
    },
    {
      "inputs": [
        {
          "internalType": "address",
          "name": "_owner",
          "type": "address"
        }
      ],
      "name": "walletOfOwner",
      "outputs": [
        {
          "internalType": "uint256[]",
          "name": "",
          "type": "uint256[]"
        }
      ],
      "stateMutability": "view",
      "type": "function"
    },
    {
      "inputs": [
        {
          "internalType": "address[]",
          "name": "_users",
          "type": "address[]"
        }
      ],
      "name": "whitelistUser",
      "outputs": [],
      "stateMutability": "nonpayable",
      "type": "function"
    },
    {
      "inputs": [
        {
          "internalType": "address",
          "name": "",
          "type": "address"
        }
      ],
      "name": "whitelisted",
      "outputs": [
        {
          "internalType": "bool",
          "name": "",
          "type": "bool"
        }
      ],
      "stateMutability": "view",
      "type": "function"
    },
    {
      "inputs": [],
      "name": "withdraw",
      "outputs": [],
      "stateMutability": "payable",
      "type": "function"
    }
  ],
  "bytecode": "0x60806040526000600a60146101000a81548160ff0219169083151502179055506000600a60156101000a81548160ff0219169083151502179055506040518060400160405280600581526020017f2e6a736f6e000000000000000000000000000000000000000000000000000000815250600d90805190602001906200008792919062000242565b50662386f26fc10000600e556611c37937e08000600f556127106010556002601155600a6012556040518060400160405280600881526020017f456d6f6a694e66740000000000000000000000000000000000000000000000008152506040518060400160405280600381526020017f454d4a000000000000000000000000000000000000000000000000000000000081525081600090805190602001906200013292919062000242565b5080600190805190602001906200014b92919062000242565b5050506200016e620001626200017460201b60201c565b6200017c60201b60201c565b62000357565b600033905090565b6000600a60009054906101000a900473ffffffffffffffffffffffffffffffffffffffff16905081600a60006101000a81548173ffffffffffffffffffffffffffffffffffffffff021916908373ffffffffffffffffffffffffffffffffffffffff1602179055508173ffffffffffffffffffffffffffffffffffffffff168173ffffffffffffffffffffffffffffffffffffffff167f8be0079c531659141344cd1fd0a4f28419497f9722a3daafe3b4186f6b6457e060405160405180910390a35050565b8280546200025090620002f2565b90600052602060002090601f016020900481019282620002745760008555620002c0565b82601f106200028f57805160ff1916838001178555620002c0565b82800160010185558215620002c0579182015b82811115620002bf578251825591602001919060010190620002a2565b5b509050620002cf9190620002d3565b5090565b5b80821115620002ee576000816000905550600101620002d4565b5090565b600060028204905060018216806200030b57607f821691505b6020821081141562000322576200032162000328565b5b50919050565b7f4e487b7100000000000000000000000000000000000000000000000000000000600052602260045260246000fd5b61524580620003676000396000f3fe6080604052600436106102875760003560e01c806370a082311161015a578063c3c1a138116100c1578063e985e9c51161007a578063e985e9c51461099d578063eb8d2444146109da578063ed931e1714610a05578063f2c4ce1e14610a2e578063f2fde38b14610a57578063f90296d814610a8057610287565b8063c3c1a1381461087b578063c6682862146108a4578063c87b56dd146108cf578063d5abeb011461090c578063d936547e14610937578063da3ef23f1461097457610287565b806395d89b411161011357806395d89b41146107815780639b6fbf8a146107ac5780639d51d9b7146107d5578063a22cb465146107fe578063a945bf8014610827578063b88d4fde1461085257610287565b806370a0823114610685578063715018a6146106c257806373ad468a146106d95780637f00c7a6146107045780638ae28a401461072d5780638da5cb5b1461075657610287565b80632f745c59116101fe578063438b6300116101b7578063438b63001461054f5780634f6ccce71461058c57806355f804b3146105c95780636352211e146105f25780636c0360eb1461062f5780636ebeac851461065a57610287565b80632f745c591461046257806330b2264e1461049f57806330cc7ae0146104dc57806334918dfd146105055780633ccfd60b1461051c57806342842e0e1461052657610287565b8063095ea7b311610250578063095ea7b3146103875780630d730acc146103b057806318160ddd146103cc578063239c70ae146103f757806323b872dd146104225780632714ce921461044b57610287565b80620e7fa81461028c57806301ffc9a7146102b757806306fdde03146102f4578063081812fc1461031f578063081c8c441461035c575b600080fd5b34801561029857600080fd5b506102a1610aa9565b6040516102ae91906146c2565b60405180910390f35b3480156102c357600080fd5b506102de60048036038101906102d99190613cfe565b610aaf565b6040516102eb91906143a5565b60405180910390f35b34801561030057600080fd5b50610309610b29565b60405161031691906143c0565b60405180910390f35b34801561032b57600080fd5b5061034660048036038101906103419190613d91565b610bbb565b604051610353919061431c565b60405180910390f35b34801561036857600080fd5b50610371610c40565b60405161037e91906143c0565b60405180910390f35b34801561039357600080fd5b506103ae60048036038101906103a99190613c81565b610cce565b005b6103ca60048036038101906103c59190613d91565b610de6565b005b3480156103d857600080fd5b506103e16110d2565b6040516103ee91906146c2565b60405180910390f35b34801561040357600080fd5b5061040c6110df565b60405161041991906146c2565b60405180910390f35b34801561042e57600080fd5b5061044960048036038101906104449190613b7b565b6110e5565b005b34801561045757600080fd5b50610460611145565b005b34801561046e57600080fd5b5061048960048036038101906104849190613c81565b6111ed565b60405161049691906146c2565b60405180910390f35b3480156104ab57600080fd5b506104c660048036038101906104c19190613b16565b611292565b6040516104d391906143a5565b60405180910390f35b3480156104e857600080fd5b5061050360048036038101906104fe9190613b16565b6112b2565b005b34801561051157600080fd5b5061051a611389565b005b610524611431565b005b34801561053257600080fd5b5061054d60048036038101906105489190613b7b565b611526565b005b34801561055b57600080fd5b5061057660048036038101906105719190613b16565b611546565b6040516105839190614383565b60405180910390f35b34801561059857600080fd5b506105b360048036038101906105ae9190613d91565b611640565b6040516105c091906146c2565b60405180910390f35b3480156105d557600080fd5b506105f060048036038101906105eb9190613d50565b6116d7565b005b3480156105fe57600080fd5b5061061960048036038101906106149190613d91565b61176d565b604051610626919061431c565b60405180910390f35b34801561063b57600080fd5b5061064461181f565b60405161065191906143c0565b60405180910390f35b34801561066657600080fd5b5061066f6118ad565b60405161067c91906143a5565b60405180910390f35b34801561069157600080fd5b506106ac60048036038101906106a79190613b16565b6118c0565b6040516106b991906146c2565b60405180910390f35b3480156106ce57600080fd5b506106d7611978565b005b3480156106e557600080fd5b506106ee611a00565b6040516106fb91906146c2565b60405180910390f35b34801561071057600080fd5b5061072b60048036038101906107269190613d91565b611a06565b005b34801561073957600080fd5b50610754600480360381019061074f9190613cbd565b611a8c565b005b34801561076257600080fd5b5061076b611bc3565b604051610778919061431c565b60405180910390f35b34801561078d57600080fd5b50610796611bed565b6040516107a391906143c0565b60405180910390f35b3480156107b857600080fd5b506107d360048036038101906107ce9190613cbd565b611c7f565b005b3480156107e157600080fd5b506107fc60048036038101906107f79190613d91565b611db6565b005b34801561080a57600080fd5b5061082560048036038101906108209190613c45565b611e3c565b005b34801561083357600080fd5b5061083c611e52565b60405161084991906146c2565b60405180910390f35b34801561085e57600080fd5b5061087960048036038101906108749190613bca565b611e58565b005b34801561088757600080fd5b506108a2600480360381019061089d9190613d91565b611eba565b005b3480156108b057600080fd5b506108b9611f40565b6040516108c691906143c0565b60405180910390f35b3480156108db57600080fd5b506108f660048036038101906108f19190613d91565b611fce565b60405161090391906143c0565b60405180910390f35b34801561091857600080fd5b50610921612127565b60405161092e91906146c2565b60405180910390f35b34801561094357600080fd5b5061095e60048036038101906109599190613b16565b61212d565b60405161096b91906143a5565b60405180910390f35b34801561098057600080fd5b5061099b60048036038101906109969190613d50565b61214d565b005b3480156109a957600080fd5b506109c460048036038101906109bf9190613b3f565b6121e3565b6040516109d191906143a5565b60405180910390f35b3480156109e657600080fd5b506109ef612277565b6040516109fc91906143a5565b60405180910390f35b348015610a1157600080fd5b50610a2c6004803603810190610a279190613b16565b61228a565b005b348015610a3a57600080fd5b50610a556004803603810190610a509190613d50565b612361565b005b348015610a6357600080fd5b50610a7e6004803603810190610a799190613b16565b6123f7565b005b348015610a8c57600080fd5b50610aa76004803603810190610aa29190613d91565b6124ef565b005b600f5481565b60007f780e9d63000000000000000000000000000000000000000000000000000000007bffffffffffffffffffffffffffffffffffffffffffffffffffffffff1916827bffffffffffffffffffffffffffffffffffffffffffffffffffffffff19161480610b225750610b2182612575565b5b9050919050565b606060008054610b38906149f7565b80601f0160208091040260200160405190810160405280929190818152602001828054610b64906149f7565b8015610bb15780601f10610b8657610100808354040283529160200191610bb1565b820191906000526020600020905b815481529060010190602001808311610b9457829003601f168201915b5050505050905090565b6000610bc682612657565b610c05576040517f08c379a0000000000000000000000000000000000000000000000000000000008152600401610bfc906145e2565b60405180910390fd5b6004600083815260200190815260200160002060009054906101000a900473ffffffffffffffffffffffffffffffffffffffff169050919050565b600c8054610c4d906149f7565b80601f0160208091040260200160405190810160405280929190818152602001828054610c79906149f7565b8015610cc65780601f10610c9b57610100808354040283529160200191610cc6565b820191906000526020600020905b815481529060010190602001808311610ca957829003601f168201915b505050505081565b6000610cd98261176d565b90508073ffffffffffffffffffffffffffffffffffffffff168373ffffffffffffffffffffffffffffffffffffffff161415610d4a576040517f08c379a0000000000000000000000000000000000000000000000000000000008152600401610d4190614642565b60405180910390fd5b8073ffffffffffffffffffffffffffffffffffffffff16610d696126c3565b73ffffffffffffffffffffffffffffffffffffffff161480610d985750610d9781610d926126c3565b6121e3565b5b610dd7576040517f08c379a0000000000000000000000000000000000000000000000000000000008152600401610dce90614542565b60405180910390fd5b610de183836126cb565b505050565b6000610df06110d2565b9050600a60159054906101000a900460ff16610e41576040517f08c379a0000000000000000000000000000000000000000000000000000000008152600401610e38906144a2565b60405180910390fd5b60008211610e4e57600080fd5b601154821115610e93576040517f08c379a0000000000000000000000000000000000000000000000000000000008152600401610e8a90614502565b60405180910390fd5b6010548282610ea2919061482c565b1115610ee3576040517f08c379a0000000000000000000000000000000000000000000000000000000008152600401610eda906145a2565b60405180910390fd5b60125482610ef0336118c0565b610efa919061482c565b1115610f3b576040517f08c379a0000000000000000000000000000000000000000000000000000000008152600401610f3290614442565b60405180910390fd5b610f43611bc3565b73ffffffffffffffffffffffffffffffffffffffff163373ffffffffffffffffffffffffffffffffffffffff16146110975760011515601360003373ffffffffffffffffffffffffffffffffffffffff1673ffffffffffffffffffffffffffffffffffffffff16815260200190815260200160002060009054906101000a900460ff161515146110965760011515601460003373ffffffffffffffffffffffffffffffffffffffff1673ffffffffffffffffffffffffffffffffffffffff16815260200190815260200160002060009054906101000a900460ff1615151461107a5781600e5461103391906148b3565b341015611075576040517f08c379a000000000000000000000000000000000000000000000000000000000815260040161106c906146a2565b60405180910390fd5b611095565b81600f5461108891906148b3565b34101561109457600080fd5b5b5b5b6000600190505b8281116110cd576110ba3382846110b5919061482c565b612784565b80806110c590614a5a565b91505061109e565b505050565b6000600880549050905090565b60115481565b6110f66110f06126c3565b826127a2565b611135576040517f08c379a000000000000000000000000000000000000000000000000000000000815260040161112c90614662565b60405180910390fd5b611140838383612880565b505050565b61114d6126c3565b73ffffffffffffffffffffffffffffffffffffffff1661116b611bc3565b73ffffffffffffffffffffffffffffffffffffffff16146111c1576040517f08c379a00000000000000000000000000000000000000000000000000000000081526004016111b890614602565b60405180910390fd5b600a60149054906101000a900460ff1615600a60146101000a81548160ff021916908315150217905550565b60006111f8836118c0565b8210611239576040517f08c379a0000000000000000000000000000000000000000000000000000000008152600401611230906143e2565b60405180910390fd5b600660008473ffffffffffffffffffffffffffffffffffffffff1673ffffffffffffffffffffffffffffffffffffffff168152602001908152602001600020600083815260200190815260200160002054905092915050565b60146020528060005260406000206000915054906101000a900460ff1681565b6112ba6126c3565b73ffffffffffffffffffffffffffffffffffffffff166112d8611bc3565b73ffffffffffffffffffffffffffffffffffffffff161461132e576040517f08c379a000000000000000000000000000000000000000000000000000000000815260040161132590614602565b60405180910390fd5b6000601360008373ffffffffffffffffffffffffffffffffffffffff1673ffffffffffffffffffffffffffffffffffffffff16815260200190815260200160002060006101000a81548160ff02191690831515021790555050565b6113916126c3565b73ffffffffffffffffffffffffffffffffffffffff166113af611bc3565b73ffffffffffffffffffffffffffffffffffffffff1614611405576040517f08c379a00000000000000000000000000000000000000000000000000000000081526004016113fc90614602565b60405180910390fd5b600a60159054906101000a900460ff1615600a60156101000a81548160ff021916908315150217905550565b6114396126c3565b73ffffffffffffffffffffffffffffffffffffffff16611457611bc3565b73ffffffffffffffffffffffffffffffffffffffff16146114ad576040517f08c379a00000000000000000000000000000000000000000000000000000000081526004016114a490614602565b60405180910390fd5b60003373ffffffffffffffffffffffffffffffffffffffff16476040516114d390614307565b60006040518083038185875af1925050503d8060008114611510576040519150601f19603f3d011682016040523d82523d6000602084013e611515565b606091505b505090508061152357600080fd5b50565b61154183838360405180602001604052806000815250611e58565b505050565b60606000611553836118c0565b905060008167ffffffffffffffff811115611597577f4e487b7100000000000000000000000000000000000000000000000000000000600052604160045260246000fd5b6040519080825280602002602001820160405280156115c55781602001602082028036833780820191505090505b50905060005b82811015611635576115dd85826111ed565b828281518110611616577f4e487b7100000000000000000000000000000000000000000000000000000000600052603260045260246000fd5b602002602001018181525050808061162d90614a5a565b9150506115cb565b508092505050919050565b600061164a6110d2565b821061168b576040517f08c379a000000000000000000000000000000000000000000000000000000000815260040161168290614682565b60405180910390fd5b600882815481106116c5577f4e487b7100000000000000000000000000000000000000000000000000000000600052603260045260246000fd5b90600052602060002001549050919050565b6116df6126c3565b73ffffffffffffffffffffffffffffffffffffffff166116fd611bc3565b73ffffffffffffffffffffffffffffffffffffffff1614611753576040517f08c379a000000000000000000000000000000000000000000000000000000000815260040161174a90614602565b60405180910390fd5b80600b90805190602001906117699291906138a4565b5050565b6000806002600084815260200190815260200160002060009054906101000a900473ffffffffffffffffffffffffffffffffffffffff169050600073ffffffffffffffffffffffffffffffffffffffff168173ffffffffffffffffffffffffffffffffffffffff161415611816576040517f08c379a000000000000000000000000000000000000000000000000000000000815260040161180d90614582565b60405180910390fd5b80915050919050565b600b805461182c906149f7565b80601f0160208091040260200160405190810160405280929190818152602001828054611858906149f7565b80156118a55780601f1061187a576101008083540402835291602001916118a5565b820191906000526020600020905b81548152906001019060200180831161188857829003601f168201915b505050505081565b600a60149054906101000a900460ff1681565b60008073ffffffffffffffffffffffffffffffffffffffff168273ffffffffffffffffffffffffffffffffffffffff161415611931576040517f08c379a000000000000000000000000000000000000000000000000000000000815260040161192890614562565b60405180910390fd5b600360008373ffffffffffffffffffffffffffffffffffffffff1673ffffffffffffffffffffffffffffffffffffffff168152602001908152602001600020549050919050565b6119806126c3565b73ffffffffffffffffffffffffffffffffffffffff1661199e611bc3565b73ffffffffffffffffffffffffffffffffffffffff16146119f4576040517f08c379a00000000000000000000000000000000000000000000000000000000081526004016119eb90614602565b60405180910390fd5b6119fe6000612ae7565b565b60125481565b611a0e6126c3565b73ffffffffffffffffffffffffffffffffffffffff16611a2c611bc3565b73ffffffffffffffffffffffffffffffffffffffff1614611a82576040517f08c379a0000000000000000000000000000000000000000000000000000000008152600401611a7990614602565b60405180910390fd5b8060118190555050565b611a946126c3565b73ffffffffffffffffffffffffffffffffffffffff16611ab2611bc3565b73ffffffffffffffffffffffffffffffffffffffff1614611b08576040517f08c379a0000000000000000000000000000000000000000000000000000000008152600401611aff90614602565b60405180910390fd5b60005b8151811015611bbf57600160146000848481518110611b53577f4e487b7100000000000000000000000000000000000000000000000000000000600052603260045260246000fd5b602002602001015173ffffffffffffffffffffffffffffffffffffffff1673ffffffffffffffffffffffffffffffffffffffff16815260200190815260200160002060006101000a81548160ff0219169083151502179055508080611bb790614a5a565b915050611b0b565b5050565b6000600a60009054906101000a900473ffffffffffffffffffffffffffffffffffffffff16905090565b606060018054611bfc906149f7565b80601f0160208091040260200160405190810160405280929190818152602001828054611c28906149f7565b8015611c755780601f10611c4a57610100808354040283529160200191611c75565b820191906000526020600020905b815481529060010190602001808311611c5857829003601f168201915b5050505050905090565b611c876126c3565b73ffffffffffffffffffffffffffffffffffffffff16611ca5611bc3565b73ffffffffffffffffffffffffffffffffffffffff1614611cfb576040517f08c379a0000000000000000000000000000000000000000000000000000000008152600401611cf290614602565b60405180910390fd5b60005b8151811015611db257600160146000848481518110611d46577f4e487b7100000000000000000000000000000000000000000000000000000000600052603260045260246000fd5b602002602001015173ffffffffffffffffffffffffffffffffffffffff1673ffffffffffffffffffffffffffffffffffffffff16815260200190815260200160002060006101000a81548160ff0219169083151502179055508080611daa90614a5a565b915050611cfe565b5050565b611dbe6126c3565b73ffffffffffffffffffffffffffffffffffffffff16611ddc611bc3565b73ffffffffffffffffffffffffffffffffffffffff1614611e32576040517f08c379a0000000000000000000000000000000000000000000000000000000008152600401611e2990614602565b60405180910390fd5b8060128190555050565b611e4e611e476126c3565b8383612bad565b5050565b600e5481565b611e69611e636126c3565b836127a2565b611ea8576040517f08c379a0000000000000000000000000000000000000000000000000000000008152600401611e9f90614662565b60405180910390fd5b611eb484848484612d1a565b50505050565b611ec26126c3565b73ffffffffffffffffffffffffffffffffffffffff16611ee0611bc3565b73ffffffffffffffffffffffffffffffffffffffff1614611f36576040517f08c379a0000000000000000000000000000000000000000000000000000000008152600401611f2d90614602565b60405180910390fd5b80600f8190555050565b600d8054611f4d906149f7565b80601f0160208091040260200160405190810160405280929190818152602001828054611f79906149f7565b8015611fc65780601f10611f9b57610100808354040283529160200191611fc6565b820191906000526020600020905b815481529060010190602001808311611fa957829003601f168201915b505050505081565b6060611fd982612657565b612018576040517f08c379a000000000000000000000000000000000000000000000000000000000815260040161200f90614622565b60405180910390fd5b60001515600a60149054906101000a900460ff16151514156120c657600c8054612041906149f7565b80601f016020809104026020016040519081016040528092919081815260200182805461206d906149f7565b80156120ba5780601f1061208f576101008083540402835291602001916120ba565b820191906000526020600020905b81548152906001019060200180831161209d57829003601f168201915b50505050509050612122565b60006120d0612d76565b905060008151116120f0576040518060200160405280600081525061211e565b806120fa84612e08565b600d60405160200161210e939291906142d6565b6040516020818303038152906040525b9150505b919050565b60105481565b60136020528060005260406000206000915054906101000a900460ff1681565b6121556126c3565b73ffffffffffffffffffffffffffffffffffffffff16612173611bc3565b73ffffffffffffffffffffffffffffffffffffffff16146121c9576040517f08c379a00000000000000000000000000000000000000000000000000000000081526004016121c090614602565b60405180910390fd5b80600d90805190602001906121df9291906138a4565b5050565b6000600560008473ffffffffffffffffffffffffffffffffffffffff1673ffffffffffffffffffffffffffffffffffffffff16815260200190815260200160002060008373ffffffffffffffffffffffffffffffffffffffff1673ffffffffffffffffffffffffffffffffffffffff16815260200190815260200160002060009054906101000a900460ff16905092915050565b600a60159054906101000a900460ff1681565b6122926126c3565b73ffffffffffffffffffffffffffffffffffffffff166122b0611bc3565b73ffffffffffffffffffffffffffffffffffffffff1614612306576040517f08c379a00000000000000000000000000000000000000000000000000000000081526004016122fd90614602565b60405180910390fd5b6000601460008373ffffffffffffffffffffffffffffffffffffffff1673ffffffffffffffffffffffffffffffffffffffff16815260200190815260200160002060006101000a81548160ff02191690831515021790555050565b6123696126c3565b73ffffffffffffffffffffffffffffffffffffffff16612387611bc3565b73ffffffffffffffffffffffffffffffffffffffff16146123dd576040517f08c379a00000000000000000000000000000000000000000000000000000000081526004016123d490614602565b60405180910390fd5b80600c90805190602001906123f39291906138a4565b5050565b6123ff6126c3565b73ffffffffffffffffffffffffffffffffffffffff1661241d611bc3565b73ffffffffffffffffffffffffffffffffffffffff1614612473576040517f08c379a000000000000000000000000000000000000000000000000000000000815260040161246a90614602565b60405180910390fd5b600073ffffffffffffffffffffffffffffffffffffffff168173ffffffffffffffffffffffffffffffffffffffff1614156124e3576040517f08c379a00000000000000000000000000000000000000000000000000000000081526004016124da90614422565b60405180910390fd5b6124ec81612ae7565b50565b6124f76126c3565b73ffffffffffffffffffffffffffffffffffffffff16612515611bc3565b73ffffffffffffffffffffffffffffffffffffffff161461256b576040517f08c379a000000000000000000000000000000000000000000000000000000000815260040161256290614602565b60405180910390fd5b80600e8190555050565b60007f80ac58cd000000000000000000000000000000000000000000000000000000007bffffffffffffffffffffffffffffffffffffffffffffffffffffffff1916827bffffffffffffffffffffffffffffffffffffffffffffffffffffffff1916148061264057507f5b5e139f000000000000000000000000000000000000000000000000000000007bffffffffffffffffffffffffffffffffffffffffffffffffffffffff1916827bffffffffffffffffffffffffffffffffffffffffffffffffffffffff1916145b80612650575061264f82612fb5565b5b9050919050565b60008073ffffffffffffffffffffffffffffffffffffffff166002600084815260200190815260200160002060009054906101000a900473ffffffffffffffffffffffffffffffffffffffff1673ffffffffffffffffffffffffffffffffffffffff1614159050919050565b600033905090565b816004600083815260200190815260200160002060006101000a81548173ffffffffffffffffffffffffffffffffffffffff021916908373ffffffffffffffffffffffffffffffffffffffff160217905550808273ffffffffffffffffffffffffffffffffffffffff1661273e8361176d565b73ffffffffffffffffffffffffffffffffffffffff167f8c5be1e5ebec7d5bd14f71427d1e84f3dd0314c0f7b2291e5b200ac8c7c3b92560405160405180910390a45050565b61279e82826040518060200160405280600081525061301f565b5050565b60006127ad82612657565b6127ec576040517f08c379a00000000000000000000000000000000000000000000000000000000081526004016127e390614522565b60405180910390fd5b60006127f78361176d565b90508073ffffffffffffffffffffffffffffffffffffffff168473ffffffffffffffffffffffffffffffffffffffff16148061286657508373ffffffffffffffffffffffffffffffffffffffff1661284e84610bbb565b73ffffffffffffffffffffffffffffffffffffffff16145b80612877575061287681856121e3565b5b91505092915050565b8273ffffffffffffffffffffffffffffffffffffffff166128a08261176d565b73ffffffffffffffffffffffffffffffffffffffff16146128f6576040517f08c379a00000000000000000000000000000000000000000000000000000000081526004016128ed90614462565b60405180910390fd5b600073ffffffffffffffffffffffffffffffffffffffff168273ffffffffffffffffffffffffffffffffffffffff161415612966576040517f08c379a000000000000000000000000000000000000000000000000000000000815260040161295d906144c2565b60405180910390fd5b61297183838361307a565b61297c6000826126cb565b6001600360008573ffffffffffffffffffffffffffffffffffffffff1673ffffffffffffffffffffffffffffffffffffffff16815260200190815260200160002060008282546129cc919061490d565b925050819055506001600360008473ffffffffffffffffffffffffffffffffffffffff1673ffffffffffffffffffffffffffffffffffffffff1681526020019081526020016000206000828254612a23919061482c565b92505081905550816002600083815260200190815260200160002060006101000a81548173ffffffffffffffffffffffffffffffffffffffff021916908373ffffffffffffffffffffffffffffffffffffffff160217905550808273ffffffffffffffffffffffffffffffffffffffff168473ffffffffffffffffffffffffffffffffffffffff167fddf252ad1be2c89b69c2b068fc378daa952ba7f163c4a11628f55a4df523b3ef60405160405180910390a4612ae283838361318e565b505050565b6000600a60009054906101000a900473ffffffffffffffffffffffffffffffffffffffff16905081600a60006101000a81548173ffffffffffffffffffffffffffffffffffffffff021916908373ffffffffffffffffffffffffffffffffffffffff1602179055508173ffffffffffffffffffffffffffffffffffffffff168173ffffffffffffffffffffffffffffffffffffffff167f8be0079c531659141344cd1fd0a4f28419497f9722a3daafe3b4186f6b6457e060405160405180910390a35050565b8173ffffffffffffffffffffffffffffffffffffffff168373ffffffffffffffffffffffffffffffffffffffff161415612c1c576040517f08c379a0000000000000000000000000000000000000000000000000000000008152600401612c13906144e2565b60405180910390fd5b80600560008573ffffffffffffffffffffffffffffffffffffffff1673ffffffffffffffffffffffffffffffffffffffff16815260200190815260200160002060008473ffffffffffffffffffffffffffffffffffffffff1673ffffffffffffffffffffffffffffffffffffffff16815260200190815260200160002060006101000a81548160ff0219169083151502179055508173ffffffffffffffffffffffffffffffffffffffff168373ffffffffffffffffffffffffffffffffffffffff167f17307eab39ab6107e8899845ad3d59bd9653f200f220920489ca2b5937696c3183604051612d0d91906143a5565b60405180910390a3505050565b612d25848484612880565b612d3184848484613193565b612d70576040517f08c379a0000000000000000000000000000000000000000000000000000000008152600401612d6790614402565b60405180910390fd5b50505050565b6060600b8054612d85906149f7565b80601f0160208091040260200160405190810160405280929190818152602001828054612db1906149f7565b8015612dfe5780601f10612dd357610100808354040283529160200191612dfe565b820191906000526020600020905b815481529060010190602001808311612de157829003601f168201915b5050505050905090565b60606000821415612e50576040518060400160405280600181526020017f30000000000000000000000000000000000000000000000000000000000000008152509050612fb0565b600082905060005b60008214612e82578080612e6b90614a5a565b915050600a82612e7b9190614882565b9150612e58565b60008167ffffffffffffffff811115612ec4577f4e487b7100000000000000000000000000000000000000000000000000000000600052604160045260246000fd5b6040519080825280601f01601f191660200182016040528015612ef65781602001600182028036833780820191505090505b5090505b60008514612fa957600182612f0f919061490d565b9150600a85612f1e9190614aa3565b6030612f2a919061482c565b60f81b818381518110612f66577f4e487b7100000000000000000000000000000000000000000000000000000000600052603260045260246000fd5b60200101907effffffffffffffffffffffffffffffffffffffffffffffffffffffffffffff1916908160001a905350600a85612fa29190614882565b9450612efa565b8093505050505b919050565b60007f01ffc9a7000000000000000000000000000000000000000000000000000000007bffffffffffffffffffffffffffffffffffffffffffffffffffffffff1916827bffffffffffffffffffffffffffffffffffffffffffffffffffffffff1916149050919050565b613029838361332a565b6130366000848484613193565b613075576040517f08c379a000000000000000000000000000000000000000000000000000000000815260040161306c90614402565b60405180910390fd5b505050565b613085838383613504565b600073ffffffffffffffffffffffffffffffffffffffff168373ffffffffffffffffffffffffffffffffffffffff1614156130c8576130c381613509565b613107565b8173ffffffffffffffffffffffffffffffffffffffff168373ffffffffffffffffffffffffffffffffffffffff1614613106576131058382613552565b5b5b600073ffffffffffffffffffffffffffffffffffffffff168273ffffffffffffffffffffffffffffffffffffffff16141561314a57613145816136bf565b613189565b8273ffffffffffffffffffffffffffffffffffffffff168273ffffffffffffffffffffffffffffffffffffffff1614613188576131878282613802565b5b5b505050565b505050565b60006131b48473ffffffffffffffffffffffffffffffffffffffff16613881565b1561331d578373ffffffffffffffffffffffffffffffffffffffff1663150b7a026131dd6126c3565b8786866040518563ffffffff1660e01b81526004016131ff9493929190614337565b602060405180830381600087803b15801561321957600080fd5b505af192505050801561324a57506040513d601f19601f820116820180604052508101906132479190613d27565b60015b6132cd573d806000811461327a576040519150601f19603f3d011682016040523d82523d6000602084013e61327f565b606091505b506000815114156132c5576040517f08c379a00000000000000000000000000000000000000000000000000000000081526004016132bc90614402565b60405180910390fd5b805181602001fd5b63150b7a0260e01b7bffffffffffffffffffffffffffffffffffffffffffffffffffffffff1916817bffffffffffffffffffffffffffffffffffffffffffffffffffffffff191614915050613322565b600190505b949350505050565b600073ffffffffffffffffffffffffffffffffffffffff168273ffffffffffffffffffffffffffffffffffffffff16141561339a576040517f08c379a0000000000000000000000000000000000000000000000000000000008152600401613391906145c2565b60405180910390fd5b6133a381612657565b156133e3576040517f08c379a00000000000000000000000000000000000000000000000000000000081526004016133da90614482565b60405180910390fd5b6133ef6000838361307a565b6001600360008473ffffffffffffffffffffffffffffffffffffffff1673ffffffffffffffffffffffffffffffffffffffff168152602001908152602001600020600082825461343f919061482c565b92505081905550816002600083815260200190815260200160002060006101000a81548173ffffffffffffffffffffffffffffffffffffffff021916908373ffffffffffffffffffffffffffffffffffffffff160217905550808273ffffffffffffffffffffffffffffffffffffffff16600073ffffffffffffffffffffffffffffffffffffffff167fddf252ad1be2c89b69c2b068fc378daa952ba7f163c4a11628f55a4df523b3ef60405160405180910390a46135006000838361318e565b5050565b505050565b6008805490506009600083815260200190815260200160002081905550600881908060018154018082558091505060019003906000526020600020016000909190919091505550565b6000600161355f846118c0565b613569919061490d565b905060006007600084815260200190815260200160002054905081811461364e576000600660008673ffffffffffffffffffffffffffffffffffffffff1673ffffffffffffffffffffffffffffffffffffffff168152602001908152602001600020600084815260200190815260200160002054905080600660008773ffffffffffffffffffffffffffffffffffffffff1673ffffffffffffffffffffffffffffffffffffffff168152602001908152602001600020600084815260200190815260200160002081905550816007600083815260200190815260200160002081905550505b6007600084815260200190815260200160002060009055600660008573ffffffffffffffffffffffffffffffffffffffff1673ffffffffffffffffffffffffffffffffffffffff16815260200190815260200160002060008381526020019081526020016000206000905550505050565b600060016008805490506136d3919061490d565b9050600060096000848152602001908152602001600020549050600060088381548110613729577f4e487b7100000000000000000000000000000000000000000000000000000000600052603260045260246000fd5b906000526020600020015490508060088381548110613771577f4e487b7100000000000000000000000000000000000000000000000000000000600052603260045260246000fd5b9060005260206000200181905550816009600083815260200190815260200160002081905550600960008581526020019081526020016000206000905560088054806137e6577f4e487b7100000000000000000000000000000000000000000000000000000000600052603160045260246000fd5b6001900381819060005260206000200160009055905550505050565b600061380d836118c0565b905081600660008573ffffffffffffffffffffffffffffffffffffffff1673ffffffffffffffffffffffffffffffffffffffff168152602001908152602001600020600083815260200190815260200160002081905550806007600084815260200190815260200160002081905550505050565b6000808273ffffffffffffffffffffffffffffffffffffffff163b119050919050565b8280546138b0906149f7565b90600052602060002090601f0160209004810192826138d25760008555613919565b82601f106138eb57805160ff1916838001178555613919565b82800160010185558215613919579182015b828111156139185782518255916020019190600101906138fd565b5b509050613926919061392a565b5090565b5b8082111561394357600081600090555060010161392b565b5090565b600061395a61395584614702565b6146dd565b9050808382526020820190508285602086028201111561397957600080fd5b60005b858110156139a9578161398f8882613a2f565b84526020840193506020830192505060018101905061397c565b5050509392505050565b60006139c66139c18461472e565b6146dd565b9050828152602081018484840111156139de57600080fd5b6139e98482856149b5565b509392505050565b6000613a046139ff8461475f565b6146dd565b905082815260208101848484011115613a1c57600080fd5b613a278482856149b5565b509392505050565b600081359050613a3e816151b3565b92915050565b600082601f830112613a5557600080fd5b8135613a65848260208601613947565b91505092915050565b600081359050613a7d816151ca565b92915050565b600081359050613a92816151e1565b92915050565b600081519050613aa7816151e1565b92915050565b600082601f830112613abe57600080fd5b8135613ace8482602086016139b3565b91505092915050565b600082601f830112613ae857600080fd5b8135613af88482602086016139f1565b91505092915050565b600081359050613b10816151f8565b92915050565b600060208284031215613b2857600080fd5b6000613b3684828501613a2f565b91505092915050565b60008060408385031215613b5257600080fd5b6000613b6085828601613a2f565b9250506020613b7185828601613a2f565b9150509250929050565b600080600060608486031215613b9057600080fd5b6000613b9e86828701613a2f565b9350506020613baf86828701613a2f565b9250506040613bc086828701613b01565b9150509250925092565b60008060008060808587031215613be057600080fd5b6000613bee87828801613a2f565b9450506020613bff87828801613a2f565b9350506040613c1087828801613b01565b925050606085013567ffffffffffffffff811115613c2d57600080fd5b613c3987828801613aad565b91505092959194509250565b60008060408385031215613c5857600080fd5b6000613c6685828601613a2f565b9250506020613c7785828601613a6e565b9150509250929050565b60008060408385031215613c9457600080fd5b6000613ca285828601613a2f565b9250506020613cb385828601613b01565b9150509250929050565b600060208284031215613ccf57600080fd5b600082013567ffffffffffffffff811115613ce957600080fd5b613cf584828501613a44565b91505092915050565b600060208284031215613d1057600080fd5b6000613d1e84828501613a83565b91505092915050565b600060208284031215613d3957600080fd5b6000613d4784828501613a98565b91505092915050565b600060208284031215613d6257600080fd5b600082013567ffffffffffffffff811115613d7c57600080fd5b613d8884828501613ad7565b91505092915050565b600060208284031215613da357600080fd5b6000613db184828501613b01565b91505092915050565b6000613dc683836142b8565b60208301905092915050565b613ddb81614941565b82525050565b6000613dec826147b5565b613df681856147e3565b9350613e0183614790565b8060005b83811015613e32578151613e198882613dba565b9750613e24836147d6565b925050600181019050613e05565b5085935050505092915050565b613e4881614953565b82525050565b6000613e59826147c0565b613e6381856147f4565b9350613e738185602086016149c4565b613e7c81614b90565b840191505092915050565b6000613e92826147cb565b613e9c8185614810565b9350613eac8185602086016149c4565b613eb581614b90565b840191505092915050565b6000613ecb826147cb565b613ed58185614821565b9350613ee58185602086016149c4565b80840191505092915050565b60008154613efe816149f7565b613f088186614821565b94506001821660008114613f235760018114613f3457613f67565b60ff19831686528186019350613f67565b613f3d856147a0565b60005b83811015613f5f57815481890152600182019150602081019050613f40565b838801955050505b50505092915050565b6000613f7d602b83614810565b9150613f8882614ba1565b604082019050919050565b6000613fa0603283614810565b9150613fab82614bf0565b604082019050919050565b6000613fc3602683614810565b9150613fce82614c3f565b604082019050919050565b6000613fe6601583614810565b9150613ff182614c8e565b602082019050919050565b6000614009602583614810565b915061401482614cb7565b604082019050919050565b600061402c601c83614810565b915061403782614d06565b602082019050919050565b600061404f602183614810565b915061405a82614d2f565b604082019050919050565b6000614072602483614810565b915061407d82614d7e565b604082019050919050565b6000614095601983614810565b91506140a082614dcd565b602082019050919050565b60006140b8602283614810565b91506140c382614df6565b604082019050919050565b60006140db602c83614810565b91506140e682614e45565b604082019050919050565b60006140fe603883614810565b915061410982614e94565b604082019050919050565b6000614121602a83614810565b915061412c82614ee3565b604082019050919050565b6000614144602983614810565b915061414f82614f32565b604082019050919050565b6000614167602083614810565b915061417282614f81565b602082019050919050565b600061418a602083614810565b915061419582614faa565b602082019050919050565b60006141ad602c83614810565b91506141b882614fd3565b604082019050919050565b60006141d0602083614810565b91506141db82615022565b602082019050919050565b60006141f3602f83614810565b91506141fe8261504b565b604082019050919050565b6000614216602183614810565b91506142218261509a565b604082019050919050565b6000614239600083614805565b9150614244826150e9565b600082019050919050565b600061425c603183614810565b9150614267826150ec565b604082019050919050565b600061427f602c83614810565b915061428a8261513b565b604082019050919050565b60006142a2601583614810565b91506142ad8261518a565b602082019050919050565b6142c1816149ab565b82525050565b6142d0816149ab565b82525050565b60006142e28286613ec0565b91506142ee8285613ec0565b91506142fa8284613ef1565b9150819050949350505050565b60006143128261422c565b9150819050919050565b60006020820190506143316000830184613dd2565b92915050565b600060808201905061434c6000830187613dd2565b6143596020830186613dd2565b61436660408301856142c7565b81810360608301526143788184613e4e565b905095945050505050565b6000602082019050818103600083015261439d8184613de1565b905092915050565b60006020820190506143ba6000830184613e3f565b92915050565b600060208201905081810360008301526143da8184613e87565b905092915050565b600060208201905081810360008301526143fb81613f70565b9050919050565b6000602082019050818103600083015261441b81613f93565b9050919050565b6000602082019050818103600083015261443b81613fb6565b9050919050565b6000602082019050818103600083015261445b81613fd9565b9050919050565b6000602082019050818103600083015261447b81613ffc565b9050919050565b6000602082019050818103600083015261449b8161401f565b9050919050565b600060208201905081810360008301526144bb81614042565b9050919050565b600060208201905081810360008301526144db81614065565b9050919050565b600060208201905081810360008301526144fb81614088565b9050919050565b6000602082019050818103600083015261451b816140ab565b9050919050565b6000602082019050818103600083015261453b816140ce565b9050919050565b6000602082019050818103600083015261455b816140f1565b9050919050565b6000602082019050818103600083015261457b81614114565b9050919050565b6000602082019050818103600083015261459b81614137565b9050919050565b600060208201905081810360008301526145bb8161415a565b9050919050565b600060208201905081810360008301526145db8161417d565b9050919050565b600060208201905081810360008301526145fb816141a0565b9050919050565b6000602082019050818103600083015261461b816141c3565b9050919050565b6000602082019050818103600083015261463b816141e6565b9050919050565b6000602082019050818103600083015261465b81614209565b9050919050565b6000602082019050818103600083015261467b8161424f565b9050919050565b6000602082019050818103600083015261469b81614272565b9050919050565b600060208201905081810360008301526146bb81614295565b9050919050565b60006020820190506146d760008301846142c7565b92915050565b60006146e76146f8565b90506146f38282614a29565b919050565b6000604051905090565b600067ffffffffffffffff82111561471d5761471c614b61565b5b602082029050602081019050919050565b600067ffffffffffffffff82111561474957614748614b61565b5b61475282614b90565b9050602081019050919050565b600067ffffffffffffffff82111561477a57614779614b61565b5b61478382614b90565b9050602081019050919050565b6000819050602082019050919050565b60008190508160005260206000209050919050565b600081519050919050565b600081519050919050565b600081519050919050565b6000602082019050919050565b600082825260208201905092915050565b600082825260208201905092915050565b600081905092915050565b600082825260208201905092915050565b600081905092915050565b6000614837826149ab565b9150614842836149ab565b9250827fffffffffffffffffffffffffffffffffffffffffffffffffffffffffffffffff0382111561487757614876614ad4565b5b828201905092915050565b600061488d826149ab565b9150614898836149ab565b9250826148a8576148a7614b03565b5b828204905092915050565b60006148be826149ab565b91506148c9836149ab565b9250817fffffffffffffffffffffffffffffffffffffffffffffffffffffffffffffffff048311821515161561490257614901614ad4565b5b828202905092915050565b6000614918826149ab565b9150614923836149ab565b92508282101561493657614935614ad4565b5b828203905092915050565b600061494c8261498b565b9050919050565b60008115159050919050565b60007fffffffff0000000000000000000000000000000000000000000000000000000082169050919050565b600073ffffffffffffffffffffffffffffffffffffffff82169050919050565b6000819050919050565b82818337600083830152505050565b60005b838110156149e25780820151818401526020810190506149c7565b838111156149f1576000848401525b50505050565b60006002820490506001821680614a0f57607f821691505b60208210811415614a2357614a22614b32565b5b50919050565b614a3282614b90565b810181811067ffffffffffffffff82111715614a5157614a50614b61565b5b80604052505050565b6000614a65826149ab565b91507fffffffffffffffffffffffffffffffffffffffffffffffffffffffffffffffff821415614a9857614a97614ad4565b5b600182019050919050565b6000614aae826149ab565b9150614ab9836149ab565b925082614ac957614ac8614b03565b5b828206905092915050565b7f4e487b7100000000000000000000000000000000000000000000000000000000600052601160045260246000fd5b7f4e487b7100000000000000000000000000000000000000000000000000000000600052601260045260246000fd5b7f4e487b7100000000000000000000000000000000000000000000000000000000600052602260045260246000fd5b7f4e487b7100000000000000000000000000000000000000000000000000000000600052604160045260246000fd5b6000601f19601f8301169050919050565b7f455243373231456e756d657261626c653a206f776e657220696e646578206f7560008201527f74206f6620626f756e6473000000000000000000000000000000000000000000602082015250565b7f4552433732313a207472616e7366657220746f206e6f6e20455243373231526560008201527f63656976657220696d706c656d656e7465720000000000000000000000000000602082015250565b7f4f776e61626c653a206e6577206f776e657220697320746865207a65726f206160008201527f6464726573730000000000000000000000000000000000000000000000000000602082015250565b7f42616c616e63652065786365656473206c696d69740000000000000000000000600082015250565b7f4552433732313a207472616e736665722066726f6d20696e636f72726563742060008201527f6f776e6572000000000000000000000000000000000000000000000000000000602082015250565b7f4552433732313a20746f6b656e20616c7265616479206d696e74656400000000600082015250565b7f53616c65206d7573742062652061637469766520746f206d696e7420546f6b6560008201527f6e00000000000000000000000000000000000000000000000000000000000000602082015250565b7f4552433732313a207472616e7366657220746f20746865207a65726f2061646460008201527f7265737300000000000000000000000000000000000000000000000000000000602082015250565b7f4552433732313a20617070726f766520746f2063616c6c657200000000000000600082015250565b7f43616e206f6e6c79206d696e742074776f20746f6b656e73206174206120746960008201527f6d65000000000000000000000000000000000000000000000000000000000000602082015250565b7f4552433732313a206f70657261746f7220717565727920666f72206e6f6e657860008201527f697374656e7420746f6b656e0000000000000000000000000000000000000000602082015250565b7f4552433732313a20617070726f76652063616c6c6572206973206e6f74206f7760008201527f6e6572206e6f7220617070726f76656420666f7220616c6c0000000000000000602082015250565b7f4552433732313a2062616c616e636520717565727920666f7220746865207a6560008201527f726f206164647265737300000000000000000000000000000000000000000000602082015250565b7f4552433732313a206f776e657220717565727920666f72206e6f6e657869737460008201527f656e7420746f6b656e0000000000000000000000000000000000000000000000602082015250565b7f507572636861736520776f756c6420657863656564206d617820737570706c79600082015250565b7f4552433732313a206d696e7420746f20746865207a65726f2061646472657373600082015250565b7f4552433732313a20617070726f76656420717565727920666f72206e6f6e657860008201527f697374656e7420746f6b656e0000000000000000000000000000000000000000602082015250565b7f4f776e61626c653a2063616c6c6572206973206e6f7420746865206f776e6572600082015250565b7f4552433732314d657461646174613a2055524920717565727920666f72206e6f60008201527f6e6578697374656e7420746f6b656e0000000000000000000000000000000000602082015250565b7f4552433732313a20617070726f76616c20746f2063757272656e74206f776e6560008201527f7200000000000000000000000000000000000000000000000000000000000000602082015250565b50565b7f4552433732313a207472616e736665722063616c6c6572206973206e6f74206f60008201527f776e6572206e6f7220617070726f766564000000000000000000000000000000602082015250565b7f455243373231456e756d657261626c653a20676c6f62616c20696e646578206f60008201527f7574206f6620626f756e64730000000000000000000000000000000000000000602082015250565b7f4e6f7420656e6f7567682065746865722073656e740000000000000000000000600082015250565b6151bc81614941565b81146151c757600080fd5b50565b6151d381614953565b81146151de57600080fd5b50565b6151ea8161495f565b81146151f557600080fd5b50565b615201816149ab565b811461520c57600080fd5b5056fea26469706673582212206578990f7e3e4e39dc8a85f23a9fdd384b1f457a7b688bce6f58c6dd57034efe64736f6c63430008040033",
  "linkReferences": {},
  "deployedLinkReferences": {}
}